:0400000031EF19F0D3
:10313500EF0088C69A1200016E01C063F01200010B
:103145006E01C0C9FFC7A0FED7C9CF01F0120002AA
:103155006E8B908B940250A2EC18F08B80120002BB
:103165006E8B908B840250A2EC18F08B801200932A
:1031750092949E9380929AC00EC76E200EC66E12D0
:1031850000036E000E026E3A0E036005D02F0E038B
:103195006402D0010E026E02C001F0013012008BF4
:1031A500808B92000E026E320E016E1BEC19F08BB5
:1031B50082000E026E960E016E1BEC19F0120001D4
:1031C500C060F002C061F0000160516111D8A40037
:1031D5000E626F03C05EF006EC19F00001646F1219
:1031E5000001500302F3CF05F0F4CF06F0015004BF
:1031F50002F350062602500302F350062605C001CD
:10320500F006C002F0120060C05BF061C05CF062C5
:10321500C05DF0060E5B26000E5C22000E5D225B93
:10322500C0F6FF5CC0F7FF5DC0F8FF0800F550125F
:1032350000000E056E000E046E0AD0100E036E948B
:103245000EE82EFED7032EFCD700D0044A052A012E
:1032550050045C02500558D8B01200EFD700016445
:103265006B636B626B616B606B5F6A5E6A5D6A5C08
:103275006A5B6A350EF66E310EF76E000EF86E0952
:1032850000F5CF65F00900F5CF66F00900F5CF67C9
:10329500F0000EF86E0001BDEF23F00A500B10D8B8
:1032A500B418D0010E0C6E04D0D8900A360B360C2B
:1032B5002A0BAEFAD70A50085C0B500958D8A0045F
:1032C500D00A50085E0B50095AD8900B320A320CBE
:1032D5002EF1D708C008F009C009F012008B908BB9
:1032E500942A0EA2EC18F08B840350A2EC18F0027D
:1032F50050A2EC18F00550A2EC18F00450A2EC18FE
:10330500F08B942B0EA2EC18F08B840750A2EC18CE
:10331500F00650A2EC18F00950A2EC18F00850A2E3
:10332500EC18F08B942C0EA2EC18F08B8012000098
:103335000E066E000E056E03500410D8B41CD001A5
:103345000E076E04D0D89003360436072A04AEFA69
:10335500D7D890053606360350015C04500258D87C
:10336500A005D00350015E0450025A0580D8900490
:10337500320332072EEDD705C001F006C002F01268
:103385000024D01DC00AF01EC00BF01FC00CF02099
:10339500C00DF021C00EF022C00FF023C010F024A4
:1033A500C011F01BC0D9FF1CC0DAFFDF5039EC2279
:1033B500F05E505FC025F0266A2526000E262225E0
:1033C500501D2626501E221B4A1C2A1BC0D9FF1C35
:1033D500C0DAFFDF50D8B41200D4D725D01DC00AFB
:1033E500F01EC00BF01FC00CF020C00DF021C00E68
:1033F500F022C00FF023C010F024C011F01BC0F65E
:10340500FF1CC0F7FF0800F55039EC22F05E505F55
:10341500C025F0266A2526000E262225501D2626C3
:10342500501E221B4A1C2A1BC0F6FF1CC0F7FF08B2
:1034350000F5500009D8B41200D1D71350186E12F8
:10344500C019F00AC002F00BC003F00EC004F00F63
:10345500C005F00CC006F00DC007F010C008F01153
:10346500C009F071EC19F08B908B840CC014F00D31
:10347500C015F015D00AC016F00BC017F008D0180B
:1034850050A2EC18F01950A2EC18F0164A172A169B
:10349500500E5C17500F58D8B0F2D7144A152A149D
:1034A50050105C15501158D8B0E5D78B8012000B21
:1034B500500C6E0AC00DF026D0000E036E000E02F1
:1034C5006E000E056EEF0E046E000E076E000E0602
:1034D5006E010E096E3F0E086E71EC19F01BD000DF
:1034E5000E036E000E026E010E056E3F0E046E0099
:1034F5000E076E000E066E000E096EEF0E086E7159
:10350500EC19F008D000016751880AD8B4D5D76006
:103515000AD8B4E5D78B908B84000E0F6E000E0E83
:103525006E400E0E5C010E0F58D8B016D0000E116D
:103535006E000E106E11500DE1F00E105CD8B00942
:10354500D00C50A2EC18F00D50A2EC18F0104A1156
:103555002AF1D70E4A0F2AE4D78B80120035C01501
:10356500F036C016F037C017F038C018F039C0195A
:10357500F03AC01AF037C01BF038C01CF03DC01D32
:10358500F03EC01EF0C8EC1BF035C015F036C01675
:10359500F03BC017F03CC018F039C019F03AC01A1A
:1035A500F03BC01BF03CC01CF03DC01DF03EC01EF2
:1035B500F0C8EC1BF035C015F036C016F037C01753
:1035C500F038C018F035C019F036C01AF03BC01BF2
:1035D500F03CC01CF03DC01DF03EC01EF0C8EC1B09
:1035E500F039C015F03AC016F037C017F038C018DA
:1035F500F039C019F03AC01AF03BC01BF03CC01CB2
:10360500F03DC01DF03EC01EF0C8EC1BF012000DD1
:10361500D0010E07D0090E05D0190E03D0310E01C9
:10362500D0510E146E15D0790EFCD70001635100F0
:103635000AD8B4EED7010AD8B4EDD7030AD8B4EC4A
:10364500D7010AD8B4EBD7070AD8B4EAD7010AEBF1
:10365500D700016351106E116A101E111E104A1118
:103665002A0A501024026E0B501120036E000163CC
:10367500510A24046E000E0B20056E0001635112E1
:103685006E136A121E131E124A132A0C50122406B8
:103695006E0D501320076E000163510C24086E0057
:1036A5000E0D20096E71EC19F08B908B8407D00FED
:1036B50050A2EC18F00E50A2EC18F014061450D8D5
:1036C500A4F6D78B8012000CC002F00DC003F010D9
:1036D500500C24126E000E0D20136EFF0E122404E2
:1036E5006EFF0E1320056E0EC006F00FC007F01119
:1036F500500E24146E000E0F20156EFF0E142408B4
:103705006EFF0E1520096E71EC19F08B908B8400FD
:103715000E176E000E166E2ED0000E196E000E18C6
:103725006E1ED00AC0F6FF0BC0F7FF0900F5CF12D9
:10373500F00900F5CF13F013C012F0136A1250A26E
:10374500EC18F00AC0F6FF0BC0F7FF0800F550A211
:10375500EC18F0020E0A26000E0B22184A192A1040
:1037650050126E136A1250185C13501958D8A0D90C
:10377500D7164A172A1150126E136A1250165C1387
:10378500501758D8A0C9D78B80120015C01FF01646
:10379500C020F01F1E201E1F4A202A19501F243149
:1037A5006E1A502020326E17C01FF018C020F01F6F
:1037B5001E201E1F4A202A1B501F24336E1C50201A
:1037C50020346E000E266E000E256E000E286E004B
:1037D5000E276E000E2C6E000E2B6E000E2A6E004C
:1037E5000E296E32AE03D0256826680BD032BE098D
:1037F500D0325003E13104D8A004D0000E266E016A
:103805000E256E34AE03D0276828680BD034BE0968
:10381500D0345003E13304D8A004D0000E286E0143
:103825000E276E32AE03D02B682C680BD032BE0942
:10383500D0325003E13104D8A004D0000E2C6E0123
:103845000E2B6E32AE0DD031C001F032C002F0FF4A
:103855000E046E0368F3EC18F001C031F002C032BB
:10386500F034AE0DD033C001F034C002F0FF0E04C9
:103875006E0368F3EC18F001C033F002C034F03188
:10388500C02FF032C030F033C02DF034C02EF02FF1
:10389500502D5C2E50800A1F6E3050800A1F58D85C
:1038A500A01CD033C02FF034C030F031C02DF03221
:1038B500C02EF034AE03D029682A680BD034BE0977
:1038C500D0345003E13304D8A004D0000E2A6E0191
:1038D5000E296E000E2C6E000E2B6E303430301F0C
:1038E5006E2F30236E1FC024F0000E226E000E21B5
:1038F5006E32D015C00AF016C00BF017C00CF018C8
:10390500C00DF01DC00EF01EC00FF00AEC1BF02D0F
:103915005023262E5024222F50235C2450800A1F2A
:103925006E3050800A1F58D8A00CD02F50235E301F
:1039350050245A255015262650162227501726287A
:103945005007D02B5015262C501622295017262A01
:10395500501822214A222A21502F5C3050800A1FFC
:103965006E2250800A1F58D8A01200C3D794909495
:103975009494928B808B948B92D2EC18F0CB0EAAF8
:10398500EC18F0390EB2EC18F02C0EB2EC18F00071
:103995000EB2EC18F0340EB2EC18F0020EB2EC18C0
:1039A500F0CF0EAAEC18F0000EB2EC18F0C10EB272
:1039B500EC18F0300EB2EC18F0E80EAAEC18F08511
:1039C5000EB2EC18F0000EB2EC18F0780EB2EC184E
:1039D500F0EA0EAAEC18F0000EB2EC18F0000EB2E8
:1039E500EC18F0ED0EAAEC18F0640EB2EC18F0032A
:1039F5000EB2EC18F0120EB2EC18F0810EB2EC1803
:103A0500F0F70EAAEC18F0200EB2EC18F0C00EAAD2
:103A1500EC18F0230EB2EC18F0C10EAAEC18F01059
:103A25000EB2EC18F0C50EAAEC18F03E0EB2EC186A
:103A3500F0280EB2EC18F0C70EAAEC18F0860EB2FC
:103A4500EC18F0360EAAEC18F0880EB2EC18F03A25
:103A55000EAAEC18F0550EB2EC18F0B10EAAEC183F
:103A6500F0000EB2EC18F0180EB2EC18F0B60EAA73
:103A7500EC18F0080EB2EC18F0820EB2EC18F02734
:103A85000EB2EC18F0F20EAAEC18F0000EB2EC181B
:103A9500F0260EAAEC18F0010EB2EC18F0E00EAA12
:103AA500EC18F00F0EB2EC18F0310EB2EC18F02B4A
:103AB5000EB2EC18F00C0EB2EC18F00E0EB2EC18BB
:103AC500F0080EB2EC18F04E0EB2EC18F0F10EB292
:103AD500EC18F0370EB2EC18F0070EB2EC18F01037
:103AE5000EB2EC18F0030EB2EC18F00E0EB2EC1894
:103AF500F0090EB2EC18F0000EB2EC18F0E10EAAC7
:103B0500EC18F0000EB2EC18F00E0EB2EC18F01432
:103B15000EB2EC18F0030EB2EC18F0110EB2EC1860
:103B2500F0070EB2EC18F0310EB2EC18F0C10EB27F
:103B3500EC18F0480EB2EC18F0080EB2EC18F00FC5
:103B45000EB2EC18F00C0EB2EC18F0310EB2EC1807
:103B5500F0360EB2EC18F00F0EB2EC18F0110EAAFA
:103B6500EC18F0000E026E960E016E1BEC19F02992
:103B75000EAAEC18F0FF0E0B6E0A685AEC1AF0123A
:103B8500003D503524156E3E503620166E37C01751
:103B9500F038C018F03DC041F03EC042F0411E4231
:103BA5001E414A422A39504124196E3A5042201A80
:103BB5006E37C01BF038C01CF03FC01DF040C01E62
:103BC500F0C8EC1BF03D503524156E3E50362016DE
:103BD5006E3BC017F03CC018F03DC041F03EC042FE
:103BE500F0411E421E414A422A39504124196E3A7B
:103BF5005042201A6E3BC01BF03CC01CF03FC01D5C
:103C0500F040C01EF0C8EC1BF035C015F036C016EC
:103C1500F03D503724176E3E503820186E35C019C8
:103C2500F036C01AF03DC041F03EC042F0411E42A0
:103C35001E414A422A3B5041241B6E3C5042201CE7
:103C45006E3FC01DF040C01EF0C8EC1BF039C0151A
:103C5500F03AC016F03D503724176E3E5038201804
:103C65006E39C019F03AC01AF03DC041F03EC0426D
:103C7500F0411E421E414A422A3B5041241B6E3CE4
:103C85005042201C6E3FC01DF040C01EF0C8EC1B0A
:103C9500F03D503524156E3E503620166E3D50379A
:103CA50024176E3E503820186E000E1A6E030E193A
:103CB5006E3DC01BF03EC01CF03FC01DF040C01E55
:103CC500F007EC21F03DC041F03EC042F0411E42FC
:103CD5001E414A422A39504124156E3A5042201657
:103CE5006E3D503724176E3E503820186E000E1A60
:103CF5006E040E196E3DC01BF03EC01CF03FC01D8A
:103D0500F040C01EF007EC21F03D503524156E3E05
:103D1500503620166E3DC041F03EC042F0411E4275
:103D25001E414A422A3B504124176E3C50422018FE
:103D35006E000E1A6E020E196E3DC01BF03EC01CC1
:103D4500F03FC01DF040C01EF007EC21F03DC04122
:103D5500F03EC042F0411E421E414A422A395041BE
:103D650024156E3A504220166E3DC043F03EC044C5
:103D7500F0431E441E434A442A3B504324176E3CDD
:103D8500504420186E000E1A6E010E196E3DC01BB0
:103D9500F03EC01CF03FC01DF040C01EF007EC21F6
:103DA500F0120019C023F01AC024F0000E266E0090
:103DB5000E256E23C01DF024C01EF01D1E1E1E1DE7
:103DC5004A1E2A010E1D24216E000E1E20226EF7AA
:103DD500D0155023240A6E165024200B6E1750253B
:103DE500240C6E185026200D6E1BC00EF01CC00F43
:103DF500F00AEC1BF0155025240A6E165026200BF0
:103E05006E175023240C6E185024200D6E1BC00E07
:103E1500F01CC00FF00AEC1BF023C01DF024C01EDF
:103E2500F01D1E1E1E1D4A1E2A15501D240A6E1643
:103E3500501E200B6E175025240C6E185026200D91
:103E45006E1BC00EF01CC00FF00AEC1BF025C01D48
:103E5500F026C01EF01D1E1E1E1D4A1E2A15501DD1
:103E6500240A6E16501E200B6E175023240C6E1854
:103E75005024200D6E1BC00EF01CC00FF00AEC1B69
:103E8500F023C01DF024C01EF01D1E1E1E1D4A1E5F
:103E95002A15501D240A6E16501E200B6E25C01FB4
:103EA500F026C020F01F1E201E1F4A202A17501F73
:103EB500240C6E185020200D6E1BC00EF01CC00F78
:103EC500F00AEC1BF025C01DF026C01EF01D1E1EBD
:103ED5001E1D4A1E2A15501D240A6E16501E200B43
:103EE5006E23C01FF024C020F01F1E201E1F4A2075
:103EF5002A17501F240C6E185020200D6E1BC00E63
:103F0500F01CC00FF00AEC1BF0155023240A6E16A6
:103F15005024200B6E25C01DF026C01EF01D1E1E50
:103F25001E1D4A1E2A17501D240C6E18501E200DEA
:103F35006E1BC00EF01CC00FF00AEC1BF0155025CF
:103F4500240A6E165026200B6E23C01DF024C01EB9
:103F5500F01D1E1E1E1D4A1E2A17501D240C6E180C
:103F6500501E200D6E1BC00EF01CC00FF00AEC1B7E
:103F7500F0254A262A22AE09D025C01DF026C01EEE
:103F8500F0D8901D361E36010E13D02306D8A02476
:103F95000623C01DF024C01EF01D1E1E1E1D4A1E38
:103FA5002A25501D2626501E22D8901D361E360263
:103FB5000E1D26000E1E221D5021261E50222225D2
:103FC50050235C2450800A1D6E2650800A1D58D847
:103FD500A01200FED6110E176E000E186E02D12526
:103FE5000E1F18D8B409D00DC0D9FF0EC0DAFF1FB7
:103FF500C0DFFF0D4A0E2AF5D0000E1E6E000E1D05
:104005006E000E1A6E0FC0F6FF10C0F7FF0800F520
:1040150050C3EC18F0D8A032D0000E1E6E000E1D55
:104025006E1DC001F01EC002F0000E046E0A0E03E4
:104035006EF3EC18F001C01DF002C01EF0D00E1397
:104045006EFF0E146E0FC0F6FF10C0F7FF0800F5E7
:1040550050156E166A135015261450162215501D4C
:104065002616501E220F4A102A0FC0F6FF10C0F761
:10407500FF0800F550C3EC18F0D8B0D2D70FC0F642
:10408500FF10C0F7FF0F4A102A0800F5CF1FF01FD9
:1040950050000AD8B4B2D0640AD8B403D00D0AD8F7
:1040A500A4A0D017C0D9FF18C0DAFFDECF1BF0DD02
:1040B500CF1CF0020E1726000E18221CAE06D003E8
:1040C5000E1A121B6C1C1ED8B01C2A010E1F6E0581
:1040D5000E1F18D8B412D01F50020D210EF324F66E
:1040E5006E4D0EF420F76E0900F5501B5C0900F5C6
:1040F500501C58D8A002D01F2AEAD71D501E10D830
:10410500B409D01AC013F0030E1316D8B403D01D8A
:1041150006D8A01E06800E1FBE7F0E136E1D501FF3
:104125005C1E50800A1358D8B007D01F501D5E0082
:104135000E1FBEFF0E1E5A04D0000E1E6E000E1D71
:104145006E1D501E10D8B40FD00DC0D9FF0EC0DAA9
:10415500FF200EDF6E0D4A0E2A1D06D8A01E061D75
:10416500501E10D8A4F1D71AC013F0030E1316D899
:10417500B408D00DC0D9FF0EC0DAFF2D0EDF6E0DCD
:104185004A0E2A1FC019F029D01950020D210EF32D
:1041950024F66E4D0EF420F76E0900F5CF03F00AF4
:1041A50000F5CF04F01BC001F01CC002F09AEC1919
:1041B500F001C008F002C009F0000E0B6E0A0E0AED
:1041C5006E50EC19F00850300F1F6E0DC0D9FF0E60
:1041D500C0DAFF1FC0DFFF0D4A0E2A19061928D8BD
:1041E500A4D3D70FC0F6FF10C0F7FF0F4A102A0857
:1041F50000F5CF1FF01F50D8A4F2D60DC0D9FF0E81
:10420500C0DAFF000EDF6E12001BC025F01CC026B1
:10421500F0000E286E000E276E25C01FF026C02068
:10422500F01F1E201E1F4A202A010E1F24236E0088
:104235000E2020246E10D1155025240A6E16502606
:10424500200B6E175027240C6E185028200D6E1D5C
:10425500C00EF01EC00FF00AEC1BF0155027240A03
:104265006E165028200B6E175025240C6E185026FC
:10427500200D6E1DC00EF01EC00FF00AEC1BF0C421
:10428500D025C01FF026C020F01F1E201E1F4A206B
:104295002A15501F240A6E165020200B6E17502722
:1042A500240C6E185028200D6E1DC00EF01EC00F78
:1042B500F00AEC1BF027C01FF028C020F01F1E20BD
:1042C5001E1F4A202A15501F240A6E165020200B47
:1042D5006E175025240C6E185026200D6E1DC00E2D
:1042E500F01EC00FF00AEC1BF08FD025C01FF02682
:1042F500C020F01F1E201E1F4A202A15501F240A09
:104305006E165020200B6E27C021F028C022F02108
:104315001E221E214A222A175021240C6E185022D3
:10432500200D6E1DC00EF01EC00FF00AEC1BF0270D
:10433500C01FF028C020F01F1E201E1F4A202A156E
:10434500501F240A6E165020200B6E25C021F02622
:10435500C022F0211E221E214A222A175021240C98
:104365006E185022200D6E1DC00EF01EC00FF00AF3
:10437500EC1BF04AD0155025240A6E165026200B4A
:104385006E27C01FF028C020F01F1E201E1F4A20C8
:104395002A17501F240C6E185020200D6E1DC00EBC
:1043A500F01EC00FF00AEC1BF0155027240A6E16FC
:1043B5005028200B6E25C01FF026C020F01F1E20A0
:1043C5001E1F4A202A17501F240C6E185020200D3E
:1043D5006E1DC00EF01EC00FF00AEC1BF015D019B3
:1043E500C01FF01AC020F02050000AD8A40DD01F1D
:1043F50050010AD8B420D7030AD8B442D7010AD845
:10440500B474D7070AD8B4B6D7274A282A24AE09E0
:10441500D027C01FF028C020F0D8901F36203601C5
:104425000E13D02506D8A0260625C01FF026C020CD
:10443500F01F1E201E1F4A202A27501F2628502005
:1044450022D8901F362036020E1F26000E20221F6E
:10445500502326205024222750255C2650800A1FF1
:104465006E2850800A1F58D8A01200B9D7156EE0E3
:104475000E1524186E196AFF0E192218C012F019AC
:10448500C013F0D89012361336D890123613361260
:10449500C018F013C019F0080E1824186E000E1974
:1044A50020196E60C05BF061C05CF062C05DF01801
:1044B500C0E8FF5B2619C0E8FF5C22000E5D225BA9
:1044C500C0F6FF5CC0F7FF5DC0F8FF0800F5CF5FE1
:1044D500F0020E5B26000E5C22000E5D225BC0F62C
:1044E500FF5CC0F7FF5DC0F8FF0800F550186E19B6
:1044F5006A010E5B5E000E5C5A000E5D5A5BC0F6EB
:10450500FF5CC0F7FF5DC0F8FF0800F5CF12F0189B
:1045150050136E1250186E13C019F060C05BF06135
:10452500C05CF062C05DF018C0E8FF5B2619C0E80A
:10453500FF5C22000E5D2264C016F00AC002F00B7B
:10454500C003F05E505FC012F0136A1226000E130E
:10455500220A5012260B501322FF0E1224046EFF5E
:104565000E1320056E0CC006F00DC007F0000164A7
:10457500510C24086E000E0D20096E71EC19F08B9C
:10458500908B84F3D05FC01AF0DED01A50D8B4CE29
:10459500D05BC0F6FF5CC0F7FF5DC0F8FF0800F513
:1045A500A007D00F50A2EC18F00E50A2EC18F006A0
:1045B500D01150A2EC18F01050A2EC18F01A061AFF
:1045C50050D8B4B4D05BC0F6FF5CC0F7FF5DC0F84F
:1045D500FF0800F5A207D00F50A2EC18F00E50A26C
:1045E500EC18F006D01150A2EC18F01050A2EC18FF
:1045F500F01A061A50D8B49AD05BC0F6FF5CC0F723
:10460500FF5DC0F8FF0800F5A407D00F50A2EC1815
:10461500F00E50A2EC18F006D01150A2EC18F010D4
:1046250050A2EC18F01A061A50D8B480D05BC0F628
:10463500FF5CC0F7FF5DC0F8FF0800F5A607D00FC7
:1046450050A2EC18F00E50A2EC18F006D01150A2B2
:10465500EC18F01050A2EC18F01A061A50D8B466EF
:10466500D05BC0F6FF5CC0F7FF5DC0F8FF0800F542
:10467500A807D00F50A2EC18F00E50A2EC18F006C7
:10468500D01150A2EC18F01050A2EC18F01A061A2E
:1046950050D8B44CD05BC0F6FF5CC0F7FF5DC0F8E6
:1046A500FF0800F5AA07D00F50A2EC18F00E50A293
:1046B500EC18F006D01150A2EC18F01050A2EC182E
:1046C500F01A061A50D8B432D05BC0F6FF5CC0F7BA
:1046D500FF5DC0F8FF0800F5AC07D00F50A2EC183D
:1046E500F00E50A2EC18F006D01150A2EC18F01004
:1046F50050A2EC18F01A061A50D8B418D05BC0F6C0
:10470500FF5CC0F7FF5DC0F8FF0800F5AE07D00FEE
:1047150050A2EC18F00E50A2EC18F006D01150A2E1
:10472500EC18F01050A2EC18F01A0607D0010E5B39
:1047350026000E5C22000E5D2209D0010E5B2600CC
:104745000E5C22000E5D221A50D8A41FD7000E174A
:104755006E07D01150A2EC18F01050A2EC18F0170B
:104765002A5E50175CD8A0F5D716061650D8A40AAD
:10477500D78B8012000F0EC16E000E806E000E8169
:104785006E000E826E000E926E000E936E000E94F9
:104795006E9CEC18F0BAEC18F0B9EC1CF0010E9E0A
:1047A500EC18F0000E366E050E356E000E386E7381
:1047B5000E376E000E3A6EEA0E396E010E3C6E3AF9
:1047C5000E3B6E000E3E6E0A0E3D6E000E406E00F4
:1047D5000E3F6EC3EC1DF02B0E016E6D0E026E01C9
:1047E5000E036EE2EC18F0EB0E1B6E7F0E1C6E00D6
:1047F5000E1E6E140E1D6E000E206E0A0E1F6E002C
:104805000E226E000E216EFF0E246E2368F0EC1949
:10481500F0C10E1B6E7F0E1C6E000E1E6E140E1D5B
:104825006E000E206E220E1F6E000E226E000E21EF
:104835006EFF0E246E2368F0EC19F0D00E1B6E7F10
:104845000E1C6E000E1E6E140E1D6E000E206E3AAE
:104855000E1F6E000E226E000E216EFF0E246E23BB
:1048650068F0EC19F0F70E1B6E7F0E1C6E000E1E25
:104875006E140E1D6E000E206E520E1F6E000E225F
:104885006E000E216EFF0E246E2368F0EC19F00306
:104895000E026EE80E016E1BEC19F0000E0B6E0099
:1048A5000E0A6E000E0D6E0A0E0C6E000E0F6E00D7
:1048B5000E0E6EFF0E116E10683E0E39EC22F0EBF7
:1048C5000E1B6E7F0E1C6E000E1E6E140E1D6E00EE
:1048D5000E206E0A0E1F6EFF0E226E2168000E243A
:1048E5006E000E236EF0EC19F0030E026E200E0121
:1048F5006E1BEC19F0000E0B6E000E0A6E000E0D0D
:104905006E0A0E0C6EFF0E0F6E0E68FF0E116E1006
:10491500683E0E39EC22F0EB0E1B6E7F0E1C6E000E
:104925000E1E6E140E1D6E000E206E0A0E1F6E00FA
:104935000E226E000E216EFF0E246E2368F0EC1918
:10494500F0000E0B6E000E0A6E000E0D6E220E0CA0
:104955006E000E0F6E000E0E6EFF0E116E10683E8D
:104965000E39EC22F0C10E1B6E7F0E1C6E000E1E62
:104975006E140E1D6E000E206E220E1F6EFF0E228F
:104985006E2168000E246E000E236EF0EC19F00304
:104995000E026E200E016E1BEC19F0000E0B6E0060
:1049A5000E0A6E000E0D6E220E0C6EFF0E0F6E0EB1
:1049B50068FF0E116E10683E0E39EC22F0C10E1B19
:1049C5006E7F0E1C6E000E1E6E140E1D6E000E20E8
:1049D5006E220E1F6E000E226E000E216EFF0E243B
:1049E5006E2368F0EC19F0000E0B6E000E0A6E00D7
:1049F5000E0D6E3A0E0C6E000E0F6E000E0E6EFF53
:104A05000E116E10683E0E39EC22F0D00E1B6E7F33
:104A15000E1C6E000E1E6E140E1D6E000E206E3ADC
:104A25000E1F6EFF0E226E2168000E246E000E23EF
:104A35006EF0EC19F0030E026E200E016E1BEC19E0
:104A4500F0000E0B6E000E0A6E000E0D6E3A0E0C87
:104A55006EFF0E0F6E0E68FF0E116E10683E0E395A
:104A6500EC22F0D00E1B6E7F0E1C6E000E1E6E1417
:104A75000E1D6E000E206E3A0E1F6E000E226E0089
:104A85000E216EFF0E246E2368F0EC19F0000E0B5C
:104A95006E000E0A6E000E0D6E520E0C6E000E0F9D
:104AA5006E000E0E6EFF0E116E10683E0E39EC2272
:104AB500F0F70E1B6E7F0E1C6E000E1E6E140E1D83
:104AC5006E000E206E520E1F6EFF0E226E216800C4
:104AD5000E246E000E236EF0EC19F0030E026E200C
:104AE5000E016E1BEC19F0000E5A6E1F0E596E5A10
:104AF500BE33D05A5004E1020E595CD8A02DD045E2
:104B05000E0D6E000E0E6EDF0E0F6E7F0E106E59BF
:104B1500C011F05AC012F0EDEC1FF0450E1B6E00EF
:104B25000E1C6E000E1E6E140E1D6E000E206E52B3
:104B35000E1F6EFF0E226E2168000E246E000E23DE
:104B45006EC3EC19F0000E026EC80E016E1BEC1957
:104B5500F05906D8A05A06CBD7000E0B6E210E0AC7
:104B65006E000E0D6E960E0C6E000E0F6E3F0E0E45
:104B75006E000E116EB40E106E800E136E000E12C6
:104B85006E20EC1AF0000E0B6E670E0A6E000E0D0D
:104B95006E960E0C6E000E0F6E850E0E6E000E11CB
:104BA5006EB40E106E040E136E000E126E20EC1A0B
:104BB500F0000E0B6EAD0E0A6E000E0D6E960E0C0D
:104BC5006E000E0F6ECB0E0E6E000E116EB40E1033
:104BD5006E000E136E100E126E20EC1AF0000E16FB
:104BE5006E300E156E000E186EA50E176E000E1A9D
:104BF5006E1A0E196E000E1C6E000E1B6ED4EC1E86
:104C0500F0000E366E5D0E356E000E386E8C0E376A
:104C15006E000E3A6E8F0E396E000E3C6EBE0E3B68
:104C25006E000E3E6E0A0E3D6E000E406E000E3F8B
:104C35006EC3EC1DF0000E366EA30E356E000E38F9
:104C45006E8C0E376E000E3A6ED50E396E000E3C28
:104C55006EBE0E3B6E000E3E6E000E3D6EB1EC1A42
:104C6500F02B0E0A6E4D0E0B6E000E0D6E140E0C13
:104C75006E000E0F6EDC0E0E6E400E106E400E11A5
:104C85006E66EC1BF0030E9EEC18F0000E366E5DA2
:104C95000E356E000E386ED20E376E000E3A6ED59A
:104CA5000E396E010E3C6E2C0E3B6E000E3E6E0AEA
:104CB5000E3D6E000E406E000E3F6EC3EC1DF00003
:104CC5000E9EEC18F0000E166E5D0E156E000E1899
:104CD5006E1768000E1A6ED50E196E000E1C6E1B2F
:104CE50068000E1E6E000E1D6EC8EC1BF0000E1641
:104CF5006E990E156E000E186ED20E176E000E1AF6
:104D05006E990E196E010E1C6E2C0E1B6E000E1E7A
:104D15006E000E1D6EC8EC1BF0FFD70001000A00E7
:104D25006400E8031027FFFFFFFFFFFFFFFFFFFF02
:104D3500FFFFFFFFFFFFFFFFFFFFFFFFFFFFFFFF7E
:104D4500FFFFFFFFFFFFFFFFFFFFFFFFFFFFFFFF6E
:104D5500FFFFFFFFFFFFFFFFFFFFFFFFFFFFFFFF5E
:104D6500FFFFFFFFFFFFFFFFFFFFFFFFFFFFFFFF4E
:104D7500FFFFFFFFFFFFFFFFFFFFFFFFFFFFFFFF3E
:104D8500FFFFFFFFFFFFFFFFFFFFFFFFFFFFFFFF2E
:104D9500FFFFFFFFFFFFFFFFFFFFFFFFFFFFFFFF1E
:104DA500FFFFFFFFFFFFFFFFFFFFFFFFFFFFFFFF0E
:104DB500FFFFFFFFFFFFFFFFFFFFFFFFFFFFFFFFFE
:104DC500FFFFFFFFFFFFFFFFFFFFFFFFFFFFFFFFEE
:104DD500FFFFFFFFFFFFFFFFFFFFFFFFFFFFFFFFDE
:104DE500FFFFFFFFFFFFFFFFFFFFFFFFFFFFFFFFCE
:104DF500FFFFFFFFFFFFFFFFFFFFFFFFFFFFFFFFBE
:104E0500FFFFFFFFFFFFFFFFFFFFFFFFFFFFFFFFAD
:104E1500FFFFFFFFFFFFFFFFFFFFFFFFFFFFFFFF9D
:104E2500FFFFFFFFFFFFFFFFFFFFFFFFFFFFFFFF8D
:104E3500FFFFFFFFFFFFFFFFFFFFFFFFFFFFFFFF7D
:104E4500FFFFFFFFDFFFDFFFDFFFDFFFDFFFFFFF0D
:104E5500FFFFFFFFFFFFFFFFFFFFFFFFFFFFFFFF5D
:104E6500FFFFFFFFFFFFFFFFFFFFFFFFDFFFDFFF8D
:104E7500DFFFDFFFDFFFFFFFFFFFFFFFFFFFFFFF9D
:104E8500FFFFFFFFFFFFFFFFFFFFFFFFFFFFFFFF2D
:104E9500FFFFFFFFDFFFDFFFDFFFDFFFDFFFFFFFBD
:104EA500FFFFFFFFFFFFFFFFFFFFFFFFFFFFFFFF0D
:104EB500FFFFFFFFFFFFFFFFFFFFFFFFFFFFFFFFFD
:104EC500FFFFDFFFDFFFDFFFDFFFDFFFFFFFFFFF8D
:104ED500FFFFFFFFFFFFFFFFFFFFFFFFFFFFFFFFDD
:104EE500FFFFFFFFFFFFFFFFFFFFDFFFDFFFDFFF2D
:104EF500DFFFDFFFFFFFFFFFFFFFFFFFFFFFFFFFFD
:104F0500FFFFFFFFFFFFFFFFFFFFFFFFFFFFFFFFAC
:104F1500FFFFDFFFDFFFDFFFDFFFDFFFFFFFFFFF3C
:104F2500FFFFFFFFFFFFFFFFFFFFFFFFFFFFFFFF8C
:104F3500FFFFFFFFFFFFFFFFFFFFFFFFFFFFFFFF7C
:104F4500DFFFDFFFDFFFDFFFDFFFFFFFFFFFFFFF0C
:104F5500FFFFFFFFFFFFFFFFFFFFFFFFFFFFFFFF5C
:104F6500FFFFFFFFFFFFFFFFDFFFDFFFDFFFDFFFCC
:104F7500DFFFFFFFFFFFFFFFFFFFFFFFFFFFFFFF5C
:104F8500FFFFFFFFFFFFFFFFFFFFFFFFFFFFFFFF2C
:104F9500DFFFDFFFDFFFDFFFDFFFFFFFFFFFFFFFBC
:104FA500FFFFFFFFFFFFFFFFFFFFFFFFFFFFFFFF0C
:104FB500FFFFFFFFFFFFFFFFFFFFFFFFFFFFBEF745
:104FC500BEF7BEF7BEF7BEF7FFFFFFFFFFFFFFFF10
:104FD500FFFFFFFFFFFFFFFFFFFFFFFFFFFFFFFFDC
:104FE500FFFFFFFFFFFFBEF7BEF7BEF7BEF7BEF739
:104FF500FFFFFFFFFFFFFFFFFFFFFFFFFFFFFFFFBC
:10500500FFFFFFFFFFFFFFFFFFFFFFFFFFFFBEF7F4
:10501500BEF7BEF7BEF7BEF7FFFFFFFFFFFFFFFFBF
:10502500FFFFFFFFFFFFFFFFFFFFFFFFFFFFFFFF8B
:10503500FFFFFFFFFFFFFFFFFFFFFFFFBEF7BEF70D
:10504500BEF7BEF7BEF7FFFFFFFFFFFFFFFFFFFF46
:10505500FFFFFFFFFFFFFFFFFFFFFFFFFFFFFFFF5B
:10506500FFFFFFFFBEF7BEF7BEF7BEF7BEF7FFFFB8
:10507500FFFFFFFFFFFFFFFFFFFFFFFFFFFFFFFF3B
:10508500FFFFFFFFFFFFFFFFFFFFFFFFBEF7BEF7BD
:10509500BEF7BEF7BEF7FFFFFFFFFFFFFFFFFFFFF6
:1050A500FFFFFFFFFFFFFFFFFFFFFFFFFFFFFFFF0B
:1050B500FFFFFFFFFFFFFFFFFFFFBEF7BEF7BEF7D6
:1050C500BEF7BEF7FFFFFFFFFFFFFFFFFFFFFFFF7D
:1050D500FFFFFFFFFFFFFFFFFFFFFFFFFFFFFFFFDB
:1050E500FFFFBEF7BEF7BEF7BEF7BEF7FFFFFFFF38
:1050F500FFFFFFFFFFFFFFFFFFFFFFFFFFFFFFFFBB
:10510500FFFFFFFFFFFFFFFFFFFFBEF7BEF7BEF785
:10511500BEF7BEF7FFFFFFFFFFFFFFFFFFFFFFFF2C
:10512500FFFFFFFFFFFFFFFFFFFFFFFFFFFFFFFF8A
:10513500FFFFFFFFFFFFFFFFBEF7BEF7BEF7BEF79E
:10514500BEF7FFFFFFFFFFFFFFFFFFFFFFFFFFFFB3
:10515500FFFFFFFFFFFFFFFFFFFFFFFFFFFFFFFF5A
:10516500BEF7BEF7BEF7BEF7BEF7FFFFFFFFFFFFB7
:10517500FFFFFFFFFFFFFFFFFFFFFFFFFFFFFFFF3A
:10518500FFFFFFFFFFFFFFFFBEF7BEF7BEF7BEF74E
:10519500BEF7FFFFFFFFFFFFFFFFFFFFFFFFFFFF63
:1051A500FFFFFFFFFFFFFFFFFFFFFFFFFFFFFFFF0A
:1051B500FFFFFFFFFFFFBEF7BEF7BEF7BEF7BEF767
:1051C500FFFFFFFFFFFFFFFFFFFFFFFFFFFFFFFFEA
:1051D500FFFFFFFFFFFFFFFFFFFFFFFFFFFFBEF723
:1051E500BEF7BEF7BEF7BEF7FFFFFFFFFFFFFFFFEE
:1051F500FFFFFFFFFFFFFFFFFFFFFFFFFFFFFFFFBA
:10520500FFFFFFFFFFFFBEF7BEF7BEF7BEF7BEF716
:10521500FFFFFFFFFFFFFFFFFFFFFFFFFFFFFFFF99
:10522500FFFFFFFFFFFFFFFFFFFFFFFFFFFFFFFF89
:10523500FFFFFFFFBEF7BEF7BEF7BEF7BEF7FFFFE6
:10524500FFFFFFFFFFFFFFFFFFFFFFFFFFFFFFFF69
:10525500FFFFFFFFFFFFFFFFFFFFFFFFBEF7BEF7EB
:10526500BEF7BEF7BEF7FFFFFFFFFFFFFFFFFFFF24
:10527500FFFFFFFFFFFFFFFFFFFFFFFFFFFFFFFF39
:10528500FFFFFFFFBEF7BEF7BEF7BEF7BEF7FFFF96
:10529500FFFFFFFFFFFFFFFFFFFFFFFFFFFFFFFF19
:1052A500FFFFFFFFFFFFFFFFFFFFFFFFFFFFFFFF09
:1052B500FFFFBEF7BEF7BEF7BEF7BEF7FFFFFFFF66
:1052C500FFFFFFFFFFFFFFFFFFFFFFFFFFFFFFFFE9
:1052D500FFFFFFFFFFFFFFFFFFFFBEF7BEF7BEF7B4
:1052E500BEF7BEF7FFFFFFFFFFFFFFFFFFFFFFFF5B
:1052F500FFFFFFFFFFFFFFFFFFFFFFFFFFFFFFFFB9
:10530500FFFFBEF7BEF7BEF7BEF7BEF7FFFFFFFF15
:10531500FFFFFFFFFFFFFFFFFFFFFFFFFFFFFFFF98
:10532500FFFFFFFFFFFFFFFFFFFFFFFFFFFFFFFF88
:10533500BEF7BEF7BEF7BEF7BEF7FFFFFFFFFFFFE5
:10534500FFFFFFFFFFFFFFFFFFFFFFFFFFFFFFFF68
:10535500FFFFFFFFFFFFFFFFBEF7BEF7BEF7BEF77C
:10536500BEF7FFFFFFFFFFFFFFFFFFFFFFFFFFFF91
:10537500FFFFFFFFFFFFFFFFFFFFFFFFFFFFFFFF38
:10538500BEF779CED39C0C636529694ADFFFFFFF21
:10539500FFFFFFFFFFFFFFFFFFFFFFFFFFFFFFFF18
:1053A500FFFFFFFFFFFFFFFFFFFFFFFFFFFFDFFF28
:1053B500BEF7BEF7BEF7BEF7FFFFFFFFFFFFFFFF1C
:1053C500FFFFFFFFFFFFFFFFFFFFFFFFFFFFFFFFE8
:1053D500FFFFFFFFFFFFBEF7BEF7BEF7BEF7BEF745
:1053E500FFFFFFFFFFFFFFFFFFFFFFFFFFFFFFFFC8
:1053F500FFFFFFFFFFFFFFFF9EF7D7BD1084494A60
:10540500A21020002000200000000000DBDEFFFFCE
:10541500FFFFFFFFFFFFFFFFFFFFFFFFFFFFFFFF97
:10542500FFFFFFFFFFFFFFFFFFFFFFFFDFFFDFFFC7
:10543500BEF7BEF7BEF7FFFFFFFFFFFFFFFFFFFF52
:10544500FFFFFFFFFFFFFFFFFFFFFFFFFFFFFFFF67
:10545500FFFFFFFFBEF7BEF7BEF7BEF7BEF7FFFFC4
:10546500FFFFFFFFFFFFFFFFFFFFFFFFFFFFFFFF47
:10547500BAD6F39C2C6365290000000020002000AB
:10548500200020002000610808429294FFFFFFFFE2
:10549500FFFFFFFFFFFFFFFFFFFFFFFFFFFFFFFF17
:1054A500FFFFFFFFFFFFFFFFFFFFDFFFDFFFDFFF67
:1054B500BEF7BEF7FFFFFFFFFFFFFFFFFFFFFFFF89
:1054C500FFFFFFFFFFFFFFFFFFFFFFFFFFFFFFFFE7
:1054D500FFFFBEF7BEF7BEF7BEF7BEF7FFFFFFFF44
:1054E500FFFFFFFFFFFF9EF7D7BD1084494A8210DB
:1054F5000000000000000000000020002000242122
:10550500CB5A929479CEFFFFFFFFFFFFFFFFFFFF0E
:10551500FFFFFFFFFFFFFFFFFFFFFFFFFFFFFFFF96
:10552500FFFFDFFFFFFFFFFFFFFFDFFFDFFFDFFF06
:10553500BEF7FFFFFFFFFFFFFFFFFFFFFFFFFFFFBF
:10554500FFFFFFFFFFFFFFFFFFFFFFFFFFFFFFFF66
:10555500BEF7BEF7BEF7BEF7BEF7FFFFFFFFBAD631
:10556500F39C2C63452900000000000000000000AA
:105575000000000061080842CF7375AD1CE7BEF757
:10558500BEF7FFFFFFFFFFFFFFFFFFFFFFFFFFFF6F
:10559500FFFFFFFFFFFFFFFFFFFFFFFFFFFFFFFF16
:1055A500DFFFDFFFFFFFFFFFFFFFDFFFDFFFDFFFA6
:1055B500FFFFFFFFFFFFFFFFFFFFFFFFFFFFFFFFF6
:1055C500FFFFFFFFFFFFFFFFFFFFFFFFFFFFBEF72F
:1055D500BEF7BEF73CE796B510842842821000005E
:1055E5000000000000000000000000002421EB5A2C
:1055F500D39C9AD6DFFFBEF7BEF7BEF7BEF7BEF760
:10560500FFFFFFFFFFFFFFFFFFFFFFFFFFFFFFFFA5
:10561500FFFFFFFFFFFFFFFFFFFFFFFFFFFFDFFFB5
:10562500DFFFDFFFFFFFFFFFFFFFDFFFDFFFFFFF05
:10563500FFFFFFFFFFFFFFFFFFFFFFFFFFFFFFFF75
:10564500FFFFFFFFFFFFFFFFFFFFFFFF79CEB294D4
:105655000C63452920000000000000000000000048
:10566500000061080842EF7BB6B57DEFFFFFFFFF45
:10567500FFFFFFFFBEF7BEF7BEF7BEF7BEF7FFFFA2
:10568500FFFFFFFFFFFFFFFFFFFFFFFFFFFFFFFF25
:10569500FFFFFFFFFFFFFFFFFFFFFFFFBEF7DFFF7E
:1056A500DFFFDFFFFFFFFFFFFFFFDFFFFFFFFFFF65
:1056B500FFFFFFFFFFFFFFFFFFFFFFFFFFFFFFFFF5
:1056C500FFFF7DEFD7BDEF7B284282102000200031
:1056D5002000200000000000000045290C63D39C39
:1056E5009AD6FFFFFFFFFFFFFFFFFFFFFFFFFFFF53
:1056F500FFFFBEF7BEF7BEF7BEF7BEF7FFFFFFFF22
:10570500FFFFFFFFFFFFFFFFFFFFFFFFFFFFFFFFA4
:10571500FFFFFFFFFFFFFFFFFFFFBEF7BEF7DFFF46
:10572500DFFFDFFFFFFFFFFFFFFFFFFFFFFFFFFFC4
:10573500FFFFFFFFFFFFFFFFFFFFBAD6D39C0C6300
:105745004529000000000000200020002000200066
:1057550082102842EF7BB6B57DEFFFFFFFFFFFFF0D
:10576500FFFFFFFFFFFFFFFFFFFFFFFFFFFFFFFF44
:10577500BEF7BEF7BEF7BEF7BEF7FFFFFFFFFFFFA1
:10578500FFFFFFFFFFFFFFFFFFFFFFFFFFFFFFFF24
:10579500FFFFFFFFFFFFFFFFBEF7BEF7BEF7DFFF0F
:1057A500DFFFFFFFFFFFFFFFFFFFFFFFFFFFFFFF24
:1057B500FFFF3CE7EF7B2842610800000000000086
:1057C5000000000000002000200020000421AA5253
:1057D5001084108410841084108410841084108424
:1057E5001084108410841084108410841084108414
:1057F500EF7BEF7BEF7B1084108410841084108482
:1058050010841084108410841084108410841084F3
:105815001084108410843084FBDEBEF7BEF7DFFFF2
:10582500FFFFFFFFFFFFFFFFFFFFFFFFFFFFFFFF83
:10583500FFFFAA5200000000000000000000000069
:1058450000000000200020002000200020000000B3
:105855000000000000000000000000000000000043
:1058650000000000000000000000000020002000F3
:1058750020002000200000000000000000000000C3
:105885000000000000000000000000000000000013
:105895000000000020002000CB5ABEF7BEF7FFFF36
:1058A500FFFFFFFFFFFFFFFFFFFFFFFFFFFFFFFF03
:1058B500FFFF28420000000000000000000000007B
:1058C5000000200020002000200020000000000033
:1058D50000000000000000000000000000000000C3
:1058E5000000000000000000000020002000200053
:1058F5002000200000000000000000000000000063
:105905000000000000000000000000000000000092
:105915000000200020002000494ABEF7FFFFFFFFDE
:10592500FFFFFFFFFFFFFFFFFFFFFFFFFFFFFFFF82
:10593500FFFF2842000000000000000000000000FA
:1059450020002000200020002000000000000000B2
:105955000000000000000000000000000000000042
:1059650000000000000000002000200020002000B2
:105975002000000000000000000000000000000002
:105985000000000000000000000000000000000012
:105995002000200020002000494AFFFFFFFFFFFFF5
:1059A500FFFFFFFFFFFFFFFFFFFFFFFFFFFFFFFF02
:1059B500FFFF28420000000000000000000020005A
:1059C5002000200020002000000000000000000052
:1059D50000000000000000000000000000000000C2
:1059E5000000000000002000200020002000200012
:1059F50000000000000000000000000000000000A2
:105A05000000000000000000000000000000200071
:105A15002000200020002000494AFFFFFFFFFFFF74
:105A2500FFFFFFFFFFFFFFFFFFFFFFFFFFFFFFFF81
:105A3500FFFF2842000000000000000020002000B9
:105A450020002000200000000000000000000000F1
:105A55000000000000000000000000000000000041
:105A65000000000020002000200020002000000091
:105A75000000000000000000000000000000000021
:105A850000000000000000000000000020002000D1
:105A95002000200020000000494AFFFFFFFFFFFF14
:105AA500FFFFFFFFFFFFFFFFFFFFFFFFFFFFFFFF01
:105AB500FFFF284200000000000020002000200019
:105AC50020002000000000000000E318AE73D7BDE1
:105AD500FBDE3CE79AD634A5EB5A410800000000EE
:105AE5000000200020002000200020000000000011
:105AF50000000000000000000000000000000000A1
:105B05000000000000000000000020002000200030
:105B15002000200000000000494AFFFFFFFFFFFFB3
:105B2500FFFFFFFFFFFFFFFFFFFFFFFFFFFFFFFF80
:105B3500FFFF284200000000200020002000200078
:105B45002000000000006108B294DFFFFFFFFFFFA7
:105B5500FFFFFFFFFFFFFFFFFFFF5DEF0C6300008F
:105B65002000200020002000200000000000000090
:105B75000000200020002000200020002000200040
:105B850020002000200041084108200020002000BE
:105B95002000000000000000494AFFFFFFFFFFFF53
:105BA500FFFFFFFFFFFFFFFFFFFFFFFFFFFFFFFF00
:105BB500FFFF2842000020002000200020002000D8
:105BC500000000000421DBDEFFFFFFFFFFFFBAD668
:105BD50034A5D39C96B57DEFFFFFFFFFFFFFF39C38
:105BE5004108200020002000000000000000000007
:105BF500B294FFFFFFFFFFFFFFFFFFFFFFFFFFFF68
:105C0500FFFFFFFFFFFFBEF7BEF7BAD682102000E9
:105C15000000000000000000494AFFFFFFFFFFFFF2
:105C2500FFFFFFFFFFFFFFFFFFFFFFFFFFFFFFFF7F
:105C3500FFFF284220002000200020002000000057
:105C45000000A2101CE7FFFFFFFFD7BD8631000053
:105C55000000000000002000CB5A1CE7BEF7BEF78D
:105C6500F39C200020000000000000000000000060
:105C75009AD6FFFFFFFFFFFFFFFFFFFFFFFFFFFFBD
:105C8500FFFFFFFFBEF7BEF7BEF7BEF745290000D1
:105C95000000000000000000494AFFFFFFFFFFFF72
:105CA500FFFFFFFFFFFFFFFFFFFFFFFFFFFFFFFFFF
:105CB500FFFF2842200020002000200000000000F7
:105CC5000000B6B5FFFFFFFF3084000000000000B4
:105CD50000000000000000000000A210F7BDBEF7A4
:105CE500BEF70C630000000000000000000000008B
:105CF5002421AE73AE73AE73AE73AE73AE73AE7373
:105D0500AE73AE73AE73AE73AE73694A0000000036
:105D15000000000000000000494AFFFFFFFFFFFFF1
:105D2500FFFFFFFFFFFFFFFFFFFFFFFFFFFFFFFF7E
:105D3500BEF72842200020002000000000000000DF
:105D45002842FFFFFFFF14A500000000000000002F
:105D5500000000000000000020002000A210DBDE93
:105D6500BEF75DEF410800000000000000000000E4
:105D7500000000000000000000000000000000001E
:105D8500200020002000200020000000000000006E
:105D95000000000000000000494AFFFFFFFFFFFF71
:105DA500FFFFFFFFFFFFFFFFFFFFFFFFFFFFDFFF1E
:105DB500BEF728422000200000000000000000007F
:105DC50096B5FFFF9EF7821000000000000000005E
:105DD5000000000000002000200020002000AA5242
:105DE500FFFFFFFF0C630000000000000000000043
:105DF500000000000000000000000000000020007E
:105E0500200020002000200000000000000000000D
:105E15000000000000000000494AFFFFFFFFFFFFF0
:105E2500FFFFFFFFFFFFFFFFFFFFFFFFDFFFDFFFBD
:105E3500BEF72842200000000000000000002000FE
:105E4500BEF7FFFFD39C000000000000000000002B
:105E5500000000002000200020002000200020007D
:105E65005DEFFFFF55AD00000000000000000000E1
:105E750000000000000000000000000020002000DD
:105E850020002000200000000000000000000000AD
:105E95000000000000000000494AFFFFFFFFFFFF70
:105EA500FFFFFFFFFFFFFFFFFFFFDFFFDFFFDFFF5D
:105EB500BEF7284200000000000000000000452950
:105EC500FFFFFFFFCB5A00000000000000000000AC
:105ED500000020002000200020002000000000001D
:105EE50075ADFFFFDBDE00000000000000000000D4
:105EF500C739718C718C718C718C518C518C518C12
:105F0500518C518C718C718C718C2C63000000004C
:105F15000000000000000000494AFFFFFFFFFFFFEF
:105F2500FFFFDFFFFFFFFFFFFFFFDFFFDFFFDFFFFC
:105F3500BEF7284200000000000000000000E7391D
:105F4500FFFFFFFF08420000000000000000000006
:105F5500200020002000200020000000000000009C
:105F6500B294FFFF5DEF000000000000000000009C
:105F7500BAD6FFFFFFFFFFFFBEF7BEF7BEF7BEF7BE
:105F8500BEF7FFFFFFFFFFFFFFFFFFFF65290000D3
:105F95000000000000000000494AFFFFFFFFFFFF6F
:105FA500DFFFDFFFFFFFFFFFFFFFDFFFDFFFDFFF9C
:105FB500FFFF284200000000000000000000A6319D
:105FC500FFFFFFFF694A00000000000000002000FD
:105FD500200020002000200000000000000000003C
:105FE50014A5FFFF1CE700000000000000000000F2
:105FF50010847DEF7DEF3CE73CE73CE73CE73CE781
:106005007DEF7DEF7DEF7DEF7DEF38C64108000028
:106015000000000000000000494AFFFFFFFFDFFF0E
:10602500DFFFDFFFFFFFFFFFFFFFDFFFDFFFFFFFFB
:10603500FFFF284200000000000000000000821061
:10604500FFFFFFFFEF7B00000000000020002000A5
:1060550020002000200000000000000000000000DB
:106065009AD6FFFFF7BD0000000000000000000009
:10607500000000002000200020002000200000007B
:10608500000000000000000000000000000000000B
:106095000000000000000000494AFFFFBEF7DFFFD7
:1060A500DFFFDFFFFFFFFFFFFFFFDFFFFFFFFFFF5B
:1060B500FFFF284200000000000000000000000073
:1060C5009AD6FFFFBAD6000000002000200020006D
:1060D500200020000000000000000000000045290D
:1060E500FFFFFFFFEF7B0000000000000000000045
:1060F50000002000200020002000200000000000FB
:10610500000000000000000000000000000000008A
:106115000000000000000000494ABEF7BEF7DFFF9F
:10612500DFFFDFFFFFFFFFFFFFFFFFFFFFFFFFFFBA
:10613500FFFF2842000000000000000000000000F2
:106145008E73FFFFFFFFEB5A200020002000200088
:10615500200000000000000000000000000096B5CF
:10616500FFFFFFFF04210000000000000000000009
:10617500200020002000200020000000000000007A
:10618500000000000000000000000000000000000A
:106195000000000000000000494ABEF7BEF7DFFF1F
:1061A500DFFFFFFFFFFFFFFFFFFFFFFFFFFFFFFF1A
:1061B500FFFF284200000000000000000000000072
:1061C50061083CE7FFFF5DEFA631200020002000BD
:1061D500000000000000000000000000CF7BFFFF72
:1061E500FFFFF39C000000000000000000002000FD
:1061F5002000C318C318C318C318A210A210A210F8
:10620500A210A210A210A210A210200000000000EF
:106215000000000000002000494ABEF7BEF7DFFF7E
:10622500FFFFFFFFFFFFFFFFFFFFFFFFFFFFFFFF79
:10623500FFFF2842000000000000000000000000F1
:106245000000494A9EF7BEF73CE7CB5A2000000004
:1062550000000000000000006108B294FFFFFFFF8E
:106265001CE7821000000000000000002000200054
:10627500F39CBEF7BEF7FFFFFFFFFFFFFFFFFFFF2A
:10628500FFFFFFFFFFFFFFFFFFFF5DEFA210000015
:106295000000000020002000494ABEF7BEF7FFFFBE
:1062A500FFFFFFFFFFFFFFFFFFFFFFFFFFFFFFFFF9
:1062B500FFFF284200000000000000000000000071
:1062C500000020000C639EF7BEF7BEF79AD6CF7B81
:1062D500494AE739AA5292947DEFFFFFFFFF3CE759
:1062E50045290000000000000000200020002000DB
:1062F50038C6BEF7FFFFFFFFFFFFFFFFFFFFFFFFF2
:10630500FFFFFFFFFFFFFFFFFFFFFFFF242100004F
:106315000000200020002000494ABEF7FFFFFFFFD4
:10632500FFFFFFFFFFFFFFFFFFFFFFFFFFFFFFFF78
:10633500FFFF2842000000000000000000000000F0
:10634500200020002000494AFBDEFFFFFFFFFFFF82
:10635500FFFFFFFFFFFFFFFFFFFFFFFFF7BDE31895
:1063650000000000000000002000200020002000A8
:10637500E3182C632C632C632C632C632C632C6334
:106385002C632C632C632C632C63E739000000001D
:106395002000200020002000494AFFFFFFFFFFFFEB
:1063A500FFFFFFFFFFFFFFFFFFFFFFFFFFFFFFFFF8
:1063B500FFFF284200000000000000000000200050
:1063C50020002000200020006108AE73BAD6FFFF30
:1063D500FFFFFFFFFFFFDFFFD7BD694A0000000099
:1063E5000000000000002000200020002000200008
:1063F5000000000000000000000000000000000098
:106405000000000000000000000000000000200067
:106415002000200020002000494AFFFFFFFFFFFF6A
:10642500FFFFFFFFFFFFFFFFFFFFFFFFFFFFFFFF77
:10643500FFFF2842000000000000000020002000AF
:106445002000200020000000000000000000A21035
:10645500C7390842863141080000000000000000ED
:106465000000000020002000200020002000000087
:106475000000000000000000000000000000000017
:1064850000000000000000000000000020002000C7
:106495002000200020000000494AFFFFFFFFFFFF0A
:1064A500FFFFFFFFFFFFFFFFFFFFFFFFFFFFFFFFF7
:1064B500FFFF28420000000000002000200020000F
:1064C5002000200000000000000000000000000087
:1064D50000000000000000000000000000000000B7
:1064E5000000200020002000200020000000000007
:1064F5000000000000000000000000000000000097
:106505000000000000000000000020002000200026
:106515002000200000000000494AFFFFFFFFFFFFA9
:10652500FFFFFFFFFFFFFFFFFFFFFFFFFFFFFFFF76
:10653500FFFF28420000000020002000200020006E
:106545002000000000000000000000000000000026
:106555000000000000000000000000000000000036
:106565002000200020002000200000000000000086
:106575000000000000000000000000000000000016
:106585000000000000000000200020002000200086
:106595002000000000000000494AFFFFFFFFFFFF49
:1065A500FFFFFFFFFFFFFFFFFFFFFFFFFFFFFFFFF6
:1065B500FFFF2842000020002000200020002000CE
:1065C50000000000000000000000000000000000C6
:1065D5000000000000000000000000000000200096
:1065E5002000200020002000000000000000000026
:1065F5000000000000000000000000000000000096
:1066050000000000000020002000200020002000E5
:106615000000000000000000494AFFFFFFFFFFFFE8
:10662500FFFFFFFFFFFFFFFFFFFFFFFFFFFFFFFF75
:10663500FFFF494A20002000200020002000000024
:106645000000000000000000000000000000000045
:1066550000000000000000000000000020002000F5
:1066650020002000200000000000000000000000C5
:106675000000000000000000000000000000000015
:106685000000000020002000200020002000000065
:106695000000000000000000694AFFFFFFFFFFFF48
:1066A500FFFFFFFFFFFFFFFFFFFFFFFFFFFFFFFFF5
:1066B500FFFF34A524210421042104210421E3182A
:1066C500E318E318E318E318E318E318E318E318ED
:1066D500E318E318E318E318042104210421042135
:1066E500042104210421E318E318E318E318E3184F
:1066F500E318E318E318E318E318E318E318E318BD
:106705000421042104210421042104210421E31886
:10671500E318E318E318242196B5FFFFFFFFFFFFF9
:10672500FFFFFFFFFFFFFFFFFFFFFFFFFFFFFFFF74
:10673500BEF7BEF7BEF7BEF7BEF7FFFFFFFFFFFFD1
:10674500FFFFFFFFFFFFFFFFFFFFFFFFFFFFFFFF54
:10675500FFFFFFFFFFFFFFFFBEF7BEF7BEF7BEF768
:10676500BEF7FFFFFFFFFFFFFFFFFFFFFFFFFFFF7D
:10677500FFFFFFFFFFFFFFFFFFFFFFFFFFFFFFFF24
:10678500BEF7BEF7BEF7BEF7BEF7FFFFFFFFFFFF81
:10679500FFFFFFFFFFFFFFFFFFFFFFFFFFFFFFFF04
:1067A500FFFFFFFFFFFFFFFFFFFFFFFFFFFFDFFF14
:1067B500BEF7BEF7BEF7BEF7FFFFFFFFFFFFFFFF08
:1067C500FFFFFFFFFFFFFFFFFFFFFFFFFFFFFFFFD4
:1067D500FFFFFFFFFFFFBEF7BEF7BEF7BEF7BEF731
:1067E500FFFFFFFFFFFFFFFFFFFFFFFFFFFFFFFFB4
:1067F500FFFFFFFFFFFFFFFFFFFFFFFFFFFFBEF7ED
:10680500BEF7BEF7BEF7BEF7FFFFFFFFFFFFFFFFB7
:10681500FFFFFFFFFFFFFFFFFFFFFFFFFFFFFFFF83
:10682500FFFFFFFFFFFFFFFFFFFFFFFFDFFFDFFFB3
:10683500BEF7BEF7BEF7FFFFFFFFFFFFFFFFFFFF3E
:10684500FFFFFFFFFFFFFFFFFFFFFFFFFFFFFFFF53
:10685500FFFFFFFFBEF7BEF7BEF7BEF7BEF7FFFFB0
:10686500FFFFFFFFFFFFFFFFFFFFFFFFFFFFFFFF33
:10687500FFFFFFFFFFFFFFFFFFFFFFFFBEF7BEF7B5
:10688500BEF7BEF7BEF7FFFFFFFFFFFFFFFFFFFFEE
:10689500FFFFFFFFFFFFFFFFFFFFFFFFFFFFFFFF03
:1068A500FFFFFFFFFFFFFFFFFFFFDFFFDFFFDFFF53
:1068B500BEF7BEF7FFFFFFFFFFFFFFFFFFFFFFFF75
:1068C500FFFFFFFFFFFFFFFFFFFFFFFFFFFFFFFFD3
:1068D500FFFFBEF7BEF7BEF7BEF7BEF7FFFFFFFF30
:1068E500FFFFFFFFFFFFFFFFFFFFFFFFFFFFFFFFB3
:1068F500FFFFFFFFFFFFFFFFFFFFBEF7BEF7BEF77E
:10690500BEF7BEF7FFFFFFFFFFFFFFFFFFFFFFFF24
:10691500FFFFFFFFFFFFFFFFFFFFFFFFFFFFFFFF82
:10692500FFFFDFFFFFFFFFFFFFFFDFFFDFFFDFFFF2
:10693500BEF7FFFFFFFFFFFFFFFFFFFFFFFFFFFFAB
:10694500FFFFFFFFFFFFFFFFFFFFFFFFFFFFFFFF52
:10695500BEF7BEF7BEF7BEF7BEF7FFFFFFFFFFFFAF
:10696500FFFFFFFFFFFFFFFFFFFFFFFFFFFFFFFF32
:10697500FFFFFFFFFFFFFFFFBEF7BEF7BEF7BEF746
:10698500BEF7FFFFFFFFFFFFFFFFFFFFFFFFFFFF5B
:10699500FFFFFFFFFFFFFFFFFFFFFFFFFFFFFFFF02
:1069A500DFFFDFFFFFFFFFFFFFFFDFFFDFFFDFFF92
:1069B500FFFFFFFFFFFFFFFFFFFFFFFFFFFFFFFFE2
:1069C500FFFFFFFFFFFFFFFFFFFFFFFFFFFFBEF71B
:1069D500BEF7BEF7BEF7BEF7FFFFFFFFFFFFFFFFE6
:1069E500FFFFFFFFFFFFFFFFFFFFFFFFFFFFFFFFB2
:1069F500FFFFFFFFFFFFBEF7BEF7BEF7BEF7BEF70F
:106A0500FFFFFFFFFFFFFFFFFFFFFFFFFFFFFFFF91
:106A1500FFFFFFFFFFFFFFFFFFFFFFFFFFFFDFFFA1
:106A2500DFFFDFFFFFFFFFFFFFFFDFFFDFFFFFFFF1
:106A3500FFFFFFFFFFFFFFFFFFFFFFFFFFFFFFFF61
:106A4500FFFFFFFFFFFFFFFFFFFFFFFFBEF7BEF7E3
:106A5500BEF7BEF7BEF7FFFFFFFFFFFFFFFFFFFF1C
:106A6500FFFFFFFFFFFFFFFFFFFFFFFFFFFFFFFF31
:106A7500FFFFFFFFBEF7BEF7BEF7BEF7BEF7FFFF8E
:106A8500FFFFFFFFFFFFFFFFFFFFFFFFFFFFFFFF11
:106A9500FFFFFFFFFFFFFFFFFFFFFFFFBEF7DFFF6A
:106AA500DFFFDFFFFFFFFFFFFFFFDFFFFFFFFFFF51
:106AB500FFFFFFFFFFFFFFFFFFFFFFFFFFFFFFFFE1
:106AC500FFFFFFFFFFFFFFFFFFFFBEF7BEF7BEF7AC
:106AD500BEF7BEF7FFFFFFFFFFFFFFFFFFFFFFFF53
:106AE500FFFFFFFFFFFFFFFFFFFFFFFFFFFFFFFFB1
:106AF500FFFFBEF7BEF7BEF7BEF7BEF7FFFFFFFF0E
:106B0500FFFFFFFFFFFFFFFFFFFFFFFFFFFFFFFF90
:106B1500FFFFFFFFFFFFFFFFFFFFBEF7BEF7DFFF32
:106B2500DFFFDFFFFFFFFFFFFFFFFFFFFFFFFFFFB0
:106B3500FFFFFFFFFFFFFFFFFFFFFFFFFFFFFFFF60
:106B4500FFFFFFFFFFFFFFFFDFFFDFFFDFFFDFFFD0
:106B5500DFFFFFFFFFFFFFFFFFFFFFFFFFFFFFFF60
:106B6500FFFFFFFFFFFFFFFFFFFFFFFFFFFFFFFF30
:106B7500DFFFDFFFDFFFDFFFDFFFFFFFFFFFFFFFC0
:106B8500FFFFFFFFFFFFFFFFFFFFFFFFFFFFFFFF10
:106B9500FFFFFFFFFFFFFFFFDFFFDFFFDFFFDFFF80
:106BA500DFFFFFFFFFFFFFFFFFFFFFFFFFFFFFFF10
:106BB500FFFFFFFFFFFFFFFFFFFFFFFFFFFFFFFFE0
:106BC500FFFFFFFFFFFFDFFFDFFFDFFFDFFFDFFF70
:106BD500FFFFFFFFFFFFFFFFFFFFFFFFFFFFFFFFC0
:106BE500FFFFFFFFFFFFFFFFFFFFFFFFFFFFDFFFD0
:106BF500DFFFDFFFDFFFDFFFFFFFFFFFFFFFFFFF20
:106C0500FFFFFFFFFFFFFFFFFFFFFFFFFFFFFFFF8F
:106C1500FFFFFFFFFFFFDFFFDFFFDFFFDFFFDFFF1F
:106C2500FFFFFFFFFFFFFFFFFFFFFFFFFFFFFFFF6F
:106C3500FFFFFFFFFFFFFFFFFFFFFFFFFFFFFFFF5F
:106C4500FFFFFFFFDFFFDFFFDFFFDFFFDFFFFFFFEF
:106C5500FFFFFFFFFFFFFFFFFFFFFFFFFFFFFFFF3F
:106C6500FFFFFFFFFFFFFFFFFFFFFFFFDFFFDFFF6F
:106C7500DFFFDFFFDFFFFFFFFFFFFFFFFFFFFFFF7F
:106C8500FFFFFFFFFFFFFFFFFFFFFFFFFFFFFFFF0F
:106C9500FFFFFFFFDFFFDFFFDFFFDFFFDFFFFFFF9F
:106CA500FFFFFFFFFFFFFFFFFFFFFFFFFFFFFFFFEF
:106CB500FFFFFFFFFFFFFFFFFFFFFFFFFFFFFFFFDF
:106CC500FFFFFFFFFFFFFFFFFFFFFFFFFFFFFFFFCF
:106CD500FFFFFFFFFFFFFFFFFFFFFFFFFFFFFFFFBF
:106CE500FFFFFFFFFFFFFFFFFFFFFFFFFFFFFFFFAF
:106CF500FFFFFFFFFFFFFFFFFFFFFFFFFFFFFFFF9F
:106D0500FFFFFFFFFFFFFFFFFFFFFFFFFFFFFFFF8E
:106D1500FFFFFFFFFFFFFFFFFFFFFFFFFFFFFFFF7E
:106D2500FFFFFFFFFFFF000020007E0017000C841F
:106D350001000CB201000CE001000C0E02000C3C3D
:106D450002000C6A02000C9802000CC602000CF44A
:106D550002000C2203000C5003000C7E03000CAC57
:106D650003000CDA03000C0804000C3604000C6464
:106D750004000C9204000CC004000CEE04000C1C72
:106D850005000C4A05000C7805000CA605000CD47E
:106D950005000C0206000C3006000C5E06000C8C8B
:106DA50006000CBA06000CE806000C1607000C4499
:106DB50007000C7207000CA007000CCE07000CFCA6
:106DC50007000C2A08000C5808000C8608000CB4B3
:106DD50008000CE208000C1009000C3E09000C6CC0
:106DE50009000C9A09000CC809000CF609000C24CE
:106DF5000A000C520A000C800A000CAE0A000CDCDA
:106E05000A000C0A0B000C380B000C660B000C94E6
:106E15000B000CC20B000CF00B000C1E0C000C4CF4
:106E25000C000C7A0C000CA80C000CD60C000C0401
:106E35000D000C320D000C600D000C8E0D000CBC0D
:106E45000D000CEA0D000C180E000C460E000C741B
:106E55000E000CA20E000CD00E000CFE0E000C2C29
:106E65000F000C5A0F000C880F000CB60F000CE435
:106E75000F000C1210000C4010000C6E10000C9C42
:106E850010000CCA10000CF810000C2611000C5450
:106E950011000C8211000CB011000CDE11000C0C5D
:106EA50012000C3A12000C681200000000000000ED
:106EB50000000000000000000000000000000000CD
:106EC50000000000000000000000000000000000BD
:106ED50000000000000000000000000000000000AD
:106EE500700070007000700070007000700020006D
:106EF500200000000000700070000000000000008D
:106F0500000000000000000000000000000000007C
:106F15009C039C039C030801080108010000000074
:106F2500000000000000000000000000000000005C
:106F35000000000000000000000098019801980181
:106F450098019801FE07FE0798019801FE07FE07C4
:106F5500980198019801980198010000000000002F
:106F6500000000000000000060006000F003F8036E
:106F75000C030C007C00F80180030C030C03FC01DE
:106F8500FC006000600060000000000000000000E0
:106F950000000000000000001C002200220022006A
:106FA5001C03C003F8001E00C601200220022002B7
:106FB500C00100000000000000000000000000000B
:106FC50000000000000000000000E003F8031800C6
:106FD500180030007806FC07CC038C01FC07F0068E
:106FE500000000000000000000000000000000009C
:106FF500000000000000E000E000E000400040006C
:10700500400000000000000000000000000000003B
:10701500000000000000000000000000000000006B
:10702500000080018001C000C000C0006000600059
:107035006000600060006000C000C000C00080010A
:1070450080010000000000000000000000000000BA
:10705500180018003000300030006000600060004B
:10706500600060006000300030003000180018003B
:1070750000000000000000000000000000006000AB
:10708500600060006C03FC03F000F000F80198015B
:1070950000000000000000000000000000000000EB
:1070A50000000000000000000000000000000000DB
:1070B5006000600060006000FE07FE076000600081
:1070C50060006000000000000000000000000000FB
:1070D50000000000000000000000000000000000AB
:1070E5000000000000000000000000000000E000BB
:1070F500600060003000300010000000000000005B
:10710500000000000000000000000000000000007A
:1071150000000000FE03FE03000000000000000068
:10712500000000000000000000000000000000005A
:10713500000000000000000000000000000000004A
:1071450000000000000000000000700070007000EA
:10715500000000000000000000000000000000002A
:10716500000000030003800180018001C000C00011
:1071750060006000300030001800180018000C0096
:107185000C000000000000000000000000000000EE
:107195000000F800FC018C01060306030603060344
:1071A5000603060306038C01FC01F800000000003D
:1071B50000000000000000000000000000000000CA
:1071C50060007C007C006000600060006000600082
:1071D500600060006000FC03FC030000000000008C
:1071E5000000000000000000000000000000F800A2
:1071F500FC018E03060300038001C000600030001F
:1072050018000C00FE03FE03000000000000000053
:10721500000000000000000000000000F800FE0172
:10722500860300038003F001F001800300030003DF
:107235008303FF01FE0000000000000000000000C5
:1072450000000000000000000000C001E001E001B6
:10725500B001980198018C018601FE03FE038001AF
:10726500E003E00300000000000000000000000053
:107275000000000000000000FC01FC010C000C00F7
:10728500FC00FC018C030003000300038603FE01E0
:10729500FC000000000000000000000000000000ED
:1072A500000000000000E003F8033C000C000E00A5
:1072B500F600FE018E03060306038C03FC01F000B5
:1072C50000000000000000000000000000000000B9
:1072D50000000000FE03FE03060300038001800199
:1072E5008001C000C000C0006000600060000000B8
:1072F5000000000000000000000000000000000089
:107305000000F800FC018E0306038E03FC01FC015E
:107315008E03060306038E03FC01F800000000003F
:107325000000000000000000000000000000000058
:107335007800FC018E01060306038E03FC03780327
:1073450080038001E001FE003E0000000000000017
:107355000000000000000000000000000000000028
:1073650000000000000070007000700000000000C8
:1073750000007000700070000000000000000000B8
:1073850000000000000000000000000000000000F8
:1073950000000000C001C001C001000000000000A5
:1073A500E000600030003000100000000000000028
:1073B50000000000000000000000000000000006C2
:1073C5008007E00170001C000F001C007000E00148
:1073D500800700060000000000000000000000001B
:1073E5000000000000000000000000000000000098
:1073F500FF07FF0700000000FF07FF070000000070
:107405000000000000000000000000000000000077
:107415000000000000000000000006001E007800CB
:10742500E0008003000F8003E00078001E000600E6
:107435000000000000000000000000000000000047
:10744500000000000000F800FC018C030C030003A1
:10745500C001E00060000000000070007000000046
:107465000000000000000000000000000000000017
:107475000000E0009800080104010401C401240192
:1074850024012401C401040008000801F0000000E3
:1074950000000000000000000000000000000000E7
:1074A5000000FC00FC00E000B001B00198011803E9
:1074B500FC03FC0306060F0F0F0F00000000000081
:1074C50000000000000000000000000000000000B7
:1074D500FE00FE010C030C038C03FC01FC030C07EE
:1074E5000C060C06FE07FE0100000000000000006F
:1074F5000000000000000000000000000000F00691
:10750500F8071C070E0606000600060006000E0614
:107515001C07F803F0010000000000000000000057
:10752500000000000000000000000000FF00FF0157
:1075350086030607060606060606060606078603EA
:10754500FF01FF0000000000000000000000000037
:1075550000000000000000000000FE07FE070C060A
:107565000C06CC00FC00FC00CC000C060C06FE074B
:10757500FE07000000000000000000000000000001
:107585000000000000000000FE07FE070C060C06C8
:10759500CC00FC00FC00CC000C000C007E007E0042
:1075A50000000000000000000000000000000000D6
:1075B500000000000000F006FC070C0706060600A8
:1075C5000600C60FC60F06060C06FC07F0010000F4
:1075D50000000000000000000000000000000000A6
:1075E500000000009E079E070C030C030C03FC0320
:1075F500FC030C030C030C039E079E070000000010
:107605000000000000000000000000000000000075
:107615000000FC03FC036000600060006000600087
:10762500600060006000FC03FC0300000000000037
:107635000000000000000000000000000000000045
:10764500E00FE00F00030003000300030603060339
:1076550006038603FE01F80000000000000000009C
:107665000000000000000000000000000000BE0F48
:10767500BE0F8C03CC006C007C00DC008C018C01FF
:107685000C033E0F3E0E000000000000000000004D
:107695000000000000000000000000007E007E00E9
:1076A5001800180018001800180018061806180603
:1076B500FE07FE07000000000000000000000000BB
:1076C500000000000000000000000F0F0F0F0E0764
:1076D5009E079606F606F6066606660606069F0FDA
:1076E5009F0F0000000000000000000000000000E7
:1076F5000000000000000000CE07DE071C033C036D
:107705003C036C036C03CC03CC038C03BE033E0328
:107715000000000000000000000000000000000064
:10772500000000000000F000F8019C030E070606AB
:107735000606060606060E079C03F801F000000083
:107745000000000000000000000000000000000034
:1077550000000000FE01FE030C070C060C060C07DA
:10776500FC03FC010C000C007E007E000000000004
:107775000000000000000000000000000000000004
:107785000000F000F8019C030E0706060606060633
:1077950006060E079C03F801F000F006F8079803AB
:1077A50000000000000000000000000000000000D4
:1077B500FE01FE030C070C060C07FC03FC018C0301
:1077C5000C030C073E0E3E0C0000000000000000FC
:1077D5000000000000000000000000000000F806A6
:1077E500FC070E0706060E00FC00F0030007060660
:1077F5000E07FE03F6010000000000000000000077
:10780500000000000000000000000000FE07FE0769
:10781500660666066606600060006000600060003F
:10782500F801F80100000000000000000000000061
:10783500000000000000000000009E079E070C03EA
:107845000C030C030C030C030C030C039C03F80141
:10785500F000000000000000000000000000000033
:1078650000000000000000008F078F0706030603D5
:107875008C018C01D800D800D80070007000700011
:1078850000000000000000000000000000000000F3
:107895000000000000001F0F1F0F060CE60CE60C91
:1078A500E60CB60DB4051C071C071C070C060000EA
:1078B50000000000000000000000000000000000C3
:1078C500000000008F078F0706038C01D8007000A9
:1078D5007000D8008C0106038F078F070000000099
:1078E5000000000000000000000000000000000093
:1078F50000009E079E070C039801F000F000600051
:10790500600060006000F801F80100000000000060
:107915000000000000000000000000000000000062
:10792500FC03FC030C038C01C00060006000300008
:1079350018030C03FC03FC0300000000000000001A
:10794500000000000000000000000000E001E00170
:107955006000600060006000600060006000600022
:107965006000600060006000E001E00100000000D0
:1079750000000000000000000C000C0018001800BA
:1079850018003000300060006000C000C0008001B9
:1079950080018001000300030000000000000000DA
:1079A5000000000000000000780078006000600022
:1079B50060006000600060006000600060006000C2
:1079C5006000600078007800000000000000000002
:1079D50000000000000020007000D8008C010603A4
:1079E500020200000000000000000000000000008E
:1079F5000000000000000000000000000000000082
:107A05000000000000000000000000000000000071
:107A15000000000000000000000000000000000061
:107A2500000000000000FF0FFF0F00000000000035
:107A35000000100060008000000000000000000051
:107A45000000000000000000000000000000000031
:107A55000000000000000000000000000000000021
:107A65000000000000000000F800FC030003F8031C
:107A7500FC030E038603FE077807000000000000E4
:107A850000000000000000000000000000000700EA
:107A9500070006000600F600FE030E0306060606AE
:107AA50006060E03FF03F7000000000000000000BB
:107AB50000000000000000000000000000000000C1
:107AC50000000000F006FC070C060606060006008E
:107AD5000E06FC07F8010000000000000000000091
:107AE500000000000000000000000007000700067D
:107AF5000006F006FC070C070606060606060E0736
:107B0500FC0FF00E00000000000000000000000067
:107B15000000000000000000000000000000000060
:107B2500F000FC030C03FE07FE0706000C06FC072D
:107B3500F00100000000000000000000000000004F
:107B4500000000000000E007F00730003000FC03F3
:107B5500FC0330003000300030003000FC03FC0333
:107B65000000000000000000000000000000000010
:107B7500000000000000000000000000F00EFC0FF7
:107B85000C070606060606060C07FC07F0060006A7
:107B95000007F803F80100000000000000000000E5
:107BA50000000E000E000C000C00EC01FC031C0391
:107BB5000C030C030C030C039E079E07000000003A
:107BC50000000000000000000000000000000000B0
:107BD50060006000000000007C007C006000600028
:107BE500600060006000FC03FC0300000000000072
:107BF5000000000000000000000000000000600020
:107C0500600000000000FC01FC0180018001800192
:107C150080018001800180018001C001FE007E009D
:107C25000000000000000000000000000E000E0033
:107C35000C000C00EC03EC036C003C003C006C00F9
:107C4500CC00CE07CE0700000000000000000000B9
:107C5500000000000000000000007C007C006000C7
:107C6500600060006000600060006000600060000F
:107C7500FC03FC0300000000000000000000000001
:107C850000000000000000000000000000000000EF
:107C9500BF03FF0766066606660666066606EF0EFE
:107CA500EF0E0000000000000000000000000000D2
:107CB5000000000000000000000000000000EE00D1
:107CC500FE031C030C030C030C030C039E079E0709
:107CD500000000000000000000000000000000009F
:107CE500000000000000000000000000F000FC03A0
:107CF5000C030606060606060C03FC03F00000004E
:107D0500000000000000000000000000000000006E
:107D150000000000000000000000F700FF030E0354
:107D25000606060606060E03FE03F6000600060016
:107D35001F001F0000000000000000000000000000
:107D45000000000000000000F00EFC0F0C07060606
:107D5500060606060C07FC07F00600060006800F5F
:107D6500800F00000000000000000000000000007F
:107D75000000000000009E03DE07780638001800AA
:107D850018001800FE01FE010000000000000000C0
:107D950000000000000000000000000000000000DE
:107DA50000000000F003FC030C033C00F801C003D5
:107DB5000C03FC03FC0000000000000000000000B4
:107DC500000000000000000000000000180018007E
:107DD5001800FE03FE031800180018001800180606
:107DE500F807F0010000000000000000000000009E
:107DF500000000000000000000000000000000007E
:107E05008E038E030C030C030C030C038C03FC077D
:107E150078070000000000000000000000000000DE
:107E250000000000000000000000000000008F07B7
:107E35008F0706038C018C01D800D80070007000F4
:107E4500000000000000000000000000000000002D
:107E55000000000000000000000000008F078F07F1
:107E650026032603F603DC01DC018C018C010000EE
:107E750000000000000000000000000000000000FD
:107E8500000000000000000000009E079E0798010A
:107E9500F0006000F00098019E079E0700000000BA
:107EA50000000000000000000000000000000000CD
:107EB50000000000000000008F078F0706038C01FB
:107EC5008C01D800F80070003000300018007F00E9
:107ED5007F0000000000000000000000000000001E
:107EE500000000000000FC03FC038C01C0006000E2
:107EF50030001803FC03FC03000000000000000034
:107F0500000000000000000000000000C001E001CA
:107F15006000600060006000600070003800700064
:107F25006000600060006000E001C001000000002A
:107F3500000000000000000000006000600060001C
:107F4500600060006000600060006000600060002C
:107F5500600060006000600060000000000000003C
:107F650000000000000000001C003C003000300054
:107F75003000300030007000E0007000300030004C
:107F8500300030003C001C00000000000000000034
:107F950000000000000000000000000000000000DC
:107FA50038007E06E607C003000000000000000060
:107FB5000000000000000000000000004472697627
:107FC500657220494C493933343100496E74657204
:107FD500666163653A205350490056657273696F4F
:107FE5006E253364200054465420323430783332C1
:0C7FF500300056657273696F6E0000FF6B
:020000040020DA
:08000000FFFFFFFFFFFFFFFF00
:020000040030CA
:0E000000040E1F1EFF0381FF0FC00FE00F4014
:00000001FF
