

Microchip Technology PIC18 LITE Macro Assembler V1.35 build -356382666 
                                                                                               Tue May 12 16:08:16 2020

Microchip Technology Omniscient Code Generator v1.35 (Free mode) build 201507080246
     1                           	processor	18F2550
     2                           	fnconf	rparam,??,?,0
     3                           	opt	pw 120
     4                           	opt	lm
     5                           	psect	idataBANK0,global,class=CODE,delta=1
     6                           	psect	mediumconst,global,reloc=2,class=MEDIUMCONST,delta=1
     7                           	psect	cinit,global,reloc=2,class=CODE,delta=1
     8                           	psect	bssCOMRAM,global,class=COMRAM,space=1,delta=1
     9                           	psect	bssBANK0,global,class=BANK0,space=1,delta=1
    10                           	psect	dataBANK0,global,class=BANK0,space=1,delta=1
    11                           	psect	cstackCOMRAM,global,class=COMRAM,space=1,delta=1
    12                           	psect	text0,global,reloc=2,class=CODE,delta=1
    13                           	psect	text1,global,reloc=2,class=CODE,delta=1
    14                           	psect	text2,global,reloc=2,class=CODE,delta=1
    15                           	psect	text3,global,reloc=2,class=CODE,delta=1
    16                           	psect	text4,global,reloc=2,class=CODE,delta=1
    17                           	psect	text5,global,reloc=2,class=CODE,delta=1
    18                           	psect	text6,global,reloc=2,class=CODE,delta=1
    19                           	psect	text7,global,reloc=2,class=CODE,delta=1
    20                           	psect	text8,global,reloc=2,class=CODE,delta=1
    21                           	psect	text9,global,reloc=2,class=CODE,delta=1
    22                           	psect	text10,global,reloc=2,class=CODE,delta=1
    23                           	psect	text11,global,reloc=2,class=CODE,delta=1
    24                           	psect	text12,global,reloc=2,class=CODE,delta=1
    25                           	psect	text13,global,reloc=2,class=CODE,delta=1
    26                           	psect	text14,global,reloc=2,class=CODE,delta=1
    27                           	psect	text15,global,reloc=2,class=CODE,delta=1
    28                           	psect	text16,global,reloc=2,class=CODE,delta=1
    29                           	psect	text17,global,reloc=2,class=CODE,delta=1
    30                           	psect	text18,global,reloc=2,class=CODE,delta=1
    31                           	psect	text19,global,reloc=2,class=CODE,delta=1
    32                           	psect	text20,global,reloc=2,class=CODE,delta=1
    33                           	psect	text21,global,reloc=2,class=CODE,delta=1
    34                           	psect	text22,global,reloc=2,class=CODE,delta=1
    35                           	psect	text23,global,reloc=2,class=CODE,delta=1
    36                           	psect	text24,global,reloc=2,class=CODE,delta=1
    37                           	psect	text25,global,reloc=2,class=CODE,delta=1
    38                           	psect	text26,global,reloc=2,class=CODE,delta=1
    39                           	psect	text27,global,reloc=2,class=CODE,delta=1
    40                           	psect	text28,global,reloc=2,class=CODE,delta=1
    41                           	psect	text29,global,reloc=2,class=CODE,delta=1
    42                           	psect	intsave_regs,global,class=BIGRAM,space=1,delta=1
    43                           	psect	rparam,global,class=COMRAM,space=1,delta=1
    44  0000                     
    45                           	psect	idataBANK0
    46  003135                     __pidataBANK0:
    47                           	opt stack 0
    48                           
    49                           ;initializer for _tft_x
    50  003135  00EF               	dw	239
    51                           
    52                           ;initializer for _frame_memory
    53  003137  88                 	db	136
    54                           
    55                           	psect	mediumconst
    56  004D20                     __pmediumconst:
    57                           	opt stack 0
    58  004D20  00                 	db	0
    59  004D21                     _dpowers:
    60                           	opt stack 0
    61  004D21  0001               	dw	1
    62  004D23  000A               	dw	10
    63  004D25  0064               	dw	100
    64  004D27  03E8               	dw	1000
    65  004D29  2710               	dw	10000
    66  004D2B                     __end_of_dpowers:
    67                           	opt stack 0
    68  004D2B                     _icon1:
    69                           	opt stack 0
    70  004D2B  FFFF               	dw	65535
    71  004D2D  FFFF               	dw	65535
    72  004D2F  FFFF               	dw	65535
    73  004D31  FFFF               	dw	65535
    74  004D33  FFFF               	dw	65535
    75  004D35  FFFF               	dw	65535
    76  004D37  FFFF               	dw	65535
    77  004D39  FFFF               	dw	65535
    78  004D3B  FFFF               	dw	65535
    79  004D3D  FFFF               	dw	65535
    80  004D3F  FFFF               	dw	65535
    81  004D41  FFFF               	dw	65535
    82  004D43  FFFF               	dw	65535
    83  004D45  FFFF               	dw	65535
    84  004D47  FFFF               	dw	65535
    85  004D49  FFFF               	dw	65535
    86  004D4B  FFFF               	dw	65535
    87  004D4D  FFFF               	dw	65535
    88  004D4F  FFFF               	dw	65535
    89  004D51  FFFF               	dw	65535
    90  004D53  FFFF               	dw	65535
    91  004D55  FFFF               	dw	65535
    92  004D57  FFFF               	dw	65535
    93  004D59  FFFF               	dw	65535
    94  004D5B  FFFF               	dw	65535
    95  004D5D  FFFF               	dw	65535
    96  004D5F  FFFF               	dw	65535
    97  004D61  FFFF               	dw	65535
    98  004D63  FFFF               	dw	65535
    99  004D65  FFFF               	dw	65535
   100  004D67  FFFF               	dw	65535
   101  004D69  FFFF               	dw	65535
   102  004D6B  FFFF               	dw	65535
   103  004D6D  FFFF               	dw	65535
   104  004D6F  FFFF               	dw	65535
   105  004D71  FFFF               	dw	65535
   106  004D73  FFFF               	dw	65535
   107  004D75  FFFF               	dw	65535
   108  004D77  FFFF               	dw	65535
   109  004D79  FFFF               	dw	65535
   110  004D7B  FFFF               	dw	65535
   111  004D7D  FFFF               	dw	65535
   112  004D7F  FFFF               	dw	65535
   113  004D81  FFFF               	dw	65535
   114  004D83  FFFF               	dw	65535
   115  004D85  FFFF               	dw	65535
   116  004D87  FFFF               	dw	65535
   117  004D89  FFFF               	dw	65535
   118  004D8B  FFFF               	dw	65535
   119  004D8D  FFFF               	dw	65535
   120  004D8F  FFFF               	dw	65535
   121  004D91  FFFF               	dw	65535
   122  004D93  FFFF               	dw	65535
   123  004D95  FFFF               	dw	65535
   124  004D97  FFFF               	dw	65535
   125  004D99  FFFF               	dw	65535
   126  004D9B  FFFF               	dw	65535
   127  004D9D  FFFF               	dw	65535
   128  004D9F  FFFF               	dw	65535
   129  004DA1  FFFF               	dw	65535
   130  004DA3  FFFF               	dw	65535
   131  004DA5  FFFF               	dw	65535
   132  004DA7  FFFF               	dw	65535
   133  004DA9  FFFF               	dw	65535
   134  004DAB  FFFF               	dw	65535
   135  004DAD  FFFF               	dw	65535
   136  004DAF  FFFF               	dw	65535
   137  004DB1  FFFF               	dw	65535
   138  004DB3  FFFF               	dw	65535
   139  004DB5  FFFF               	dw	65535
   140  004DB7  FFFF               	dw	65535
   141  004DB9  FFFF               	dw	65535
   142  004DBB  FFFF               	dw	65535
   143  004DBD  FFFF               	dw	65535
   144  004DBF  FFFF               	dw	65535
   145  004DC1  FFFF               	dw	65535
   146  004DC3  FFFF               	dw	65535
   147  004DC5  FFFF               	dw	65535
   148  004DC7  FFFF               	dw	65535
   149  004DC9  FFFF               	dw	65535
   150  004DCB  FFFF               	dw	65535
   151  004DCD  FFFF               	dw	65535
   152  004DCF  FFFF               	dw	65535
   153  004DD1  FFFF               	dw	65535
   154  004DD3  FFFF               	dw	65535
   155  004DD5  FFFF               	dw	65535
   156  004DD7  FFFF               	dw	65535
   157  004DD9  FFFF               	dw	65535
   158  004DDB  FFFF               	dw	65535
   159  004DDD  FFFF               	dw	65535
   160  004DDF  FFFF               	dw	65535
   161  004DE1  FFFF               	dw	65535
   162  004DE3  FFFF               	dw	65535
   163  004DE5  FFFF               	dw	65535
   164  004DE7  FFFF               	dw	65535
   165  004DE9  FFFF               	dw	65535
   166  004DEB  FFFF               	dw	65535
   167  004DED  FFFF               	dw	65535
   168  004DEF  FFFF               	dw	65535
   169  004DF1  FFFF               	dw	65535
   170  004DF3  FFFF               	dw	65535
   171  004DF5  FFFF               	dw	65535
   172  004DF7  FFFF               	dw	65535
   173  004DF9  FFFF               	dw	65535
   174  004DFB  FFFF               	dw	65535
   175  004DFD  FFFF               	dw	65535
   176  004DFF  FFFF               	dw	65535
   177  004E01  FFFF               	dw	65535
   178  004E03  FFFF               	dw	65535
   179  004E05  FFFF               	dw	65535
   180  004E07  FFFF               	dw	65535
   181  004E09  FFFF               	dw	65535
   182  004E0B  FFFF               	dw	65535
   183  004E0D  FFFF               	dw	65535
   184  004E0F  FFFF               	dw	65535
   185  004E11  FFFF               	dw	65535
   186  004E13  FFFF               	dw	65535
   187  004E15  FFFF               	dw	65535
   188  004E17  FFFF               	dw	65535
   189  004E19  FFFF               	dw	65535
   190  004E1B  FFFF               	dw	65535
   191  004E1D  FFFF               	dw	65535
   192  004E1F  FFFF               	dw	65535
   193  004E21  FFFF               	dw	65535
   194  004E23  FFFF               	dw	65535
   195  004E25  FFFF               	dw	65535
   196  004E27  FFFF               	dw	65535
   197  004E29  FFFF               	dw	65535
   198  004E2B  FFFF               	dw	65535
   199  004E2D  FFFF               	dw	65535
   200  004E2F  FFFF               	dw	65535
   201  004E31  FFFF               	dw	65535
   202  004E33  FFFF               	dw	65535
   203  004E35  FFFF               	dw	65535
   204  004E37  FFFF               	dw	65535
   205  004E39  FFFF               	dw	65535
   206  004E3B  FFFF               	dw	65535
   207  004E3D  FFFF               	dw	65535
   208  004E3F  FFFF               	dw	65535
   209  004E41  FFFF               	dw	65535
   210  004E43  FFFF               	dw	65535
   211  004E45  FFFF               	dw	65535
   212  004E47  FFFF               	dw	65535
   213  004E49  FFDF               	dw	65503
   214  004E4B  FFDF               	dw	65503
   215  004E4D  FFDF               	dw	65503
   216  004E4F  FFDF               	dw	65503
   217  004E51  FFDF               	dw	65503
   218  004E53  FFFF               	dw	65535
   219  004E55  FFFF               	dw	65535
   220  004E57  FFFF               	dw	65535
   221  004E59  FFFF               	dw	65535
   222  004E5B  FFFF               	dw	65535
   223  004E5D  FFFF               	dw	65535
   224  004E5F  FFFF               	dw	65535
   225  004E61  FFFF               	dw	65535
   226  004E63  FFFF               	dw	65535
   227  004E65  FFFF               	dw	65535
   228  004E67  FFFF               	dw	65535
   229  004E69  FFFF               	dw	65535
   230  004E6B  FFFF               	dw	65535
   231  004E6D  FFFF               	dw	65535
   232  004E6F  FFFF               	dw	65535
   233  004E71  FFDF               	dw	65503
   234  004E73  FFDF               	dw	65503
   235  004E75  FFDF               	dw	65503
   236  004E77  FFDF               	dw	65503
   237  004E79  FFDF               	dw	65503
   238  004E7B  FFFF               	dw	65535
   239  004E7D  FFFF               	dw	65535
   240  004E7F  FFFF               	dw	65535
   241  004E81  FFFF               	dw	65535
   242  004E83  FFFF               	dw	65535
   243  004E85  FFFF               	dw	65535
   244  004E87  FFFF               	dw	65535
   245  004E89  FFFF               	dw	65535
   246  004E8B  FFFF               	dw	65535
   247  004E8D  FFFF               	dw	65535
   248  004E8F  FFFF               	dw	65535
   249  004E91  FFFF               	dw	65535
   250  004E93  FFFF               	dw	65535
   251  004E95  FFFF               	dw	65535
   252  004E97  FFFF               	dw	65535
   253  004E99  FFDF               	dw	65503
   254  004E9B  FFDF               	dw	65503
   255  004E9D  FFDF               	dw	65503
   256  004E9F  FFDF               	dw	65503
   257  004EA1  FFDF               	dw	65503
   258  004EA3  FFFF               	dw	65535
   259  004EA5  FFFF               	dw	65535
   260  004EA7  FFFF               	dw	65535
   261  004EA9  FFFF               	dw	65535
   262  004EAB  FFFF               	dw	65535
   263  004EAD  FFFF               	dw	65535
   264  004EAF  FFFF               	dw	65535
   265  004EB1  FFFF               	dw	65535
   266  004EB3  FFFF               	dw	65535
   267  004EB5  FFFF               	dw	65535
   268  004EB7  FFFF               	dw	65535
   269  004EB9  FFFF               	dw	65535
   270  004EBB  FFFF               	dw	65535
   271  004EBD  FFFF               	dw	65535
   272  004EBF  FFFF               	dw	65535
   273  004EC1  FFFF               	dw	65535
   274  004EC3  FFFF               	dw	65535
   275  004EC5  FFFF               	dw	65535
   276  004EC7  FFDF               	dw	65503
   277  004EC9  FFDF               	dw	65503
   278  004ECB  FFDF               	dw	65503
   279  004ECD  FFDF               	dw	65503
   280  004ECF  FFDF               	dw	65503
   281  004ED1  FFFF               	dw	65535
   282  004ED3  FFFF               	dw	65535
   283  004ED5  FFFF               	dw	65535
   284  004ED7  FFFF               	dw	65535
   285  004ED9  FFFF               	dw	65535
   286  004EDB  FFFF               	dw	65535
   287  004EDD  FFFF               	dw	65535
   288  004EDF  FFFF               	dw	65535
   289  004EE1  FFFF               	dw	65535
   290  004EE3  FFFF               	dw	65535
   291  004EE5  FFFF               	dw	65535
   292  004EE7  FFFF               	dw	65535
   293  004EE9  FFFF               	dw	65535
   294  004EEB  FFFF               	dw	65535
   295  004EED  FFFF               	dw	65535
   296  004EEF  FFDF               	dw	65503
   297  004EF1  FFDF               	dw	65503
   298  004EF3  FFDF               	dw	65503
   299  004EF5  FFDF               	dw	65503
   300  004EF7  FFDF               	dw	65503
   301  004EF9  FFFF               	dw	65535
   302  004EFB  FFFF               	dw	65535
   303  004EFD  FFFF               	dw	65535
   304  004EFF  FFFF               	dw	65535
   305  004F01  FFFF               	dw	65535
   306  004F03  FFFF               	dw	65535
   307  004F05  FFFF               	dw	65535
   308  004F07  FFFF               	dw	65535
   309  004F09  FFFF               	dw	65535
   310  004F0B  FFFF               	dw	65535
   311  004F0D  FFFF               	dw	65535
   312  004F0F  FFFF               	dw	65535
   313  004F11  FFFF               	dw	65535
   314  004F13  FFFF               	dw	65535
   315  004F15  FFFF               	dw	65535
   316  004F17  FFDF               	dw	65503
   317  004F19  FFDF               	dw	65503
   318  004F1B  FFDF               	dw	65503
   319  004F1D  FFDF               	dw	65503
   320  004F1F  FFDF               	dw	65503
   321  004F21  FFFF               	dw	65535
   322  004F23  FFFF               	dw	65535
   323  004F25  FFFF               	dw	65535
   324  004F27  FFFF               	dw	65535
   325  004F29  FFFF               	dw	65535
   326  004F2B  FFFF               	dw	65535
   327  004F2D  FFFF               	dw	65535
   328  004F2F  FFFF               	dw	65535
   329  004F31  FFFF               	dw	65535
   330  004F33  FFFF               	dw	65535
   331  004F35  FFFF               	dw	65535
   332  004F37  FFFF               	dw	65535
   333  004F39  FFFF               	dw	65535
   334  004F3B  FFFF               	dw	65535
   335  004F3D  FFFF               	dw	65535
   336  004F3F  FFFF               	dw	65535
   337  004F41  FFFF               	dw	65535
   338  004F43  FFFF               	dw	65535
   339  004F45  FFDF               	dw	65503
   340  004F47  FFDF               	dw	65503
   341  004F49  FFDF               	dw	65503
   342  004F4B  FFDF               	dw	65503
   343  004F4D  FFDF               	dw	65503
   344  004F4F  FFFF               	dw	65535
   345  004F51  FFFF               	dw	65535
   346  004F53  FFFF               	dw	65535
   347  004F55  FFFF               	dw	65535
   348  004F57  FFFF               	dw	65535
   349  004F59  FFFF               	dw	65535
   350  004F5B  FFFF               	dw	65535
   351  004F5D  FFFF               	dw	65535
   352  004F5F  FFFF               	dw	65535
   353  004F61  FFFF               	dw	65535
   354  004F63  FFFF               	dw	65535
   355  004F65  FFFF               	dw	65535
   356  004F67  FFFF               	dw	65535
   357  004F69  FFFF               	dw	65535
   358  004F6B  FFFF               	dw	65535
   359  004F6D  FFDF               	dw	65503
   360  004F6F  FFDF               	dw	65503
   361  004F71  FFDF               	dw	65503
   362  004F73  FFDF               	dw	65503
   363  004F75  FFDF               	dw	65503
   364  004F77  FFFF               	dw	65535
   365  004F79  FFFF               	dw	65535
   366  004F7B  FFFF               	dw	65535
   367  004F7D  FFFF               	dw	65535
   368  004F7F  FFFF               	dw	65535
   369  004F81  FFFF               	dw	65535
   370  004F83  FFFF               	dw	65535
   371  004F85  FFFF               	dw	65535
   372  004F87  FFFF               	dw	65535
   373  004F89  FFFF               	dw	65535
   374  004F8B  FFFF               	dw	65535
   375  004F8D  FFFF               	dw	65535
   376  004F8F  FFFF               	dw	65535
   377  004F91  FFFF               	dw	65535
   378  004F93  FFFF               	dw	65535
   379  004F95  FFDF               	dw	65503
   380  004F97  FFDF               	dw	65503
   381  004F99  FFDF               	dw	65503
   382  004F9B  FFDF               	dw	65503
   383  004F9D  FFDF               	dw	65503
   384  004F9F  FFFF               	dw	65535
   385  004FA1  FFFF               	dw	65535
   386  004FA3  FFFF               	dw	65535
   387  004FA5  FFFF               	dw	65535
   388  004FA7  FFFF               	dw	65535
   389  004FA9  FFFF               	dw	65535
   390  004FAB  FFFF               	dw	65535
   391  004FAD  FFFF               	dw	65535
   392  004FAF  FFFF               	dw	65535
   393  004FB1  FFFF               	dw	65535
   394  004FB3  FFFF               	dw	65535
   395  004FB5  FFFF               	dw	65535
   396  004FB7  FFFF               	dw	65535
   397  004FB9  FFFF               	dw	65535
   398  004FBB  FFFF               	dw	65535
   399  004FBD  FFFF               	dw	65535
   400  004FBF  FFFF               	dw	65535
   401  004FC1  FFFF               	dw	65535
   402  004FC3  F7BE               	dw	63422
   403  004FC5  F7BE               	dw	63422
   404  004FC7  F7BE               	dw	63422
   405  004FC9  F7BE               	dw	63422
   406  004FCB  F7BE               	dw	63422
   407  004FCD  FFFF               	dw	65535
   408  004FCF  FFFF               	dw	65535
   409  004FD1  FFFF               	dw	65535
   410  004FD3  FFFF               	dw	65535
   411  004FD5  FFFF               	dw	65535
   412  004FD7  FFFF               	dw	65535
   413  004FD9  FFFF               	dw	65535
   414  004FDB  FFFF               	dw	65535
   415  004FDD  FFFF               	dw	65535
   416  004FDF  FFFF               	dw	65535
   417  004FE1  FFFF               	dw	65535
   418  004FE3  FFFF               	dw	65535
   419  004FE5  FFFF               	dw	65535
   420  004FE7  FFFF               	dw	65535
   421  004FE9  FFFF               	dw	65535
   422  004FEB  F7BE               	dw	63422
   423  004FED  F7BE               	dw	63422
   424  004FEF  F7BE               	dw	63422
   425  004FF1  F7BE               	dw	63422
   426  004FF3  F7BE               	dw	63422
   427  004FF5  FFFF               	dw	65535
   428  004FF7  FFFF               	dw	65535
   429  004FF9  FFFF               	dw	65535
   430  004FFB  FFFF               	dw	65535
   431  004FFD  FFFF               	dw	65535
   432  004FFF  FFFF               	dw	65535
   433  005001  FFFF               	dw	65535
   434  005003  FFFF               	dw	65535
   435  005005  FFFF               	dw	65535
   436  005007  FFFF               	dw	65535
   437  005009  FFFF               	dw	65535
   438  00500B  FFFF               	dw	65535
   439  00500D  FFFF               	dw	65535
   440  00500F  FFFF               	dw	65535
   441  005011  FFFF               	dw	65535
   442  005013  F7BE               	dw	63422
   443  005015  F7BE               	dw	63422
   444  005017  F7BE               	dw	63422
   445  005019  F7BE               	dw	63422
   446  00501B  F7BE               	dw	63422
   447  00501D  FFFF               	dw	65535
   448  00501F  FFFF               	dw	65535
   449  005021  FFFF               	dw	65535
   450  005023  FFFF               	dw	65535
   451  005025  FFFF               	dw	65535
   452  005027  FFFF               	dw	65535
   453  005029  FFFF               	dw	65535
   454  00502B  FFFF               	dw	65535
   455  00502D  FFFF               	dw	65535
   456  00502F  FFFF               	dw	65535
   457  005031  FFFF               	dw	65535
   458  005033  FFFF               	dw	65535
   459  005035  FFFF               	dw	65535
   460  005037  FFFF               	dw	65535
   461  005039  FFFF               	dw	65535
   462  00503B  FFFF               	dw	65535
   463  00503D  FFFF               	dw	65535
   464  00503F  FFFF               	dw	65535
   465  005041  F7BE               	dw	63422
   466  005043  F7BE               	dw	63422
   467  005045  F7BE               	dw	63422
   468  005047  F7BE               	dw	63422
   469  005049  F7BE               	dw	63422
   470  00504B  FFFF               	dw	65535
   471  00504D  FFFF               	dw	65535
   472  00504F  FFFF               	dw	65535
   473  005051  FFFF               	dw	65535
   474  005053  FFFF               	dw	65535
   475  005055  FFFF               	dw	65535
   476  005057  FFFF               	dw	65535
   477  005059  FFFF               	dw	65535
   478  00505B  FFFF               	dw	65535
   479  00505D  FFFF               	dw	65535
   480  00505F  FFFF               	dw	65535
   481  005061  FFFF               	dw	65535
   482  005063  FFFF               	dw	65535
   483  005065  FFFF               	dw	65535
   484  005067  FFFF               	dw	65535
   485  005069  F7BE               	dw	63422
   486  00506B  F7BE               	dw	63422
   487  00506D  F7BE               	dw	63422
   488  00506F  F7BE               	dw	63422
   489  005071  F7BE               	dw	63422
   490  005073  FFFF               	dw	65535
   491  005075  FFFF               	dw	65535
   492  005077  FFFF               	dw	65535
   493  005079  FFFF               	dw	65535
   494  00507B  FFFF               	dw	65535
   495  00507D  FFFF               	dw	65535
   496  00507F  FFFF               	dw	65535
   497  005081  FFFF               	dw	65535
   498  005083  FFFF               	dw	65535
   499  005085  FFFF               	dw	65535
   500  005087  FFFF               	dw	65535
   501  005089  FFFF               	dw	65535
   502  00508B  FFFF               	dw	65535
   503  00508D  FFFF               	dw	65535
   504  00508F  FFFF               	dw	65535
   505  005091  F7BE               	dw	63422
   506  005093  F7BE               	dw	63422
   507  005095  F7BE               	dw	63422
   508  005097  F7BE               	dw	63422
   509  005099  F7BE               	dw	63422
   510  00509B  FFFF               	dw	65535
   511  00509D  FFFF               	dw	65535
   512  00509F  FFFF               	dw	65535
   513  0050A1  FFFF               	dw	65535
   514  0050A3  FFFF               	dw	65535
   515  0050A5  FFFF               	dw	65535
   516  0050A7  FFFF               	dw	65535
   517  0050A9  FFFF               	dw	65535
   518  0050AB  FFFF               	dw	65535
   519  0050AD  FFFF               	dw	65535
   520  0050AF  FFFF               	dw	65535
   521  0050B1  FFFF               	dw	65535
   522  0050B3  FFFF               	dw	65535
   523  0050B5  FFFF               	dw	65535
   524  0050B7  FFFF               	dw	65535
   525  0050B9  FFFF               	dw	65535
   526  0050BB  FFFF               	dw	65535
   527  0050BD  FFFF               	dw	65535
   528  0050BF  F7BE               	dw	63422
   529  0050C1  F7BE               	dw	63422
   530  0050C3  F7BE               	dw	63422
   531  0050C5  F7BE               	dw	63422
   532  0050C7  F7BE               	dw	63422
   533  0050C9  FFFF               	dw	65535
   534  0050CB  FFFF               	dw	65535
   535  0050CD  FFFF               	dw	65535
   536  0050CF  FFFF               	dw	65535
   537  0050D1  FFFF               	dw	65535
   538  0050D3  FFFF               	dw	65535
   539  0050D5  FFFF               	dw	65535
   540  0050D7  FFFF               	dw	65535
   541  0050D9  FFFF               	dw	65535
   542  0050DB  FFFF               	dw	65535
   543  0050DD  FFFF               	dw	65535
   544  0050DF  FFFF               	dw	65535
   545  0050E1  FFFF               	dw	65535
   546  0050E3  FFFF               	dw	65535
   547  0050E5  FFFF               	dw	65535
   548  0050E7  F7BE               	dw	63422
   549  0050E9  F7BE               	dw	63422
   550  0050EB  F7BE               	dw	63422
   551  0050ED  F7BE               	dw	63422
   552  0050EF  F7BE               	dw	63422
   553  0050F1  FFFF               	dw	65535
   554  0050F3  FFFF               	dw	65535
   555  0050F5  FFFF               	dw	65535
   556  0050F7  FFFF               	dw	65535
   557  0050F9  FFFF               	dw	65535
   558  0050FB  FFFF               	dw	65535
   559  0050FD  FFFF               	dw	65535
   560  0050FF  FFFF               	dw	65535
   561  005101  FFFF               	dw	65535
   562  005103  FFFF               	dw	65535
   563  005105  FFFF               	dw	65535
   564  005107  FFFF               	dw	65535
   565  005109  FFFF               	dw	65535
   566  00510B  FFFF               	dw	65535
   567  00510D  FFFF               	dw	65535
   568  00510F  F7BE               	dw	63422
   569  005111  F7BE               	dw	63422
   570  005113  F7BE               	dw	63422
   571  005115  F7BE               	dw	63422
   572  005117  F7BE               	dw	63422
   573  005119  FFFF               	dw	65535
   574  00511B  FFFF               	dw	65535
   575  00511D  FFFF               	dw	65535
   576  00511F  FFFF               	dw	65535
   577  005121  FFFF               	dw	65535
   578  005123  FFFF               	dw	65535
   579  005125  FFFF               	dw	65535
   580  005127  FFFF               	dw	65535
   581  005129  FFFF               	dw	65535
   582  00512B  FFFF               	dw	65535
   583  00512D  FFFF               	dw	65535
   584  00512F  FFFF               	dw	65535
   585  005131  FFFF               	dw	65535
   586  005133  FFFF               	dw	65535
   587  005135  FFFF               	dw	65535
   588  005137  FFFF               	dw	65535
   589  005139  FFFF               	dw	65535
   590  00513B  FFFF               	dw	65535
   591  00513D  F7BE               	dw	63422
   592  00513F  F7BE               	dw	63422
   593  005141  F7BE               	dw	63422
   594  005143  F7BE               	dw	63422
   595  005145  F7BE               	dw	63422
   596  005147  FFFF               	dw	65535
   597  005149  FFFF               	dw	65535
   598  00514B  FFFF               	dw	65535
   599  00514D  FFFF               	dw	65535
   600  00514F  FFFF               	dw	65535
   601  005151  FFFF               	dw	65535
   602  005153  FFFF               	dw	65535
   603  005155  FFFF               	dw	65535
   604  005157  FFFF               	dw	65535
   605  005159  FFFF               	dw	65535
   606  00515B  FFFF               	dw	65535
   607  00515D  FFFF               	dw	65535
   608  00515F  FFFF               	dw	65535
   609  005161  FFFF               	dw	65535
   610  005163  FFFF               	dw	65535
   611  005165  F7BE               	dw	63422
   612  005167  F7BE               	dw	63422
   613  005169  F7BE               	dw	63422
   614  00516B  F7BE               	dw	63422
   615  00516D  F7BE               	dw	63422
   616  00516F  FFFF               	dw	65535
   617  005171  FFFF               	dw	65535
   618  005173  FFFF               	dw	65535
   619  005175  FFFF               	dw	65535
   620  005177  FFFF               	dw	65535
   621  005179  FFFF               	dw	65535
   622  00517B  FFFF               	dw	65535
   623  00517D  FFFF               	dw	65535
   624  00517F  FFFF               	dw	65535
   625  005181  FFFF               	dw	65535
   626  005183  FFFF               	dw	65535
   627  005185  FFFF               	dw	65535
   628  005187  FFFF               	dw	65535
   629  005189  FFFF               	dw	65535
   630  00518B  FFFF               	dw	65535
   631  00518D  F7BE               	dw	63422
   632  00518F  F7BE               	dw	63422
   633  005191  F7BE               	dw	63422
   634  005193  F7BE               	dw	63422
   635  005195  F7BE               	dw	63422
   636  005197  FFFF               	dw	65535
   637  005199  FFFF               	dw	65535
   638  00519B  FFFF               	dw	65535
   639  00519D  FFFF               	dw	65535
   640  00519F  FFFF               	dw	65535
   641  0051A1  FFFF               	dw	65535
   642  0051A3  FFFF               	dw	65535
   643  0051A5  FFFF               	dw	65535
   644  0051A7  FFFF               	dw	65535
   645  0051A9  FFFF               	dw	65535
   646  0051AB  FFFF               	dw	65535
   647  0051AD  FFFF               	dw	65535
   648  0051AF  FFFF               	dw	65535
   649  0051B1  FFFF               	dw	65535
   650  0051B3  FFFF               	dw	65535
   651  0051B5  FFFF               	dw	65535
   652  0051B7  FFFF               	dw	65535
   653  0051B9  FFFF               	dw	65535
   654  0051BB  F7BE               	dw	63422
   655  0051BD  F7BE               	dw	63422
   656  0051BF  F7BE               	dw	63422
   657  0051C1  F7BE               	dw	63422
   658  0051C3  F7BE               	dw	63422
   659  0051C5  FFFF               	dw	65535
   660  0051C7  FFFF               	dw	65535
   661  0051C9  FFFF               	dw	65535
   662  0051CB  FFFF               	dw	65535
   663  0051CD  FFFF               	dw	65535
   664  0051CF  FFFF               	dw	65535
   665  0051D1  FFFF               	dw	65535
   666  0051D3  FFFF               	dw	65535
   667  0051D5  FFFF               	dw	65535
   668  0051D7  FFFF               	dw	65535
   669  0051D9  FFFF               	dw	65535
   670  0051DB  FFFF               	dw	65535
   671  0051DD  FFFF               	dw	65535
   672  0051DF  FFFF               	dw	65535
   673  0051E1  FFFF               	dw	65535
   674  0051E3  F7BE               	dw	63422
   675  0051E5  F7BE               	dw	63422
   676  0051E7  F7BE               	dw	63422
   677  0051E9  F7BE               	dw	63422
   678  0051EB  F7BE               	dw	63422
   679  0051ED  FFFF               	dw	65535
   680  0051EF  FFFF               	dw	65535
   681  0051F1  FFFF               	dw	65535
   682  0051F3  FFFF               	dw	65535
   683  0051F5  FFFF               	dw	65535
   684  0051F7  FFFF               	dw	65535
   685  0051F9  FFFF               	dw	65535
   686  0051FB  FFFF               	dw	65535
   687  0051FD  FFFF               	dw	65535
   688  0051FF  FFFF               	dw	65535
   689  005201  FFFF               	dw	65535
   690  005203  FFFF               	dw	65535
   691  005205  FFFF               	dw	65535
   692  005207  FFFF               	dw	65535
   693  005209  FFFF               	dw	65535
   694  00520B  F7BE               	dw	63422
   695  00520D  F7BE               	dw	63422
   696  00520F  F7BE               	dw	63422
   697  005211  F7BE               	dw	63422
   698  005213  F7BE               	dw	63422
   699  005215  FFFF               	dw	65535
   700  005217  FFFF               	dw	65535
   701  005219  FFFF               	dw	65535
   702  00521B  FFFF               	dw	65535
   703  00521D  FFFF               	dw	65535
   704  00521F  FFFF               	dw	65535
   705  005221  FFFF               	dw	65535
   706  005223  FFFF               	dw	65535
   707  005225  FFFF               	dw	65535
   708  005227  FFFF               	dw	65535
   709  005229  FFFF               	dw	65535
   710  00522B  FFFF               	dw	65535
   711  00522D  FFFF               	dw	65535
   712  00522F  FFFF               	dw	65535
   713  005231  FFFF               	dw	65535
   714  005233  FFFF               	dw	65535
   715  005235  FFFF               	dw	65535
   716  005237  FFFF               	dw	65535
   717  005239  F7BE               	dw	63422
   718  00523B  F7BE               	dw	63422
   719  00523D  F7BE               	dw	63422
   720  00523F  F7BE               	dw	63422
   721  005241  F7BE               	dw	63422
   722  005243  FFFF               	dw	65535
   723  005245  FFFF               	dw	65535
   724  005247  FFFF               	dw	65535
   725  005249  FFFF               	dw	65535
   726  00524B  FFFF               	dw	65535
   727  00524D  FFFF               	dw	65535
   728  00524F  FFFF               	dw	65535
   729  005251  FFFF               	dw	65535
   730  005253  FFFF               	dw	65535
   731  005255  FFFF               	dw	65535
   732  005257  FFFF               	dw	65535
   733  005259  FFFF               	dw	65535
   734  00525B  FFFF               	dw	65535
   735  00525D  FFFF               	dw	65535
   736  00525F  FFFF               	dw	65535
   737  005261  F7BE               	dw	63422
   738  005263  F7BE               	dw	63422
   739  005265  F7BE               	dw	63422
   740  005267  F7BE               	dw	63422
   741  005269  F7BE               	dw	63422
   742  00526B  FFFF               	dw	65535
   743  00526D  FFFF               	dw	65535
   744  00526F  FFFF               	dw	65535
   745  005271  FFFF               	dw	65535
   746  005273  FFFF               	dw	65535
   747  005275  FFFF               	dw	65535
   748  005277  FFFF               	dw	65535
   749  005279  FFFF               	dw	65535
   750  00527B  FFFF               	dw	65535
   751  00527D  FFFF               	dw	65535
   752  00527F  FFFF               	dw	65535
   753  005281  FFFF               	dw	65535
   754  005283  FFFF               	dw	65535
   755  005285  FFFF               	dw	65535
   756  005287  FFFF               	dw	65535
   757  005289  F7BE               	dw	63422
   758  00528B  F7BE               	dw	63422
   759  00528D  F7BE               	dw	63422
   760  00528F  F7BE               	dw	63422
   761  005291  F7BE               	dw	63422
   762  005293  FFFF               	dw	65535
   763  005295  FFFF               	dw	65535
   764  005297  FFFF               	dw	65535
   765  005299  FFFF               	dw	65535
   766  00529B  FFFF               	dw	65535
   767  00529D  FFFF               	dw	65535
   768  00529F  FFFF               	dw	65535
   769  0052A1  FFFF               	dw	65535
   770  0052A3  FFFF               	dw	65535
   771  0052A5  FFFF               	dw	65535
   772  0052A7  FFFF               	dw	65535
   773  0052A9  FFFF               	dw	65535
   774  0052AB  FFFF               	dw	65535
   775  0052AD  FFFF               	dw	65535
   776  0052AF  FFFF               	dw	65535
   777  0052B1  FFFF               	dw	65535
   778  0052B3  FFFF               	dw	65535
   779  0052B5  FFFF               	dw	65535
   780  0052B7  F7BE               	dw	63422
   781  0052B9  F7BE               	dw	63422
   782  0052BB  F7BE               	dw	63422
   783  0052BD  F7BE               	dw	63422
   784  0052BF  F7BE               	dw	63422
   785  0052C1  FFFF               	dw	65535
   786  0052C3  FFFF               	dw	65535
   787  0052C5  FFFF               	dw	65535
   788  0052C7  FFFF               	dw	65535
   789  0052C9  FFFF               	dw	65535
   790  0052CB  FFFF               	dw	65535
   791  0052CD  FFFF               	dw	65535
   792  0052CF  FFFF               	dw	65535
   793  0052D1  FFFF               	dw	65535
   794  0052D3  FFFF               	dw	65535
   795  0052D5  FFFF               	dw	65535
   796  0052D7  FFFF               	dw	65535
   797  0052D9  FFFF               	dw	65535
   798  0052DB  FFFF               	dw	65535
   799  0052DD  FFFF               	dw	65535
   800  0052DF  F7BE               	dw	63422
   801  0052E1  F7BE               	dw	63422
   802  0052E3  F7BE               	dw	63422
   803  0052E5  F7BE               	dw	63422
   804  0052E7  F7BE               	dw	63422
   805  0052E9  FFFF               	dw	65535
   806  0052EB  FFFF               	dw	65535
   807  0052ED  FFFF               	dw	65535
   808  0052EF  FFFF               	dw	65535
   809  0052F1  FFFF               	dw	65535
   810  0052F3  FFFF               	dw	65535
   811  0052F5  FFFF               	dw	65535
   812  0052F7  FFFF               	dw	65535
   813  0052F9  FFFF               	dw	65535
   814  0052FB  FFFF               	dw	65535
   815  0052FD  FFFF               	dw	65535
   816  0052FF  FFFF               	dw	65535
   817  005301  FFFF               	dw	65535
   818  005303  FFFF               	dw	65535
   819  005305  FFFF               	dw	65535
   820  005307  F7BE               	dw	63422
   821  005309  F7BE               	dw	63422
   822  00530B  F7BE               	dw	63422
   823  00530D  F7BE               	dw	63422
   824  00530F  F7BE               	dw	63422
   825  005311  FFFF               	dw	65535
   826  005313  FFFF               	dw	65535
   827  005315  FFFF               	dw	65535
   828  005317  FFFF               	dw	65535
   829  005319  FFFF               	dw	65535
   830  00531B  FFFF               	dw	65535
   831  00531D  FFFF               	dw	65535
   832  00531F  FFFF               	dw	65535
   833  005321  FFFF               	dw	65535
   834  005323  FFFF               	dw	65535
   835  005325  FFFF               	dw	65535
   836  005327  FFFF               	dw	65535
   837  005329  FFFF               	dw	65535
   838  00532B  FFFF               	dw	65535
   839  00532D  FFFF               	dw	65535
   840  00532F  FFFF               	dw	65535
   841  005331  FFFF               	dw	65535
   842  005333  FFFF               	dw	65535
   843  005335  F7BE               	dw	63422
   844  005337  F7BE               	dw	63422
   845  005339  F7BE               	dw	63422
   846  00533B  F7BE               	dw	63422
   847  00533D  F7BE               	dw	63422
   848  00533F  FFFF               	dw	65535
   849  005341  FFFF               	dw	65535
   850  005343  FFFF               	dw	65535
   851  005345  FFFF               	dw	65535
   852  005347  FFFF               	dw	65535
   853  005349  FFFF               	dw	65535
   854  00534B  FFFF               	dw	65535
   855  00534D  FFFF               	dw	65535
   856  00534F  FFFF               	dw	65535
   857  005351  FFFF               	dw	65535
   858  005353  FFFF               	dw	65535
   859  005355  FFFF               	dw	65535
   860  005357  FFFF               	dw	65535
   861  005359  FFFF               	dw	65535
   862  00535B  FFFF               	dw	65535
   863  00535D  F7BE               	dw	63422
   864  00535F  F7BE               	dw	63422
   865  005361  F7BE               	dw	63422
   866  005363  F7BE               	dw	63422
   867  005365  F7BE               	dw	63422
   868  005367  FFFF               	dw	65535
   869  005369  FFFF               	dw	65535
   870  00536B  FFFF               	dw	65535
   871  00536D  FFFF               	dw	65535
   872  00536F  FFFF               	dw	65535
   873  005371  FFFF               	dw	65535
   874  005373  FFFF               	dw	65535
   875  005375  FFFF               	dw	65535
   876  005377  FFFF               	dw	65535
   877  005379  FFFF               	dw	65535
   878  00537B  FFFF               	dw	65535
   879  00537D  FFFF               	dw	65535
   880  00537F  FFFF               	dw	65535
   881  005381  FFFF               	dw	65535
   882  005383  FFFF               	dw	65535
   883  005385  F7BE               	dw	63422
   884  005387  CE79               	dw	52857
   885  005389  9CD3               	dw	40147
   886  00538B  630C               	dw	25356
   887  00538D  2965               	dw	10597
   888  00538F  4A69               	dw	19049
   889  005391  FFDF               	dw	65503
   890  005393  FFFF               	dw	65535
   891  005395  FFFF               	dw	65535
   892  005397  FFFF               	dw	65535
   893  005399  FFFF               	dw	65535
   894  00539B  FFFF               	dw	65535
   895  00539D  FFFF               	dw	65535
   896  00539F  FFFF               	dw	65535
   897  0053A1  FFFF               	dw	65535
   898  0053A3  FFFF               	dw	65535
   899  0053A5  FFFF               	dw	65535
   900  0053A7  FFFF               	dw	65535
   901  0053A9  FFFF               	dw	65535
   902  0053AB  FFFF               	dw	65535
   903  0053AD  FFFF               	dw	65535
   904  0053AF  FFFF               	dw	65535
   905  0053B1  FFFF               	dw	65535
   906  0053B3  FFDF               	dw	65503
   907  0053B5  F7BE               	dw	63422
   908  0053B7  F7BE               	dw	63422
   909  0053B9  F7BE               	dw	63422
   910  0053BB  F7BE               	dw	63422
   911  0053BD  FFFF               	dw	65535
   912  0053BF  FFFF               	dw	65535
   913  0053C1  FFFF               	dw	65535
   914  0053C3  FFFF               	dw	65535
   915  0053C5  FFFF               	dw	65535
   916  0053C7  FFFF               	dw	65535
   917  0053C9  FFFF               	dw	65535
   918  0053CB  FFFF               	dw	65535
   919  0053CD  FFFF               	dw	65535
   920  0053CF  FFFF               	dw	65535
   921  0053D1  FFFF               	dw	65535
   922  0053D3  FFFF               	dw	65535
   923  0053D5  FFFF               	dw	65535
   924  0053D7  FFFF               	dw	65535
   925  0053D9  FFFF               	dw	65535
   926  0053DB  F7BE               	dw	63422
   927  0053DD  F7BE               	dw	63422
   928  0053DF  F7BE               	dw	63422
   929  0053E1  F7BE               	dw	63422
   930  0053E3  F7BE               	dw	63422
   931  0053E5  FFFF               	dw	65535
   932  0053E7  FFFF               	dw	65535
   933  0053E9  FFFF               	dw	65535
   934  0053EB  FFFF               	dw	65535
   935  0053ED  FFFF               	dw	65535
   936  0053EF  FFFF               	dw	65535
   937  0053F1  FFFF               	dw	65535
   938  0053F3  FFFF               	dw	65535
   939  0053F5  FFFF               	dw	65535
   940  0053F7  FFFF               	dw	65535
   941  0053F9  FFFF               	dw	65535
   942  0053FB  FFFF               	dw	65535
   943  0053FD  F79E               	dw	63390
   944  0053FF  BDD7               	dw	48599
   945  005401  8410               	dw	33808
   946  005403  4A49               	dw	19017
   947  005405  10A2               	dw	4258
   948  005407  0020               	dw	32
   949  005409  0020               	dw	32
   950  00540B  0020               	dw	32
   951  00540D  0000               	dw	0
   952  00540F  0000               	dw	0
   953  005411  DEDB               	dw	57051
   954  005413  FFFF               	dw	65535
   955  005415  FFFF               	dw	65535
   956  005417  FFFF               	dw	65535
   957  005419  FFFF               	dw	65535
   958  00541B  FFFF               	dw	65535
   959  00541D  FFFF               	dw	65535
   960  00541F  FFFF               	dw	65535
   961  005421  FFFF               	dw	65535
   962  005423  FFFF               	dw	65535
   963  005425  FFFF               	dw	65535
   964  005427  FFFF               	dw	65535
   965  005429  FFFF               	dw	65535
   966  00542B  FFFF               	dw	65535
   967  00542D  FFFF               	dw	65535
   968  00542F  FFFF               	dw	65535
   969  005431  FFDF               	dw	65503
   970  005433  FFDF               	dw	65503
   971  005435  F7BE               	dw	63422
   972  005437  F7BE               	dw	63422
   973  005439  F7BE               	dw	63422
   974  00543B  FFFF               	dw	65535
   975  00543D  FFFF               	dw	65535
   976  00543F  FFFF               	dw	65535
   977  005441  FFFF               	dw	65535
   978  005443  FFFF               	dw	65535
   979  005445  FFFF               	dw	65535
   980  005447  FFFF               	dw	65535
   981  005449  FFFF               	dw	65535
   982  00544B  FFFF               	dw	65535
   983  00544D  FFFF               	dw	65535
   984  00544F  FFFF               	dw	65535
   985  005451  FFFF               	dw	65535
   986  005453  FFFF               	dw	65535
   987  005455  FFFF               	dw	65535
   988  005457  FFFF               	dw	65535
   989  005459  F7BE               	dw	63422
   990  00545B  F7BE               	dw	63422
   991  00545D  F7BE               	dw	63422
   992  00545F  F7BE               	dw	63422
   993  005461  F7BE               	dw	63422
   994  005463  FFFF               	dw	65535
   995  005465  FFFF               	dw	65535
   996  005467  FFFF               	dw	65535
   997  005469  FFFF               	dw	65535
   998  00546B  FFFF               	dw	65535
   999  00546D  FFFF               	dw	65535
  1000  00546F  FFFF               	dw	65535
  1001  005471  FFFF               	dw	65535
  1002  005473  FFFF               	dw	65535
  1003  005475  D6BA               	dw	54970
  1004  005477  9CF3               	dw	40179
  1005  005479  632C               	dw	25388
  1006  00547B  2965               	dw	10597
  1007  00547D  0000               	dw	0
  1008  00547F  0000               	dw	0
  1009  005481  0020               	dw	32
  1010  005483  0020               	dw	32
  1011  005485  0020               	dw	32
  1012  005487  0020               	dw	32
  1013  005489  0020               	dw	32
  1014  00548B  0861               	dw	2145
  1015  00548D  4208               	dw	16904
  1016  00548F  9492               	dw	38034
  1017  005491  FFFF               	dw	65535
  1018  005493  FFFF               	dw	65535
  1019  005495  FFFF               	dw	65535
  1020  005497  FFFF               	dw	65535
  1021  005499  FFFF               	dw	65535
  1022  00549B  FFFF               	dw	65535
  1023  00549D  FFFF               	dw	65535
  1024  00549F  FFFF               	dw	65535
  1025  0054A1  FFFF               	dw	65535
  1026  0054A3  FFFF               	dw	65535
  1027  0054A5  FFFF               	dw	65535
  1028  0054A7  FFFF               	dw	65535
  1029  0054A9  FFFF               	dw	65535
  1030  0054AB  FFFF               	dw	65535
  1031  0054AD  FFFF               	dw	65535
  1032  0054AF  FFDF               	dw	65503
  1033  0054B1  FFDF               	dw	65503
  1034  0054B3  FFDF               	dw	65503
  1035  0054B5  F7BE               	dw	63422
  1036  0054B7  F7BE               	dw	63422
  1037  0054B9  FFFF               	dw	65535
  1038  0054BB  FFFF               	dw	65535
  1039  0054BD  FFFF               	dw	65535
  1040  0054BF  FFFF               	dw	65535
  1041  0054C1  FFFF               	dw	65535
  1042  0054C3  FFFF               	dw	65535
  1043  0054C5  FFFF               	dw	65535
  1044  0054C7  FFFF               	dw	65535
  1045  0054C9  FFFF               	dw	65535
  1046  0054CB  FFFF               	dw	65535
  1047  0054CD  FFFF               	dw	65535
  1048  0054CF  FFFF               	dw	65535
  1049  0054D1  FFFF               	dw	65535
  1050  0054D3  FFFF               	dw	65535
  1051  0054D5  FFFF               	dw	65535
  1052  0054D7  F7BE               	dw	63422
  1053  0054D9  F7BE               	dw	63422
  1054  0054DB  F7BE               	dw	63422
  1055  0054DD  F7BE               	dw	63422
  1056  0054DF  F7BE               	dw	63422
  1057  0054E1  FFFF               	dw	65535
  1058  0054E3  FFFF               	dw	65535
  1059  0054E5  FFFF               	dw	65535
  1060  0054E7  FFFF               	dw	65535
  1061  0054E9  FFFF               	dw	65535
  1062  0054EB  F79E               	dw	63390
  1063  0054ED  BDD7               	dw	48599
  1064  0054EF  8410               	dw	33808
  1065  0054F1  4A49               	dw	19017
  1066  0054F3  1082               	dw	4226
  1067  0054F5  0000               	dw	0
  1068  0054F7  0000               	dw	0
  1069  0054F9  0000               	dw	0
  1070  0054FB  0000               	dw	0
  1071  0054FD  0000               	dw	0
  1072  0054FF  0020               	dw	32
  1073  005501  0020               	dw	32
  1074  005503  2124               	dw	8484
  1075  005505  5ACB               	dw	23243
  1076  005507  9492               	dw	38034
  1077  005509  CE79               	dw	52857
  1078  00550B  FFFF               	dw	65535
  1079  00550D  FFFF               	dw	65535
  1080  00550F  FFFF               	dw	65535
  1081  005511  FFFF               	dw	65535
  1082  005513  FFFF               	dw	65535
  1083  005515  FFFF               	dw	65535
  1084  005517  FFFF               	dw	65535
  1085  005519  FFFF               	dw	65535
  1086  00551B  FFFF               	dw	65535
  1087  00551D  FFFF               	dw	65535
  1088  00551F  FFFF               	dw	65535
  1089  005521  FFFF               	dw	65535
  1090  005523  FFFF               	dw	65535
  1091  005525  FFFF               	dw	65535
  1092  005527  FFDF               	dw	65503
  1093  005529  FFFF               	dw	65535
  1094  00552B  FFFF               	dw	65535
  1095  00552D  FFFF               	dw	65535
  1096  00552F  FFDF               	dw	65503
  1097  005531  FFDF               	dw	65503
  1098  005533  FFDF               	dw	65503
  1099  005535  F7BE               	dw	63422
  1100  005537  FFFF               	dw	65535
  1101  005539  FFFF               	dw	65535
  1102  00553B  FFFF               	dw	65535
  1103  00553D  FFFF               	dw	65535
  1104  00553F  FFFF               	dw	65535
  1105  005541  FFFF               	dw	65535
  1106  005543  FFFF               	dw	65535
  1107  005545  FFFF               	dw	65535
  1108  005547  FFFF               	dw	65535
  1109  005549  FFFF               	dw	65535
  1110  00554B  FFFF               	dw	65535
  1111  00554D  FFFF               	dw	65535
  1112  00554F  FFFF               	dw	65535
  1113  005551  FFFF               	dw	65535
  1114  005553  FFFF               	dw	65535
  1115  005555  F7BE               	dw	63422
  1116  005557  F7BE               	dw	63422
  1117  005559  F7BE               	dw	63422
  1118  00555B  F7BE               	dw	63422
  1119  00555D  F7BE               	dw	63422
  1120  00555F  FFFF               	dw	65535
  1121  005561  FFFF               	dw	65535
  1122  005563  D6BA               	dw	54970
  1123  005565  9CF3               	dw	40179
  1124  005567  632C               	dw	25388
  1125  005569  2945               	dw	10565
  1126  00556B  0000               	dw	0
  1127  00556D  0000               	dw	0
  1128  00556F  0000               	dw	0
  1129  005571  0000               	dw	0
  1130  005573  0000               	dw	0
  1131  005575  0000               	dw	0
  1132  005577  0000               	dw	0
  1133  005579  0861               	dw	2145
  1134  00557B  4208               	dw	16904
  1135  00557D  73CF               	dw	29647
  1136  00557F  AD75               	dw	44405
  1137  005581  E71C               	dw	59164
  1138  005583  F7BE               	dw	63422
  1139  005585  F7BE               	dw	63422
  1140  005587  FFFF               	dw	65535
  1141  005589  FFFF               	dw	65535
  1142  00558B  FFFF               	dw	65535
  1143  00558D  FFFF               	dw	65535
  1144  00558F  FFFF               	dw	65535
  1145  005591  FFFF               	dw	65535
  1146  005593  FFFF               	dw	65535
  1147  005595  FFFF               	dw	65535
  1148  005597  FFFF               	dw	65535
  1149  005599  FFFF               	dw	65535
  1150  00559B  FFFF               	dw	65535
  1151  00559D  FFFF               	dw	65535
  1152  00559F  FFFF               	dw	65535
  1153  0055A1  FFFF               	dw	65535
  1154  0055A3  FFFF               	dw	65535
  1155  0055A5  FFDF               	dw	65503
  1156  0055A7  FFDF               	dw	65503
  1157  0055A9  FFFF               	dw	65535
  1158  0055AB  FFFF               	dw	65535
  1159  0055AD  FFFF               	dw	65535
  1160  0055AF  FFDF               	dw	65503
  1161  0055B1  FFDF               	dw	65503
  1162  0055B3  FFDF               	dw	65503
  1163  0055B5  FFFF               	dw	65535
  1164  0055B7  FFFF               	dw	65535
  1165  0055B9  FFFF               	dw	65535
  1166  0055BB  FFFF               	dw	65535
  1167  0055BD  FFFF               	dw	65535
  1168  0055BF  FFFF               	dw	65535
  1169  0055C1  FFFF               	dw	65535
  1170  0055C3  FFFF               	dw	65535
  1171  0055C5  FFFF               	dw	65535
  1172  0055C7  FFFF               	dw	65535
  1173  0055C9  FFFF               	dw	65535
  1174  0055CB  FFFF               	dw	65535
  1175  0055CD  FFFF               	dw	65535
  1176  0055CF  FFFF               	dw	65535
  1177  0055D1  FFFF               	dw	65535
  1178  0055D3  F7BE               	dw	63422
  1179  0055D5  F7BE               	dw	63422
  1180  0055D7  F7BE               	dw	63422
  1181  0055D9  E73C               	dw	59196
  1182  0055DB  B596               	dw	46486
  1183  0055DD  8410               	dw	33808
  1184  0055DF  4228               	dw	16936
  1185  0055E1  1082               	dw	4226
  1186  0055E3  0000               	dw	0
  1187  0055E5  0000               	dw	0
  1188  0055E7  0000               	dw	0
  1189  0055E9  0000               	dw	0
  1190  0055EB  0000               	dw	0
  1191  0055ED  0000               	dw	0
  1192  0055EF  0000               	dw	0
  1193  0055F1  2124               	dw	8484
  1194  0055F3  5AEB               	dw	23275
  1195  0055F5  9CD3               	dw	40147
  1196  0055F7  D69A               	dw	54938
  1197  0055F9  FFDF               	dw	65503
  1198  0055FB  F7BE               	dw	63422
  1199  0055FD  F7BE               	dw	63422
  1200  0055FF  F7BE               	dw	63422
  1201  005601  F7BE               	dw	63422
  1202  005603  F7BE               	dw	63422
  1203  005605  FFFF               	dw	65535
  1204  005607  FFFF               	dw	65535
  1205  005609  FFFF               	dw	65535
  1206  00560B  FFFF               	dw	65535
  1207  00560D  FFFF               	dw	65535
  1208  00560F  FFFF               	dw	65535
  1209  005611  FFFF               	dw	65535
  1210  005613  FFFF               	dw	65535
  1211  005615  FFFF               	dw	65535
  1212  005617  FFFF               	dw	65535
  1213  005619  FFFF               	dw	65535
  1214  00561B  FFFF               	dw	65535
  1215  00561D  FFFF               	dw	65535
  1216  00561F  FFFF               	dw	65535
  1217  005621  FFFF               	dw	65535
  1218  005623  FFDF               	dw	65503
  1219  005625  FFDF               	dw	65503
  1220  005627  FFDF               	dw	65503
  1221  005629  FFFF               	dw	65535
  1222  00562B  FFFF               	dw	65535
  1223  00562D  FFFF               	dw	65535
  1224  00562F  FFDF               	dw	65503
  1225  005631  FFDF               	dw	65503
  1226  005633  FFFF               	dw	65535
  1227  005635  FFFF               	dw	65535
  1228  005637  FFFF               	dw	65535
  1229  005639  FFFF               	dw	65535
  1230  00563B  FFFF               	dw	65535
  1231  00563D  FFFF               	dw	65535
  1232  00563F  FFFF               	dw	65535
  1233  005641  FFFF               	dw	65535
  1234  005643  FFFF               	dw	65535
  1235  005645  FFFF               	dw	65535
  1236  005647  FFFF               	dw	65535
  1237  005649  FFFF               	dw	65535
  1238  00564B  FFFF               	dw	65535
  1239  00564D  FFFF               	dw	65535
  1240  00564F  FFFF               	dw	65535
  1241  005651  CE79               	dw	52857
  1242  005653  94B2               	dw	38066
  1243  005655  630C               	dw	25356
  1244  005657  2945               	dw	10565
  1245  005659  0020               	dw	32
  1246  00565B  0000               	dw	0
  1247  00565D  0000               	dw	0
  1248  00565F  0000               	dw	0
  1249  005661  0000               	dw	0
  1250  005663  0000               	dw	0
  1251  005665  0000               	dw	0
  1252  005667  0861               	dw	2145
  1253  005669  4208               	dw	16904
  1254  00566B  7BEF               	dw	31727
  1255  00566D  B5B6               	dw	46518
  1256  00566F  EF7D               	dw	61309
  1257  005671  FFFF               	dw	65535
  1258  005673  FFFF               	dw	65535
  1259  005675  FFFF               	dw	65535
  1260  005677  FFFF               	dw	65535
  1261  005679  F7BE               	dw	63422
  1262  00567B  F7BE               	dw	63422
  1263  00567D  F7BE               	dw	63422
  1264  00567F  F7BE               	dw	63422
  1265  005681  F7BE               	dw	63422
  1266  005683  FFFF               	dw	65535
  1267  005685  FFFF               	dw	65535
  1268  005687  FFFF               	dw	65535
  1269  005689  FFFF               	dw	65535
  1270  00568B  FFFF               	dw	65535
  1271  00568D  FFFF               	dw	65535
  1272  00568F  FFFF               	dw	65535
  1273  005691  FFFF               	dw	65535
  1274  005693  FFFF               	dw	65535
  1275  005695  FFFF               	dw	65535
  1276  005697  FFFF               	dw	65535
  1277  005699  FFFF               	dw	65535
  1278  00569B  FFFF               	dw	65535
  1279  00569D  FFFF               	dw	65535
  1280  00569F  FFFF               	dw	65535
  1281  0056A1  F7BE               	dw	63422
  1282  0056A3  FFDF               	dw	65503
  1283  0056A5  FFDF               	dw	65503
  1284  0056A7  FFDF               	dw	65503
  1285  0056A9  FFFF               	dw	65535
  1286  0056AB  FFFF               	dw	65535
  1287  0056AD  FFFF               	dw	65535
  1288  0056AF  FFDF               	dw	65503
  1289  0056B1  FFFF               	dw	65535
  1290  0056B3  FFFF               	dw	65535
  1291  0056B5  FFFF               	dw	65535
  1292  0056B7  FFFF               	dw	65535
  1293  0056B9  FFFF               	dw	65535
  1294  0056BB  FFFF               	dw	65535
  1295  0056BD  FFFF               	dw	65535
  1296  0056BF  FFFF               	dw	65535
  1297  0056C1  FFFF               	dw	65535
  1298  0056C3  FFFF               	dw	65535
  1299  0056C5  FFFF               	dw	65535
  1300  0056C7  EF7D               	dw	61309
  1301  0056C9  BDD7               	dw	48599
  1302  0056CB  7BEF               	dw	31727
  1303  0056CD  4228               	dw	16936
  1304  0056CF  1082               	dw	4226
  1305  0056D1  0020               	dw	32
  1306  0056D3  0020               	dw	32
  1307  0056D5  0020               	dw	32
  1308  0056D7  0020               	dw	32
  1309  0056D9  0000               	dw	0
  1310  0056DB  0000               	dw	0
  1311  0056DD  0000               	dw	0
  1312  0056DF  2945               	dw	10565
  1313  0056E1  630C               	dw	25356
  1314  0056E3  9CD3               	dw	40147
  1315  0056E5  D69A               	dw	54938
  1316  0056E7  FFFF               	dw	65535
  1317  0056E9  FFFF               	dw	65535
  1318  0056EB  FFFF               	dw	65535
  1319  0056ED  FFFF               	dw	65535
  1320  0056EF  FFFF               	dw	65535
  1321  0056F1  FFFF               	dw	65535
  1322  0056F3  FFFF               	dw	65535
  1323  0056F5  FFFF               	dw	65535
  1324  0056F7  F7BE               	dw	63422
  1325  0056F9  F7BE               	dw	63422
  1326  0056FB  F7BE               	dw	63422
  1327  0056FD  F7BE               	dw	63422
  1328  0056FF  F7BE               	dw	63422
  1329  005701  FFFF               	dw	65535
  1330  005703  FFFF               	dw	65535
  1331  005705  FFFF               	dw	65535
  1332  005707  FFFF               	dw	65535
  1333  005709  FFFF               	dw	65535
  1334  00570B  FFFF               	dw	65535
  1335  00570D  FFFF               	dw	65535
  1336  00570F  FFFF               	dw	65535
  1337  005711  FFFF               	dw	65535
  1338  005713  FFFF               	dw	65535
  1339  005715  FFFF               	dw	65535
  1340  005717  FFFF               	dw	65535
  1341  005719  FFFF               	dw	65535
  1342  00571B  FFFF               	dw	65535
  1343  00571D  FFFF               	dw	65535
  1344  00571F  F7BE               	dw	63422
  1345  005721  F7BE               	dw	63422
  1346  005723  FFDF               	dw	65503
  1347  005725  FFDF               	dw	65503
  1348  005727  FFDF               	dw	65503
  1349  005729  FFFF               	dw	65535
  1350  00572B  FFFF               	dw	65535
  1351  00572D  FFFF               	dw	65535
  1352  00572F  FFFF               	dw	65535
  1353  005731  FFFF               	dw	65535
  1354  005733  FFFF               	dw	65535
  1355  005735  FFFF               	dw	65535
  1356  005737  FFFF               	dw	65535
  1357  005739  FFFF               	dw	65535
  1358  00573B  FFFF               	dw	65535
  1359  00573D  FFFF               	dw	65535
  1360  00573F  D6BA               	dw	54970
  1361  005741  9CD3               	dw	40147
  1362  005743  630C               	dw	25356
  1363  005745  2945               	dw	10565
  1364  005747  0000               	dw	0
  1365  005749  0000               	dw	0
  1366  00574B  0000               	dw	0
  1367  00574D  0020               	dw	32
  1368  00574F  0020               	dw	32
  1369  005751  0020               	dw	32
  1370  005753  0020               	dw	32
  1371  005755  1082               	dw	4226
  1372  005757  4228               	dw	16936
  1373  005759  7BEF               	dw	31727
  1374  00575B  B5B6               	dw	46518
  1375  00575D  EF7D               	dw	61309
  1376  00575F  FFFF               	dw	65535
  1377  005761  FFFF               	dw	65535
  1378  005763  FFFF               	dw	65535
  1379  005765  FFFF               	dw	65535
  1380  005767  FFFF               	dw	65535
  1381  005769  FFFF               	dw	65535
  1382  00576B  FFFF               	dw	65535
  1383  00576D  FFFF               	dw	65535
  1384  00576F  FFFF               	dw	65535
  1385  005771  FFFF               	dw	65535
  1386  005773  FFFF               	dw	65535
  1387  005775  F7BE               	dw	63422
  1388  005777  F7BE               	dw	63422
  1389  005779  F7BE               	dw	63422
  1390  00577B  F7BE               	dw	63422
  1391  00577D  F7BE               	dw	63422
  1392  00577F  FFFF               	dw	65535
  1393  005781  FFFF               	dw	65535
  1394  005783  FFFF               	dw	65535
  1395  005785  FFFF               	dw	65535
  1396  005787  FFFF               	dw	65535
  1397  005789  FFFF               	dw	65535
  1398  00578B  FFFF               	dw	65535
  1399  00578D  FFFF               	dw	65535
  1400  00578F  FFFF               	dw	65535
  1401  005791  FFFF               	dw	65535
  1402  005793  FFFF               	dw	65535
  1403  005795  FFFF               	dw	65535
  1404  005797  FFFF               	dw	65535
  1405  005799  FFFF               	dw	65535
  1406  00579B  FFFF               	dw	65535
  1407  00579D  F7BE               	dw	63422
  1408  00579F  F7BE               	dw	63422
  1409  0057A1  F7BE               	dw	63422
  1410  0057A3  FFDF               	dw	65503
  1411  0057A5  FFDF               	dw	65503
  1412  0057A7  FFFF               	dw	65535
  1413  0057A9  FFFF               	dw	65535
  1414  0057AB  FFFF               	dw	65535
  1415  0057AD  FFFF               	dw	65535
  1416  0057AF  FFFF               	dw	65535
  1417  0057B1  FFFF               	dw	65535
  1418  0057B3  FFFF               	dw	65535
  1419  0057B5  FFFF               	dw	65535
  1420  0057B7  E73C               	dw	59196
  1421  0057B9  7BEF               	dw	31727
  1422  0057BB  4228               	dw	16936
  1423  0057BD  0861               	dw	2145
  1424  0057BF  0000               	dw	0
  1425  0057C1  0000               	dw	0
  1426  0057C3  0000               	dw	0
  1427  0057C5  0000               	dw	0
  1428  0057C7  0000               	dw	0
  1429  0057C9  0000               	dw	0
  1430  0057CB  0020               	dw	32
  1431  0057CD  0020               	dw	32
  1432  0057CF  0020               	dw	32
  1433  0057D1  2104               	dw	8452
  1434  0057D3  52AA               	dw	21162
  1435  0057D5  8410               	dw	33808
  1436  0057D7  8410               	dw	33808
  1437  0057D9  8410               	dw	33808
  1438  0057DB  8410               	dw	33808
  1439  0057DD  8410               	dw	33808
  1440  0057DF  8410               	dw	33808
  1441  0057E1  8410               	dw	33808
  1442  0057E3  8410               	dw	33808
  1443  0057E5  8410               	dw	33808
  1444  0057E7  8410               	dw	33808
  1445  0057E9  8410               	dw	33808
  1446  0057EB  8410               	dw	33808
  1447  0057ED  8410               	dw	33808
  1448  0057EF  8410               	dw	33808
  1449  0057F1  8410               	dw	33808
  1450  0057F3  8410               	dw	33808
  1451  0057F5  7BEF               	dw	31727
  1452  0057F7  7BEF               	dw	31727
  1453  0057F9  7BEF               	dw	31727
  1454  0057FB  8410               	dw	33808
  1455  0057FD  8410               	dw	33808
  1456  0057FF  8410               	dw	33808
  1457  005801  8410               	dw	33808
  1458  005803  8410               	dw	33808
  1459  005805  8410               	dw	33808
  1460  005807  8410               	dw	33808
  1461  005809  8410               	dw	33808
  1462  00580B  8410               	dw	33808
  1463  00580D  8410               	dw	33808
  1464  00580F  8410               	dw	33808
  1465  005811  8410               	dw	33808
  1466  005813  8410               	dw	33808
  1467  005815  8410               	dw	33808
  1468  005817  8410               	dw	33808
  1469  005819  8410               	dw	33808
  1470  00581B  8430               	dw	33840
  1471  00581D  DEFB               	dw	57083
  1472  00581F  F7BE               	dw	63422
  1473  005821  F7BE               	dw	63422
  1474  005823  FFDF               	dw	65503
  1475  005825  FFFF               	dw	65535
  1476  005827  FFFF               	dw	65535
  1477  005829  FFFF               	dw	65535
  1478  00582B  FFFF               	dw	65535
  1479  00582D  FFFF               	dw	65535
  1480  00582F  FFFF               	dw	65535
  1481  005831  FFFF               	dw	65535
  1482  005833  FFFF               	dw	65535
  1483  005835  FFFF               	dw	65535
  1484  005837  52AA               	dw	21162
  1485  005839  0000               	dw	0
  1486  00583B  0000               	dw	0
  1487  00583D  0000               	dw	0
  1488  00583F  0000               	dw	0
  1489  005841  0000               	dw	0
  1490  005843  0000               	dw	0
  1491  005845  0000               	dw	0
  1492  005847  0000               	dw	0
  1493  005849  0020               	dw	32
  1494  00584B  0020               	dw	32
  1495  00584D  0020               	dw	32
  1496  00584F  0020               	dw	32
  1497  005851  0020               	dw	32
  1498  005853  0000               	dw	0
  1499  005855  0000               	dw	0
  1500  005857  0000               	dw	0
  1501  005859  0000               	dw	0
  1502  00585B  0000               	dw	0
  1503  00585D  0000               	dw	0
  1504  00585F  0000               	dw	0
  1505  005861  0000               	dw	0
  1506  005863  0000               	dw	0
  1507  005865  0000               	dw	0
  1508  005867  0000               	dw	0
  1509  005869  0000               	dw	0
  1510  00586B  0000               	dw	0
  1511  00586D  0000               	dw	0
  1512  00586F  0000               	dw	0
  1513  005871  0020               	dw	32
  1514  005873  0020               	dw	32
  1515  005875  0020               	dw	32
  1516  005877  0020               	dw	32
  1517  005879  0020               	dw	32
  1518  00587B  0000               	dw	0
  1519  00587D  0000               	dw	0
  1520  00587F  0000               	dw	0
  1521  005881  0000               	dw	0
  1522  005883  0000               	dw	0
  1523  005885  0000               	dw	0
  1524  005887  0000               	dw	0
  1525  005889  0000               	dw	0
  1526  00588B  0000               	dw	0
  1527  00588D  0000               	dw	0
  1528  00588F  0000               	dw	0
  1529  005891  0000               	dw	0
  1530  005893  0000               	dw	0
  1531  005895  0000               	dw	0
  1532  005897  0000               	dw	0
  1533  005899  0020               	dw	32
  1534  00589B  0020               	dw	32
  1535  00589D  5ACB               	dw	23243
  1536  00589F  F7BE               	dw	63422
  1537  0058A1  F7BE               	dw	63422
  1538  0058A3  FFFF               	dw	65535
  1539  0058A5  FFFF               	dw	65535
  1540  0058A7  FFFF               	dw	65535
  1541  0058A9  FFFF               	dw	65535
  1542  0058AB  FFFF               	dw	65535
  1543  0058AD  FFFF               	dw	65535
  1544  0058AF  FFFF               	dw	65535
  1545  0058B1  FFFF               	dw	65535
  1546  0058B3  FFFF               	dw	65535
  1547  0058B5  FFFF               	dw	65535
  1548  0058B7  4228               	dw	16936
  1549  0058B9  0000               	dw	0
  1550  0058BB  0000               	dw	0
  1551  0058BD  0000               	dw	0
  1552  0058BF  0000               	dw	0
  1553  0058C1  0000               	dw	0
  1554  0058C3  0000               	dw	0
  1555  0058C5  0000               	dw	0
  1556  0058C7  0020               	dw	32
  1557  0058C9  0020               	dw	32
  1558  0058CB  0020               	dw	32
  1559  0058CD  0020               	dw	32
  1560  0058CF  0020               	dw	32
  1561  0058D1  0000               	dw	0
  1562  0058D3  0000               	dw	0
  1563  0058D5  0000               	dw	0
  1564  0058D7  0000               	dw	0
  1565  0058D9  0000               	dw	0
  1566  0058DB  0000               	dw	0
  1567  0058DD  0000               	dw	0
  1568  0058DF  0000               	dw	0
  1569  0058E1  0000               	dw	0
  1570  0058E3  0000               	dw	0
  1571  0058E5  0000               	dw	0
  1572  0058E7  0000               	dw	0
  1573  0058E9  0000               	dw	0
  1574  0058EB  0000               	dw	0
  1575  0058ED  0000               	dw	0
  1576  0058EF  0020               	dw	32
  1577  0058F1  0020               	dw	32
  1578  0058F3  0020               	dw	32
  1579  0058F5  0020               	dw	32
  1580  0058F7  0020               	dw	32
  1581  0058F9  0000               	dw	0
  1582  0058FB  0000               	dw	0
  1583  0058FD  0000               	dw	0
  1584  0058FF  0000               	dw	0
  1585  005901  0000               	dw	0
  1586  005903  0000               	dw	0
  1587  005905  0000               	dw	0
  1588  005907  0000               	dw	0
  1589  005909  0000               	dw	0
  1590  00590B  0000               	dw	0
  1591  00590D  0000               	dw	0
  1592  00590F  0000               	dw	0
  1593  005911  0000               	dw	0
  1594  005913  0000               	dw	0
  1595  005915  0000               	dw	0
  1596  005917  0020               	dw	32
  1597  005919  0020               	dw	32
  1598  00591B  0020               	dw	32
  1599  00591D  4A49               	dw	19017
  1600  00591F  F7BE               	dw	63422
  1601  005921  FFFF               	dw	65535
  1602  005923  FFFF               	dw	65535
  1603  005925  FFFF               	dw	65535
  1604  005927  FFFF               	dw	65535
  1605  005929  FFFF               	dw	65535
  1606  00592B  FFFF               	dw	65535
  1607  00592D  FFFF               	dw	65535
  1608  00592F  FFFF               	dw	65535
  1609  005931  FFFF               	dw	65535
  1610  005933  FFFF               	dw	65535
  1611  005935  FFFF               	dw	65535
  1612  005937  4228               	dw	16936
  1613  005939  0000               	dw	0
  1614  00593B  0000               	dw	0
  1615  00593D  0000               	dw	0
  1616  00593F  0000               	dw	0
  1617  005941  0000               	dw	0
  1618  005943  0000               	dw	0
  1619  005945  0020               	dw	32
  1620  005947  0020               	dw	32
  1621  005949  0020               	dw	32
  1622  00594B  0020               	dw	32
  1623  00594D  0020               	dw	32
  1624  00594F  0000               	dw	0
  1625  005951  0000               	dw	0
  1626  005953  0000               	dw	0
  1627  005955  0000               	dw	0
  1628  005957  0000               	dw	0
  1629  005959  0000               	dw	0
  1630  00595B  0000               	dw	0
  1631  00595D  0000               	dw	0
  1632  00595F  0000               	dw	0
  1633  005961  0000               	dw	0
  1634  005963  0000               	dw	0
  1635  005965  0000               	dw	0
  1636  005967  0000               	dw	0
  1637  005969  0000               	dw	0
  1638  00596B  0000               	dw	0
  1639  00596D  0020               	dw	32
  1640  00596F  0020               	dw	32
  1641  005971  0020               	dw	32
  1642  005973  0020               	dw	32
  1643  005975  0020               	dw	32
  1644  005977  0000               	dw	0
  1645  005979  0000               	dw	0
  1646  00597B  0000               	dw	0
  1647  00597D  0000               	dw	0
  1648  00597F  0000               	dw	0
  1649  005981  0000               	dw	0
  1650  005983  0000               	dw	0
  1651  005985  0000               	dw	0
  1652  005987  0000               	dw	0
  1653  005989  0000               	dw	0
  1654  00598B  0000               	dw	0
  1655  00598D  0000               	dw	0
  1656  00598F  0000               	dw	0
  1657  005991  0000               	dw	0
  1658  005993  0000               	dw	0
  1659  005995  0020               	dw	32
  1660  005997  0020               	dw	32
  1661  005999  0020               	dw	32
  1662  00599B  0020               	dw	32
  1663  00599D  4A49               	dw	19017
  1664  00599F  FFFF               	dw	65535
  1665  0059A1  FFFF               	dw	65535
  1666  0059A3  FFFF               	dw	65535
  1667  0059A5  FFFF               	dw	65535
  1668  0059A7  FFFF               	dw	65535
  1669  0059A9  FFFF               	dw	65535
  1670  0059AB  FFFF               	dw	65535
  1671  0059AD  FFFF               	dw	65535
  1672  0059AF  FFFF               	dw	65535
  1673  0059B1  FFFF               	dw	65535
  1674  0059B3  FFFF               	dw	65535
  1675  0059B5  FFFF               	dw	65535
  1676  0059B7  4228               	dw	16936
  1677  0059B9  0000               	dw	0
  1678  0059BB  0000               	dw	0
  1679  0059BD  0000               	dw	0
  1680  0059BF  0000               	dw	0
  1681  0059C1  0000               	dw	0
  1682  0059C3  0020               	dw	32
  1683  0059C5  0020               	dw	32
  1684  0059C7  0020               	dw	32
  1685  0059C9  0020               	dw	32
  1686  0059CB  0020               	dw	32
  1687  0059CD  0000               	dw	0
  1688  0059CF  0000               	dw	0
  1689  0059D1  0000               	dw	0
  1690  0059D3  0000               	dw	0
  1691  0059D5  0000               	dw	0
  1692  0059D7  0000               	dw	0
  1693  0059D9  0000               	dw	0
  1694  0059DB  0000               	dw	0
  1695  0059DD  0000               	dw	0
  1696  0059DF  0000               	dw	0
  1697  0059E1  0000               	dw	0
  1698  0059E3  0000               	dw	0
  1699  0059E5  0000               	dw	0
  1700  0059E7  0000               	dw	0
  1701  0059E9  0000               	dw	0
  1702  0059EB  0020               	dw	32
  1703  0059ED  0020               	dw	32
  1704  0059EF  0020               	dw	32
  1705  0059F1  0020               	dw	32
  1706  0059F3  0020               	dw	32
  1707  0059F5  0000               	dw	0
  1708  0059F7  0000               	dw	0
  1709  0059F9  0000               	dw	0
  1710  0059FB  0000               	dw	0
  1711  0059FD  0000               	dw	0
  1712  0059FF  0000               	dw	0
  1713  005A01  0000               	dw	0
  1714  005A03  0000               	dw	0
  1715  005A05  0000               	dw	0
  1716  005A07  0000               	dw	0
  1717  005A09  0000               	dw	0
  1718  005A0B  0000               	dw	0
  1719  005A0D  0000               	dw	0
  1720  005A0F  0000               	dw	0
  1721  005A11  0000               	dw	0
  1722  005A13  0020               	dw	32
  1723  005A15  0020               	dw	32
  1724  005A17  0020               	dw	32
  1725  005A19  0020               	dw	32
  1726  005A1B  0020               	dw	32
  1727  005A1D  4A49               	dw	19017
  1728  005A1F  FFFF               	dw	65535
  1729  005A21  FFFF               	dw	65535
  1730  005A23  FFFF               	dw	65535
  1731  005A25  FFFF               	dw	65535
  1732  005A27  FFFF               	dw	65535
  1733  005A29  FFFF               	dw	65535
  1734  005A2B  FFFF               	dw	65535
  1735  005A2D  FFFF               	dw	65535
  1736  005A2F  FFFF               	dw	65535
  1737  005A31  FFFF               	dw	65535
  1738  005A33  FFFF               	dw	65535
  1739  005A35  FFFF               	dw	65535
  1740  005A37  4228               	dw	16936
  1741  005A39  0000               	dw	0
  1742  005A3B  0000               	dw	0
  1743  005A3D  0000               	dw	0
  1744  005A3F  0000               	dw	0
  1745  005A41  0020               	dw	32
  1746  005A43  0020               	dw	32
  1747  005A45  0020               	dw	32
  1748  005A47  0020               	dw	32
  1749  005A49  0020               	dw	32
  1750  005A4B  0000               	dw	0
  1751  005A4D  0000               	dw	0
  1752  005A4F  0000               	dw	0
  1753  005A51  0000               	dw	0
  1754  005A53  0000               	dw	0
  1755  005A55  0000               	dw	0
  1756  005A57  0000               	dw	0
  1757  005A59  0000               	dw	0
  1758  005A5B  0000               	dw	0
  1759  005A5D  0000               	dw	0
  1760  005A5F  0000               	dw	0
  1761  005A61  0000               	dw	0
  1762  005A63  0000               	dw	0
  1763  005A65  0000               	dw	0
  1764  005A67  0000               	dw	0
  1765  005A69  0020               	dw	32
  1766  005A6B  0020               	dw	32
  1767  005A6D  0020               	dw	32
  1768  005A6F  0020               	dw	32
  1769  005A71  0020               	dw	32
  1770  005A73  0000               	dw	0
  1771  005A75  0000               	dw	0
  1772  005A77  0000               	dw	0
  1773  005A79  0000               	dw	0
  1774  005A7B  0000               	dw	0
  1775  005A7D  0000               	dw	0
  1776  005A7F  0000               	dw	0
  1777  005A81  0000               	dw	0
  1778  005A83  0000               	dw	0
  1779  005A85  0000               	dw	0
  1780  005A87  0000               	dw	0
  1781  005A89  0000               	dw	0
  1782  005A8B  0000               	dw	0
  1783  005A8D  0000               	dw	0
  1784  005A8F  0000               	dw	0
  1785  005A91  0020               	dw	32
  1786  005A93  0020               	dw	32
  1787  005A95  0020               	dw	32
  1788  005A97  0020               	dw	32
  1789  005A99  0020               	dw	32
  1790  005A9B  0000               	dw	0
  1791  005A9D  4A49               	dw	19017
  1792  005A9F  FFFF               	dw	65535
  1793  005AA1  FFFF               	dw	65535
  1794  005AA3  FFFF               	dw	65535
  1795  005AA5  FFFF               	dw	65535
  1796  005AA7  FFFF               	dw	65535
  1797  005AA9  FFFF               	dw	65535
  1798  005AAB  FFFF               	dw	65535
  1799  005AAD  FFFF               	dw	65535
  1800  005AAF  FFFF               	dw	65535
  1801  005AB1  FFFF               	dw	65535
  1802  005AB3  FFFF               	dw	65535
  1803  005AB5  FFFF               	dw	65535
  1804  005AB7  4228               	dw	16936
  1805  005AB9  0000               	dw	0
  1806  005ABB  0000               	dw	0
  1807  005ABD  0000               	dw	0
  1808  005ABF  0020               	dw	32
  1809  005AC1  0020               	dw	32
  1810  005AC3  0020               	dw	32
  1811  005AC5  0020               	dw	32
  1812  005AC7  0020               	dw	32
  1813  005AC9  0000               	dw	0
  1814  005ACB  0000               	dw	0
  1815  005ACD  0000               	dw	0
  1816  005ACF  18E3               	dw	6371
  1817  005AD1  73AE               	dw	29614
  1818  005AD3  BDD7               	dw	48599
  1819  005AD5  DEFB               	dw	57083
  1820  005AD7  E73C               	dw	59196
  1821  005AD9  D69A               	dw	54938
  1822  005ADB  A534               	dw	42292
  1823  005ADD  5AEB               	dw	23275
  1824  005ADF  0841               	dw	2113
  1825  005AE1  0000               	dw	0
  1826  005AE3  0000               	dw	0
  1827  005AE5  0000               	dw	0
  1828  005AE7  0020               	dw	32
  1829  005AE9  0020               	dw	32
  1830  005AEB  0020               	dw	32
  1831  005AED  0020               	dw	32
  1832  005AEF  0020               	dw	32
  1833  005AF1  0000               	dw	0
  1834  005AF3  0000               	dw	0
  1835  005AF5  0000               	dw	0
  1836  005AF7  0000               	dw	0
  1837  005AF9  0000               	dw	0
  1838  005AFB  0000               	dw	0
  1839  005AFD  0000               	dw	0
  1840  005AFF  0000               	dw	0
  1841  005B01  0000               	dw	0
  1842  005B03  0000               	dw	0
  1843  005B05  0000               	dw	0
  1844  005B07  0000               	dw	0
  1845  005B09  0000               	dw	0
  1846  005B0B  0000               	dw	0
  1847  005B0D  0000               	dw	0
  1848  005B0F  0020               	dw	32
  1849  005B11  0020               	dw	32
  1850  005B13  0020               	dw	32
  1851  005B15  0020               	dw	32
  1852  005B17  0020               	dw	32
  1853  005B19  0000               	dw	0
  1854  005B1B  0000               	dw	0
  1855  005B1D  4A49               	dw	19017
  1856  005B1F  FFFF               	dw	65535
  1857  005B21  FFFF               	dw	65535
  1858  005B23  FFFF               	dw	65535
  1859  005B25  FFFF               	dw	65535
  1860  005B27  FFFF               	dw	65535
  1861  005B29  FFFF               	dw	65535
  1862  005B2B  FFFF               	dw	65535
  1863  005B2D  FFFF               	dw	65535
  1864  005B2F  FFFF               	dw	65535
  1865  005B31  FFFF               	dw	65535
  1866  005B33  FFFF               	dw	65535
  1867  005B35  FFFF               	dw	65535
  1868  005B37  4228               	dw	16936
  1869  005B39  0000               	dw	0
  1870  005B3B  0000               	dw	0
  1871  005B3D  0020               	dw	32
  1872  005B3F  0020               	dw	32
  1873  005B41  0020               	dw	32
  1874  005B43  0020               	dw	32
  1875  005B45  0020               	dw	32
  1876  005B47  0000               	dw	0
  1877  005B49  0000               	dw	0
  1878  005B4B  0861               	dw	2145
  1879  005B4D  94B2               	dw	38066
  1880  005B4F  FFDF               	dw	65503
  1881  005B51  FFFF               	dw	65535
  1882  005B53  FFFF               	dw	65535
  1883  005B55  FFFF               	dw	65535
  1884  005B57  FFFF               	dw	65535
  1885  005B59  FFFF               	dw	65535
  1886  005B5B  FFFF               	dw	65535
  1887  005B5D  FFFF               	dw	65535
  1888  005B5F  EF5D               	dw	61277
  1889  005B61  630C               	dw	25356
  1890  005B63  0000               	dw	0
  1891  005B65  0020               	dw	32
  1892  005B67  0020               	dw	32
  1893  005B69  0020               	dw	32
  1894  005B6B  0020               	dw	32
  1895  005B6D  0020               	dw	32
  1896  005B6F  0000               	dw	0
  1897  005B71  0000               	dw	0
  1898  005B73  0000               	dw	0
  1899  005B75  0000               	dw	0
  1900  005B77  0020               	dw	32
  1901  005B79  0020               	dw	32
  1902  005B7B  0020               	dw	32
  1903  005B7D  0020               	dw	32
  1904  005B7F  0020               	dw	32
  1905  005B81  0020               	dw	32
  1906  005B83  0020               	dw	32
  1907  005B85  0020               	dw	32
  1908  005B87  0020               	dw	32
  1909  005B89  0020               	dw	32
  1910  005B8B  0841               	dw	2113
  1911  005B8D  0841               	dw	2113
  1912  005B8F  0020               	dw	32
  1913  005B91  0020               	dw	32
  1914  005B93  0020               	dw	32
  1915  005B95  0020               	dw	32
  1916  005B97  0000               	dw	0
  1917  005B99  0000               	dw	0
  1918  005B9B  0000               	dw	0
  1919  005B9D  4A49               	dw	19017
  1920  005B9F  FFFF               	dw	65535
  1921  005BA1  FFFF               	dw	65535
  1922  005BA3  FFFF               	dw	65535
  1923  005BA5  FFFF               	dw	65535
  1924  005BA7  FFFF               	dw	65535
  1925  005BA9  FFFF               	dw	65535
  1926  005BAB  FFFF               	dw	65535
  1927  005BAD  FFFF               	dw	65535
  1928  005BAF  FFFF               	dw	65535
  1929  005BB1  FFFF               	dw	65535
  1930  005BB3  FFFF               	dw	65535
  1931  005BB5  FFFF               	dw	65535
  1932  005BB7  4228               	dw	16936
  1933  005BB9  0000               	dw	0
  1934  005BBB  0020               	dw	32
  1935  005BBD  0020               	dw	32
  1936  005BBF  0020               	dw	32
  1937  005BC1  0020               	dw	32
  1938  005BC3  0020               	dw	32
  1939  005BC5  0000               	dw	0
  1940  005BC7  0000               	dw	0
  1941  005BC9  2104               	dw	8452
  1942  005BCB  DEDB               	dw	57051
  1943  005BCD  FFFF               	dw	65535
  1944  005BCF  FFFF               	dw	65535
  1945  005BD1  FFFF               	dw	65535
  1946  005BD3  D6BA               	dw	54970
  1947  005BD5  A534               	dw	42292
  1948  005BD7  9CD3               	dw	40147
  1949  005BD9  B596               	dw	46486
  1950  005BDB  EF7D               	dw	61309
  1951  005BDD  FFFF               	dw	65535
  1952  005BDF  FFFF               	dw	65535
  1953  005BE1  FFFF               	dw	65535
  1954  005BE3  9CF3               	dw	40179
  1955  005BE5  0841               	dw	2113
  1956  005BE7  0020               	dw	32
  1957  005BE9  0020               	dw	32
  1958  005BEB  0020               	dw	32
  1959  005BED  0000               	dw	0
  1960  005BEF  0000               	dw	0
  1961  005BF1  0000               	dw	0
  1962  005BF3  0000               	dw	0
  1963  005BF5  94B2               	dw	38066
  1964  005BF7  FFFF               	dw	65535
  1965  005BF9  FFFF               	dw	65535
  1966  005BFB  FFFF               	dw	65535
  1967  005BFD  FFFF               	dw	65535
  1968  005BFF  FFFF               	dw	65535
  1969  005C01  FFFF               	dw	65535
  1970  005C03  FFFF               	dw	65535
  1971  005C05  FFFF               	dw	65535
  1972  005C07  FFFF               	dw	65535
  1973  005C09  FFFF               	dw	65535
  1974  005C0B  F7BE               	dw	63422
  1975  005C0D  F7BE               	dw	63422
  1976  005C0F  D6BA               	dw	54970
  1977  005C11  1082               	dw	4226
  1978  005C13  0020               	dw	32
  1979  005C15  0000               	dw	0
  1980  005C17  0000               	dw	0
  1981  005C19  0000               	dw	0
  1982  005C1B  0000               	dw	0
  1983  005C1D  4A49               	dw	19017
  1984  005C1F  FFFF               	dw	65535
  1985  005C21  FFFF               	dw	65535
  1986  005C23  FFFF               	dw	65535
  1987  005C25  FFFF               	dw	65535
  1988  005C27  FFFF               	dw	65535
  1989  005C29  FFFF               	dw	65535
  1990  005C2B  FFFF               	dw	65535
  1991  005C2D  FFFF               	dw	65535
  1992  005C2F  FFFF               	dw	65535
  1993  005C31  FFFF               	dw	65535
  1994  005C33  FFFF               	dw	65535
  1995  005C35  FFFF               	dw	65535
  1996  005C37  4228               	dw	16936
  1997  005C39  0020               	dw	32
  1998  005C3B  0020               	dw	32
  1999  005C3D  0020               	dw	32
  2000  005C3F  0020               	dw	32
  2001  005C41  0020               	dw	32
  2002  005C43  0000               	dw	0
  2003  005C45  0000               	dw	0
  2004  005C47  10A2               	dw	4258
  2005  005C49  E71C               	dw	59164
  2006  005C4B  FFFF               	dw	65535
  2007  005C4D  FFFF               	dw	65535
  2008  005C4F  BDD7               	dw	48599
  2009  005C51  3186               	dw	12678
  2010  005C53  0000               	dw	0
  2011  005C55  0000               	dw	0
  2012  005C57  0000               	dw	0
  2013  005C59  0000               	dw	0
  2014  005C5B  0020               	dw	32
  2015  005C5D  5ACB               	dw	23243
  2016  005C5F  E71C               	dw	59164
  2017  005C61  F7BE               	dw	63422
  2018  005C63  F7BE               	dw	63422
  2019  005C65  9CF3               	dw	40179
  2020  005C67  0020               	dw	32
  2021  005C69  0020               	dw	32
  2022  005C6B  0000               	dw	0
  2023  005C6D  0000               	dw	0
  2024  005C6F  0000               	dw	0
  2025  005C71  0000               	dw	0
  2026  005C73  0000               	dw	0
  2027  005C75  D69A               	dw	54938
  2028  005C77  FFFF               	dw	65535
  2029  005C79  FFFF               	dw	65535
  2030  005C7B  FFFF               	dw	65535
  2031  005C7D  FFFF               	dw	65535
  2032  005C7F  FFFF               	dw	65535
  2033  005C81  FFFF               	dw	65535
  2034  005C83  FFFF               	dw	65535
  2035  005C85  FFFF               	dw	65535
  2036  005C87  FFFF               	dw	65535
  2037  005C89  F7BE               	dw	63422
  2038  005C8B  F7BE               	dw	63422
  2039  005C8D  F7BE               	dw	63422
  2040  005C8F  F7BE               	dw	63422
  2041  005C91  2945               	dw	10565
  2042  005C93  0000               	dw	0
  2043  005C95  0000               	dw	0
  2044  005C97  0000               	dw	0
  2045  005C99  0000               	dw	0
  2046  005C9B  0000               	dw	0
  2047  005C9D  4A49               	dw	19017
  2048  005C9F  FFFF               	dw	65535
  2049  005CA1  FFFF               	dw	65535
  2050  005CA3  FFFF               	dw	65535
  2051  005CA5  FFFF               	dw	65535
  2052  005CA7  FFFF               	dw	65535
  2053  005CA9  FFFF               	dw	65535
  2054  005CAB  FFFF               	dw	65535
  2055  005CAD  FFFF               	dw	65535
  2056  005CAF  FFFF               	dw	65535
  2057  005CB1  FFFF               	dw	65535
  2058  005CB3  FFFF               	dw	65535
  2059  005CB5  FFFF               	dw	65535
  2060  005CB7  4228               	dw	16936
  2061  005CB9  0020               	dw	32
  2062  005CBB  0020               	dw	32
  2063  005CBD  0020               	dw	32
  2064  005CBF  0020               	dw	32
  2065  005CC1  0000               	dw	0
  2066  005CC3  0000               	dw	0
  2067  005CC5  0000               	dw	0
  2068  005CC7  B5B6               	dw	46518
  2069  005CC9  FFFF               	dw	65535
  2070  005CCB  FFFF               	dw	65535
  2071  005CCD  8430               	dw	33840
  2072  005CCF  0000               	dw	0
  2073  005CD1  0000               	dw	0
  2074  005CD3  0000               	dw	0
  2075  005CD5  0000               	dw	0
  2076  005CD7  0000               	dw	0
  2077  005CD9  0000               	dw	0
  2078  005CDB  0000               	dw	0
  2079  005CDD  0000               	dw	0
  2080  005CDF  10A2               	dw	4258
  2081  005CE1  BDF7               	dw	48631
  2082  005CE3  F7BE               	dw	63422
  2083  005CE5  F7BE               	dw	63422
  2084  005CE7  630C               	dw	25356
  2085  005CE9  0000               	dw	0
  2086  005CEB  0000               	dw	0
  2087  005CED  0000               	dw	0
  2088  005CEF  0000               	dw	0
  2089  005CF1  0000               	dw	0
  2090  005CF3  0000               	dw	0
  2091  005CF5  2124               	dw	8484
  2092  005CF7  73AE               	dw	29614
  2093  005CF9  73AE               	dw	29614
  2094  005CFB  73AE               	dw	29614
  2095  005CFD  73AE               	dw	29614
  2096  005CFF  73AE               	dw	29614
  2097  005D01  73AE               	dw	29614
  2098  005D03  73AE               	dw	29614
  2099  005D05  73AE               	dw	29614
  2100  005D07  73AE               	dw	29614
  2101  005D09  73AE               	dw	29614
  2102  005D0B  73AE               	dw	29614
  2103  005D0D  73AE               	dw	29614
  2104  005D0F  4A69               	dw	19049
  2105  005D11  0000               	dw	0
  2106  005D13  0000               	dw	0
  2107  005D15  0000               	dw	0
  2108  005D17  0000               	dw	0
  2109  005D19  0000               	dw	0
  2110  005D1B  0000               	dw	0
  2111  005D1D  4A49               	dw	19017
  2112  005D1F  FFFF               	dw	65535
  2113  005D21  FFFF               	dw	65535
  2114  005D23  FFFF               	dw	65535
  2115  005D25  FFFF               	dw	65535
  2116  005D27  FFFF               	dw	65535
  2117  005D29  FFFF               	dw	65535
  2118  005D2B  FFFF               	dw	65535
  2119  005D2D  FFFF               	dw	65535
  2120  005D2F  FFFF               	dw	65535
  2121  005D31  FFFF               	dw	65535
  2122  005D33  FFFF               	dw	65535
  2123  005D35  F7BE               	dw	63422
  2124  005D37  4228               	dw	16936
  2125  005D39  0020               	dw	32
  2126  005D3B  0020               	dw	32
  2127  005D3D  0020               	dw	32
  2128  005D3F  0000               	dw	0
  2129  005D41  0000               	dw	0
  2130  005D43  0000               	dw	0
  2131  005D45  4228               	dw	16936
  2132  005D47  FFFF               	dw	65535
  2133  005D49  FFFF               	dw	65535
  2134  005D4B  A514               	dw	42260
  2135  005D4D  0000               	dw	0
  2136  005D4F  0000               	dw	0
  2137  005D51  0000               	dw	0
  2138  005D53  0000               	dw	0
  2139  005D55  0000               	dw	0
  2140  005D57  0000               	dw	0
  2141  005D59  0000               	dw	0
  2142  005D5B  0000               	dw	0
  2143  005D5D  0020               	dw	32
  2144  005D5F  0020               	dw	32
  2145  005D61  10A2               	dw	4258
  2146  005D63  DEDB               	dw	57051
  2147  005D65  F7BE               	dw	63422
  2148  005D67  EF5D               	dw	61277
  2149  005D69  0841               	dw	2113
  2150  005D6B  0000               	dw	0
  2151  005D6D  0000               	dw	0
  2152  005D6F  0000               	dw	0
  2153  005D71  0000               	dw	0
  2154  005D73  0000               	dw	0
  2155  005D75  0000               	dw	0
  2156  005D77  0000               	dw	0
  2157  005D79  0000               	dw	0
  2158  005D7B  0000               	dw	0
  2159  005D7D  0000               	dw	0
  2160  005D7F  0000               	dw	0
  2161  005D81  0000               	dw	0
  2162  005D83  0000               	dw	0
  2163  005D85  0020               	dw	32
  2164  005D87  0020               	dw	32
  2165  005D89  0020               	dw	32
  2166  005D8B  0020               	dw	32
  2167  005D8D  0020               	dw	32
  2168  005D8F  0000               	dw	0
  2169  005D91  0000               	dw	0
  2170  005D93  0000               	dw	0
  2171  005D95  0000               	dw	0
  2172  005D97  0000               	dw	0
  2173  005D99  0000               	dw	0
  2174  005D9B  0000               	dw	0
  2175  005D9D  4A49               	dw	19017
  2176  005D9F  FFFF               	dw	65535
  2177  005DA1  FFFF               	dw	65535
  2178  005DA3  FFFF               	dw	65535
  2179  005DA5  FFFF               	dw	65535
  2180  005DA7  FFFF               	dw	65535
  2181  005DA9  FFFF               	dw	65535
  2182  005DAB  FFFF               	dw	65535
  2183  005DAD  FFFF               	dw	65535
  2184  005DAF  FFFF               	dw	65535
  2185  005DB1  FFFF               	dw	65535
  2186  005DB3  FFDF               	dw	65503
  2187  005DB5  F7BE               	dw	63422
  2188  005DB7  4228               	dw	16936
  2189  005DB9  0020               	dw	32
  2190  005DBB  0020               	dw	32
  2191  005DBD  0000               	dw	0
  2192  005DBF  0000               	dw	0
  2193  005DC1  0000               	dw	0
  2194  005DC3  0000               	dw	0
  2195  005DC5  B596               	dw	46486
  2196  005DC7  FFFF               	dw	65535
  2197  005DC9  F79E               	dw	63390
  2198  005DCB  1082               	dw	4226
  2199  005DCD  0000               	dw	0
  2200  005DCF  0000               	dw	0
  2201  005DD1  0000               	dw	0
  2202  005DD3  0000               	dw	0
  2203  005DD5  0000               	dw	0
  2204  005DD7  0000               	dw	0
  2205  005DD9  0000               	dw	0
  2206  005DDB  0020               	dw	32
  2207  005DDD  0020               	dw	32
  2208  005DDF  0020               	dw	32
  2209  005DE1  0020               	dw	32
  2210  005DE3  52AA               	dw	21162
  2211  005DE5  FFFF               	dw	65535
  2212  005DE7  FFFF               	dw	65535
  2213  005DE9  630C               	dw	25356
  2214  005DEB  0000               	dw	0
  2215  005DED  0000               	dw	0
  2216  005DEF  0000               	dw	0
  2217  005DF1  0000               	dw	0
  2218  005DF3  0000               	dw	0
  2219  005DF5  0000               	dw	0
  2220  005DF7  0000               	dw	0
  2221  005DF9  0000               	dw	0
  2222  005DFB  0000               	dw	0
  2223  005DFD  0000               	dw	0
  2224  005DFF  0000               	dw	0
  2225  005E01  0000               	dw	0
  2226  005E03  0020               	dw	32
  2227  005E05  0020               	dw	32
  2228  005E07  0020               	dw	32
  2229  005E09  0020               	dw	32
  2230  005E0B  0020               	dw	32
  2231  005E0D  0000               	dw	0
  2232  005E0F  0000               	dw	0
  2233  005E11  0000               	dw	0
  2234  005E13  0000               	dw	0
  2235  005E15  0000               	dw	0
  2236  005E17  0000               	dw	0
  2237  005E19  0000               	dw	0
  2238  005E1B  0000               	dw	0
  2239  005E1D  4A49               	dw	19017
  2240  005E1F  FFFF               	dw	65535
  2241  005E21  FFFF               	dw	65535
  2242  005E23  FFFF               	dw	65535
  2243  005E25  FFFF               	dw	65535
  2244  005E27  FFFF               	dw	65535
  2245  005E29  FFFF               	dw	65535
  2246  005E2B  FFFF               	dw	65535
  2247  005E2D  FFFF               	dw	65535
  2248  005E2F  FFFF               	dw	65535
  2249  005E31  FFDF               	dw	65503
  2250  005E33  FFDF               	dw	65503
  2251  005E35  F7BE               	dw	63422
  2252  005E37  4228               	dw	16936
  2253  005E39  0020               	dw	32
  2254  005E3B  0000               	dw	0
  2255  005E3D  0000               	dw	0
  2256  005E3F  0000               	dw	0
  2257  005E41  0000               	dw	0
  2258  005E43  0020               	dw	32
  2259  005E45  F7BE               	dw	63422
  2260  005E47  FFFF               	dw	65535
  2261  005E49  9CD3               	dw	40147
  2262  005E4B  0000               	dw	0
  2263  005E4D  0000               	dw	0
  2264  005E4F  0000               	dw	0
  2265  005E51  0000               	dw	0
  2266  005E53  0000               	dw	0
  2267  005E55  0000               	dw	0
  2268  005E57  0000               	dw	0
  2269  005E59  0020               	dw	32
  2270  005E5B  0020               	dw	32
  2271  005E5D  0020               	dw	32
  2272  005E5F  0020               	dw	32
  2273  005E61  0020               	dw	32
  2274  005E63  0020               	dw	32
  2275  005E65  EF5D               	dw	61277
  2276  005E67  FFFF               	dw	65535
  2277  005E69  AD55               	dw	44373
  2278  005E6B  0000               	dw	0
  2279  005E6D  0000               	dw	0
  2280  005E6F  0000               	dw	0
  2281  005E71  0000               	dw	0
  2282  005E73  0000               	dw	0
  2283  005E75  0000               	dw	0
  2284  005E77  0000               	dw	0
  2285  005E79  0000               	dw	0
  2286  005E7B  0000               	dw	0
  2287  005E7D  0000               	dw	0
  2288  005E7F  0000               	dw	0
  2289  005E81  0020               	dw	32
  2290  005E83  0020               	dw	32
  2291  005E85  0020               	dw	32
  2292  005E87  0020               	dw	32
  2293  005E89  0020               	dw	32
  2294  005E8B  0000               	dw	0
  2295  005E8D  0000               	dw	0
  2296  005E8F  0000               	dw	0
  2297  005E91  0000               	dw	0
  2298  005E93  0000               	dw	0
  2299  005E95  0000               	dw	0
  2300  005E97  0000               	dw	0
  2301  005E99  0000               	dw	0
  2302  005E9B  0000               	dw	0
  2303  005E9D  4A49               	dw	19017
  2304  005E9F  FFFF               	dw	65535
  2305  005EA1  FFFF               	dw	65535
  2306  005EA3  FFFF               	dw	65535
  2307  005EA5  FFFF               	dw	65535
  2308  005EA7  FFFF               	dw	65535
  2309  005EA9  FFFF               	dw	65535
  2310  005EAB  FFFF               	dw	65535
  2311  005EAD  FFFF               	dw	65535
  2312  005EAF  FFDF               	dw	65503
  2313  005EB1  FFDF               	dw	65503
  2314  005EB3  FFDF               	dw	65503
  2315  005EB5  F7BE               	dw	63422
  2316  005EB7  4228               	dw	16936
  2317  005EB9  0000               	dw	0
  2318  005EBB  0000               	dw	0
  2319  005EBD  0000               	dw	0
  2320  005EBF  0000               	dw	0
  2321  005EC1  0000               	dw	0
  2322  005EC3  2945               	dw	10565
  2323  005EC5  FFFF               	dw	65535
  2324  005EC7  FFFF               	dw	65535
  2325  005EC9  5ACB               	dw	23243
  2326  005ECB  0000               	dw	0
  2327  005ECD  0000               	dw	0
  2328  005ECF  0000               	dw	0
  2329  005ED1  0000               	dw	0
  2330  005ED3  0000               	dw	0
  2331  005ED5  0000               	dw	0
  2332  005ED7  0020               	dw	32
  2333  005ED9  0020               	dw	32
  2334  005EDB  0020               	dw	32
  2335  005EDD  0020               	dw	32
  2336  005EDF  0020               	dw	32
  2337  005EE1  0000               	dw	0
  2338  005EE3  0000               	dw	0
  2339  005EE5  AD75               	dw	44405
  2340  005EE7  FFFF               	dw	65535
  2341  005EE9  DEDB               	dw	57051
  2342  005EEB  0000               	dw	0
  2343  005EED  0000               	dw	0
  2344  005EEF  0000               	dw	0
  2345  005EF1  0000               	dw	0
  2346  005EF3  0000               	dw	0
  2347  005EF5  39C7               	dw	14791
  2348  005EF7  8C71               	dw	35953
  2349  005EF9  8C71               	dw	35953
  2350  005EFB  8C71               	dw	35953
  2351  005EFD  8C71               	dw	35953
  2352  005EFF  8C51               	dw	35921
  2353  005F01  8C51               	dw	35921
  2354  005F03  8C51               	dw	35921
  2355  005F05  8C51               	dw	35921
  2356  005F07  8C51               	dw	35921
  2357  005F09  8C71               	dw	35953
  2358  005F0B  8C71               	dw	35953
  2359  005F0D  8C71               	dw	35953
  2360  005F0F  632C               	dw	25388
  2361  005F11  0000               	dw	0
  2362  005F13  0000               	dw	0
  2363  005F15  0000               	dw	0
  2364  005F17  0000               	dw	0
  2365  005F19  0000               	dw	0
  2366  005F1B  0000               	dw	0
  2367  005F1D  4A49               	dw	19017
  2368  005F1F  FFFF               	dw	65535
  2369  005F21  FFFF               	dw	65535
  2370  005F23  FFFF               	dw	65535
  2371  005F25  FFFF               	dw	65535
  2372  005F27  FFDF               	dw	65503
  2373  005F29  FFFF               	dw	65535
  2374  005F2B  FFFF               	dw	65535
  2375  005F2D  FFFF               	dw	65535
  2376  005F2F  FFDF               	dw	65503
  2377  005F31  FFDF               	dw	65503
  2378  005F33  FFDF               	dw	65503
  2379  005F35  F7BE               	dw	63422
  2380  005F37  4228               	dw	16936
  2381  005F39  0000               	dw	0
  2382  005F3B  0000               	dw	0
  2383  005F3D  0000               	dw	0
  2384  005F3F  0000               	dw	0
  2385  005F41  0000               	dw	0
  2386  005F43  39E7               	dw	14823
  2387  005F45  FFFF               	dw	65535
  2388  005F47  FFFF               	dw	65535
  2389  005F49  4208               	dw	16904
  2390  005F4B  0000               	dw	0
  2391  005F4D  0000               	dw	0
  2392  005F4F  0000               	dw	0
  2393  005F51  0000               	dw	0
  2394  005F53  0000               	dw	0
  2395  005F55  0020               	dw	32
  2396  005F57  0020               	dw	32
  2397  005F59  0020               	dw	32
  2398  005F5B  0020               	dw	32
  2399  005F5D  0020               	dw	32
  2400  005F5F  0000               	dw	0
  2401  005F61  0000               	dw	0
  2402  005F63  0000               	dw	0
  2403  005F65  94B2               	dw	38066
  2404  005F67  FFFF               	dw	65535
  2405  005F69  EF5D               	dw	61277
  2406  005F6B  0000               	dw	0
  2407  005F6D  0000               	dw	0
  2408  005F6F  0000               	dw	0
  2409  005F71  0000               	dw	0
  2410  005F73  0000               	dw	0
  2411  005F75  D6BA               	dw	54970
  2412  005F77  FFFF               	dw	65535
  2413  005F79  FFFF               	dw	65535
  2414  005F7B  FFFF               	dw	65535
  2415  005F7D  F7BE               	dw	63422
  2416  005F7F  F7BE               	dw	63422
  2417  005F81  F7BE               	dw	63422
  2418  005F83  F7BE               	dw	63422
  2419  005F85  F7BE               	dw	63422
  2420  005F87  FFFF               	dw	65535
  2421  005F89  FFFF               	dw	65535
  2422  005F8B  FFFF               	dw	65535
  2423  005F8D  FFFF               	dw	65535
  2424  005F8F  FFFF               	dw	65535
  2425  005F91  2965               	dw	10597
  2426  005F93  0000               	dw	0
  2427  005F95  0000               	dw	0
  2428  005F97  0000               	dw	0
  2429  005F99  0000               	dw	0
  2430  005F9B  0000               	dw	0
  2431  005F9D  4A49               	dw	19017
  2432  005F9F  FFFF               	dw	65535
  2433  005FA1  FFFF               	dw	65535
  2434  005FA3  FFFF               	dw	65535
  2435  005FA5  FFDF               	dw	65503
  2436  005FA7  FFDF               	dw	65503
  2437  005FA9  FFFF               	dw	65535
  2438  005FAB  FFFF               	dw	65535
  2439  005FAD  FFFF               	dw	65535
  2440  005FAF  FFDF               	dw	65503
  2441  005FB1  FFDF               	dw	65503
  2442  005FB3  FFDF               	dw	65503
  2443  005FB5  FFFF               	dw	65535
  2444  005FB7  4228               	dw	16936
  2445  005FB9  0000               	dw	0
  2446  005FBB  0000               	dw	0
  2447  005FBD  0000               	dw	0
  2448  005FBF  0000               	dw	0
  2449  005FC1  0000               	dw	0
  2450  005FC3  31A6               	dw	12710
  2451  005FC5  FFFF               	dw	65535
  2452  005FC7  FFFF               	dw	65535
  2453  005FC9  4A69               	dw	19049
  2454  005FCB  0000               	dw	0
  2455  005FCD  0000               	dw	0
  2456  005FCF  0000               	dw	0
  2457  005FD1  0000               	dw	0
  2458  005FD3  0020               	dw	32
  2459  005FD5  0020               	dw	32
  2460  005FD7  0020               	dw	32
  2461  005FD9  0020               	dw	32
  2462  005FDB  0020               	dw	32
  2463  005FDD  0000               	dw	0
  2464  005FDF  0000               	dw	0
  2465  005FE1  0000               	dw	0
  2466  005FE3  0000               	dw	0
  2467  005FE5  A514               	dw	42260
  2468  005FE7  FFFF               	dw	65535
  2469  005FE9  E71C               	dw	59164
  2470  005FEB  0000               	dw	0
  2471  005FED  0000               	dw	0
  2472  005FEF  0000               	dw	0
  2473  005FF1  0000               	dw	0
  2474  005FF3  0000               	dw	0
  2475  005FF5  8410               	dw	33808
  2476  005FF7  EF7D               	dw	61309
  2477  005FF9  EF7D               	dw	61309
  2478  005FFB  E73C               	dw	59196
  2479  005FFD  E73C               	dw	59196
  2480  005FFF  E73C               	dw	59196
  2481  006001  E73C               	dw	59196
  2482  006003  E73C               	dw	59196
  2483  006005  EF7D               	dw	61309
  2484  006007  EF7D               	dw	61309
  2485  006009  EF7D               	dw	61309
  2486  00600B  EF7D               	dw	61309
  2487  00600D  EF7D               	dw	61309
  2488  00600F  C638               	dw	50744
  2489  006011  0841               	dw	2113
  2490  006013  0000               	dw	0
  2491  006015  0000               	dw	0
  2492  006017  0000               	dw	0
  2493  006019  0000               	dw	0
  2494  00601B  0000               	dw	0
  2495  00601D  4A49               	dw	19017
  2496  00601F  FFFF               	dw	65535
  2497  006021  FFFF               	dw	65535
  2498  006023  FFDF               	dw	65503
  2499  006025  FFDF               	dw	65503
  2500  006027  FFDF               	dw	65503
  2501  006029  FFFF               	dw	65535
  2502  00602B  FFFF               	dw	65535
  2503  00602D  FFFF               	dw	65535
  2504  00602F  FFDF               	dw	65503
  2505  006031  FFDF               	dw	65503
  2506  006033  FFFF               	dw	65535
  2507  006035  FFFF               	dw	65535
  2508  006037  4228               	dw	16936
  2509  006039  0000               	dw	0
  2510  00603B  0000               	dw	0
  2511  00603D  0000               	dw	0
  2512  00603F  0000               	dw	0
  2513  006041  0000               	dw	0
  2514  006043  1082               	dw	4226
  2515  006045  FFFF               	dw	65535
  2516  006047  FFFF               	dw	65535
  2517  006049  7BEF               	dw	31727
  2518  00604B  0000               	dw	0
  2519  00604D  0000               	dw	0
  2520  00604F  0000               	dw	0
  2521  006051  0020               	dw	32
  2522  006053  0020               	dw	32
  2523  006055  0020               	dw	32
  2524  006057  0020               	dw	32
  2525  006059  0020               	dw	32
  2526  00605B  0000               	dw	0
  2527  00605D  0000               	dw	0
  2528  00605F  0000               	dw	0
  2529  006061  0000               	dw	0
  2530  006063  0000               	dw	0
  2531  006065  D69A               	dw	54938
  2532  006067  FFFF               	dw	65535
  2533  006069  BDF7               	dw	48631
  2534  00606B  0000               	dw	0
  2535  00606D  0000               	dw	0
  2536  00606F  0000               	dw	0
  2537  006071  0000               	dw	0
  2538  006073  0000               	dw	0
  2539  006075  0000               	dw	0
  2540  006077  0000               	dw	0
  2541  006079  0020               	dw	32
  2542  00607B  0020               	dw	32
  2543  00607D  0020               	dw	32
  2544  00607F  0020               	dw	32
  2545  006081  0020               	dw	32
  2546  006083  0000               	dw	0
  2547  006085  0000               	dw	0
  2548  006087  0000               	dw	0
  2549  006089  0000               	dw	0
  2550  00608B  0000               	dw	0
  2551  00608D  0000               	dw	0
  2552  00608F  0000               	dw	0
  2553  006091  0000               	dw	0
  2554  006093  0000               	dw	0
  2555  006095  0000               	dw	0
  2556  006097  0000               	dw	0
  2557  006099  0000               	dw	0
  2558  00609B  0000               	dw	0
  2559  00609D  4A49               	dw	19017
  2560  00609F  FFFF               	dw	65535
  2561  0060A1  F7BE               	dw	63422
  2562  0060A3  FFDF               	dw	65503
  2563  0060A5  FFDF               	dw	65503
  2564  0060A7  FFDF               	dw	65503
  2565  0060A9  FFFF               	dw	65535
  2566  0060AB  FFFF               	dw	65535
  2567  0060AD  FFFF               	dw	65535
  2568  0060AF  FFDF               	dw	65503
  2569  0060B1  FFFF               	dw	65535
  2570  0060B3  FFFF               	dw	65535
  2571  0060B5  FFFF               	dw	65535
  2572  0060B7  4228               	dw	16936
  2573  0060B9  0000               	dw	0
  2574  0060BB  0000               	dw	0
  2575  0060BD  0000               	dw	0
  2576  0060BF  0000               	dw	0
  2577  0060C1  0000               	dw	0
  2578  0060C3  0000               	dw	0
  2579  0060C5  D69A               	dw	54938
  2580  0060C7  FFFF               	dw	65535
  2581  0060C9  D6BA               	dw	54970
  2582  0060CB  0000               	dw	0
  2583  0060CD  0000               	dw	0
  2584  0060CF  0020               	dw	32
  2585  0060D1  0020               	dw	32
  2586  0060D3  0020               	dw	32
  2587  0060D5  0020               	dw	32
  2588  0060D7  0020               	dw	32
  2589  0060D9  0000               	dw	0
  2590  0060DB  0000               	dw	0
  2591  0060DD  0000               	dw	0
  2592  0060DF  0000               	dw	0
  2593  0060E1  0000               	dw	0
  2594  0060E3  2945               	dw	10565
  2595  0060E5  FFFF               	dw	65535
  2596  0060E7  FFFF               	dw	65535
  2597  0060E9  7BEF               	dw	31727
  2598  0060EB  0000               	dw	0
  2599  0060ED  0000               	dw	0
  2600  0060EF  0000               	dw	0
  2601  0060F1  0000               	dw	0
  2602  0060F3  0000               	dw	0
  2603  0060F5  0000               	dw	0
  2604  0060F7  0020               	dw	32
  2605  0060F9  0020               	dw	32
  2606  0060FB  0020               	dw	32
  2607  0060FD  0020               	dw	32
  2608  0060FF  0020               	dw	32
  2609  006101  0000               	dw	0
  2610  006103  0000               	dw	0
  2611  006105  0000               	dw	0
  2612  006107  0000               	dw	0
  2613  006109  0000               	dw	0
  2614  00610B  0000               	dw	0
  2615  00610D  0000               	dw	0
  2616  00610F  0000               	dw	0
  2617  006111  0000               	dw	0
  2618  006113  0000               	dw	0
  2619  006115  0000               	dw	0
  2620  006117  0000               	dw	0
  2621  006119  0000               	dw	0
  2622  00611B  0000               	dw	0
  2623  00611D  4A49               	dw	19017
  2624  00611F  F7BE               	dw	63422
  2625  006121  F7BE               	dw	63422
  2626  006123  FFDF               	dw	65503
  2627  006125  FFDF               	dw	65503
  2628  006127  FFDF               	dw	65503
  2629  006129  FFFF               	dw	65535
  2630  00612B  FFFF               	dw	65535
  2631  00612D  FFFF               	dw	65535
  2632  00612F  FFFF               	dw	65535
  2633  006131  FFFF               	dw	65535
  2634  006133  FFFF               	dw	65535
  2635  006135  FFFF               	dw	65535
  2636  006137  4228               	dw	16936
  2637  006139  0000               	dw	0
  2638  00613B  0000               	dw	0
  2639  00613D  0000               	dw	0
  2640  00613F  0000               	dw	0
  2641  006141  0000               	dw	0
  2642  006143  0000               	dw	0
  2643  006145  738E               	dw	29582
  2644  006147  FFFF               	dw	65535
  2645  006149  FFFF               	dw	65535
  2646  00614B  5AEB               	dw	23275
  2647  00614D  0020               	dw	32
  2648  00614F  0020               	dw	32
  2649  006151  0020               	dw	32
  2650  006153  0020               	dw	32
  2651  006155  0020               	dw	32
  2652  006157  0000               	dw	0
  2653  006159  0000               	dw	0
  2654  00615B  0000               	dw	0
  2655  00615D  0000               	dw	0
  2656  00615F  0000               	dw	0
  2657  006161  0000               	dw	0
  2658  006163  B596               	dw	46486
  2659  006165  FFFF               	dw	65535
  2660  006167  FFFF               	dw	65535
  2661  006169  2104               	dw	8452
  2662  00616B  0000               	dw	0
  2663  00616D  0000               	dw	0
  2664  00616F  0000               	dw	0
  2665  006171  0000               	dw	0
  2666  006173  0000               	dw	0
  2667  006175  0020               	dw	32
  2668  006177  0020               	dw	32
  2669  006179  0020               	dw	32
  2670  00617B  0020               	dw	32
  2671  00617D  0020               	dw	32
  2672  00617F  0000               	dw	0
  2673  006181  0000               	dw	0
  2674  006183  0000               	dw	0
  2675  006185  0000               	dw	0
  2676  006187  0000               	dw	0
  2677  006189  0000               	dw	0
  2678  00618B  0000               	dw	0
  2679  00618D  0000               	dw	0
  2680  00618F  0000               	dw	0
  2681  006191  0000               	dw	0
  2682  006193  0000               	dw	0
  2683  006195  0000               	dw	0
  2684  006197  0000               	dw	0
  2685  006199  0000               	dw	0
  2686  00619B  0000               	dw	0
  2687  00619D  4A49               	dw	19017
  2688  00619F  F7BE               	dw	63422
  2689  0061A1  F7BE               	dw	63422
  2690  0061A3  FFDF               	dw	65503
  2691  0061A5  FFDF               	dw	65503
  2692  0061A7  FFFF               	dw	65535
  2693  0061A9  FFFF               	dw	65535
  2694  0061AB  FFFF               	dw	65535
  2695  0061AD  FFFF               	dw	65535
  2696  0061AF  FFFF               	dw	65535
  2697  0061B1  FFFF               	dw	65535
  2698  0061B3  FFFF               	dw	65535
  2699  0061B5  FFFF               	dw	65535
  2700  0061B7  4228               	dw	16936
  2701  0061B9  0000               	dw	0
  2702  0061BB  0000               	dw	0
  2703  0061BD  0000               	dw	0
  2704  0061BF  0000               	dw	0
  2705  0061C1  0000               	dw	0
  2706  0061C3  0000               	dw	0
  2707  0061C5  0861               	dw	2145
  2708  0061C7  E73C               	dw	59196
  2709  0061C9  FFFF               	dw	65535
  2710  0061CB  EF5D               	dw	61277
  2711  0061CD  31A6               	dw	12710
  2712  0061CF  0020               	dw	32
  2713  0061D1  0020               	dw	32
  2714  0061D3  0020               	dw	32
  2715  0061D5  0000               	dw	0
  2716  0061D7  0000               	dw	0
  2717  0061D9  0000               	dw	0
  2718  0061DB  0000               	dw	0
  2719  0061DD  0000               	dw	0
  2720  0061DF  0000               	dw	0
  2721  0061E1  7BCF               	dw	31695
  2722  0061E3  FFFF               	dw	65535
  2723  0061E5  FFFF               	dw	65535
  2724  0061E7  9CF3               	dw	40179
  2725  0061E9  0000               	dw	0
  2726  0061EB  0000               	dw	0
  2727  0061ED  0000               	dw	0
  2728  0061EF  0000               	dw	0
  2729  0061F1  0000               	dw	0
  2730  0061F3  0020               	dw	32
  2731  0061F5  0020               	dw	32
  2732  0061F7  18C3               	dw	6339
  2733  0061F9  18C3               	dw	6339
  2734  0061FB  18C3               	dw	6339
  2735  0061FD  18C3               	dw	6339
  2736  0061FF  10A2               	dw	4258
  2737  006201  10A2               	dw	4258
  2738  006203  10A2               	dw	4258
  2739  006205  10A2               	dw	4258
  2740  006207  10A2               	dw	4258
  2741  006209  10A2               	dw	4258
  2742  00620B  10A2               	dw	4258
  2743  00620D  10A2               	dw	4258
  2744  00620F  0020               	dw	32
  2745  006211  0000               	dw	0
  2746  006213  0000               	dw	0
  2747  006215  0000               	dw	0
  2748  006217  0000               	dw	0
  2749  006219  0000               	dw	0
  2750  00621B  0020               	dw	32
  2751  00621D  4A49               	dw	19017
  2752  00621F  F7BE               	dw	63422
  2753  006221  F7BE               	dw	63422
  2754  006223  FFDF               	dw	65503
  2755  006225  FFFF               	dw	65535
  2756  006227  FFFF               	dw	65535
  2757  006229  FFFF               	dw	65535
  2758  00622B  FFFF               	dw	65535
  2759  00622D  FFFF               	dw	65535
  2760  00622F  FFFF               	dw	65535
  2761  006231  FFFF               	dw	65535
  2762  006233  FFFF               	dw	65535
  2763  006235  FFFF               	dw	65535
  2764  006237  4228               	dw	16936
  2765  006239  0000               	dw	0
  2766  00623B  0000               	dw	0
  2767  00623D  0000               	dw	0
  2768  00623F  0000               	dw	0
  2769  006241  0000               	dw	0
  2770  006243  0000               	dw	0
  2771  006245  0000               	dw	0
  2772  006247  4A49               	dw	19017
  2773  006249  F79E               	dw	63390
  2774  00624B  F7BE               	dw	63422
  2775  00624D  E73C               	dw	59196
  2776  00624F  5ACB               	dw	23243
  2777  006251  0020               	dw	32
  2778  006253  0000               	dw	0
  2779  006255  0000               	dw	0
  2780  006257  0000               	dw	0
  2781  006259  0000               	dw	0
  2782  00625B  0000               	dw	0
  2783  00625D  0861               	dw	2145
  2784  00625F  94B2               	dw	38066
  2785  006261  FFFF               	dw	65535
  2786  006263  FFFF               	dw	65535
  2787  006265  E71C               	dw	59164
  2788  006267  1082               	dw	4226
  2789  006269  0000               	dw	0
  2790  00626B  0000               	dw	0
  2791  00626D  0000               	dw	0
  2792  00626F  0000               	dw	0
  2793  006271  0020               	dw	32
  2794  006273  0020               	dw	32
  2795  006275  9CF3               	dw	40179
  2796  006277  F7BE               	dw	63422
  2797  006279  F7BE               	dw	63422
  2798  00627B  FFFF               	dw	65535
  2799  00627D  FFFF               	dw	65535
  2800  00627F  FFFF               	dw	65535
  2801  006281  FFFF               	dw	65535
  2802  006283  FFFF               	dw	65535
  2803  006285  FFFF               	dw	65535
  2804  006287  FFFF               	dw	65535
  2805  006289  FFFF               	dw	65535
  2806  00628B  FFFF               	dw	65535
  2807  00628D  FFFF               	dw	65535
  2808  00628F  EF5D               	dw	61277
  2809  006291  10A2               	dw	4258
  2810  006293  0000               	dw	0
  2811  006295  0000               	dw	0
  2812  006297  0000               	dw	0
  2813  006299  0020               	dw	32
  2814  00629B  0020               	dw	32
  2815  00629D  4A49               	dw	19017
  2816  00629F  F7BE               	dw	63422
  2817  0062A1  F7BE               	dw	63422
  2818  0062A3  FFFF               	dw	65535
  2819  0062A5  FFFF               	dw	65535
  2820  0062A7  FFFF               	dw	65535
  2821  0062A9  FFFF               	dw	65535
  2822  0062AB  FFFF               	dw	65535
  2823  0062AD  FFFF               	dw	65535
  2824  0062AF  FFFF               	dw	65535
  2825  0062B1  FFFF               	dw	65535
  2826  0062B3  FFFF               	dw	65535
  2827  0062B5  FFFF               	dw	65535
  2828  0062B7  4228               	dw	16936
  2829  0062B9  0000               	dw	0
  2830  0062BB  0000               	dw	0
  2831  0062BD  0000               	dw	0
  2832  0062BF  0000               	dw	0
  2833  0062C1  0000               	dw	0
  2834  0062C3  0000               	dw	0
  2835  0062C5  0000               	dw	0
  2836  0062C7  0020               	dw	32
  2837  0062C9  630C               	dw	25356
  2838  0062CB  F79E               	dw	63390
  2839  0062CD  F7BE               	dw	63422
  2840  0062CF  F7BE               	dw	63422
  2841  0062D1  D69A               	dw	54938
  2842  0062D3  7BCF               	dw	31695
  2843  0062D5  4A49               	dw	19017
  2844  0062D7  39E7               	dw	14823
  2845  0062D9  52AA               	dw	21162
  2846  0062DB  9492               	dw	38034
  2847  0062DD  EF7D               	dw	61309
  2848  0062DF  FFFF               	dw	65535
  2849  0062E1  FFFF               	dw	65535
  2850  0062E3  E73C               	dw	59196
  2851  0062E5  2945               	dw	10565
  2852  0062E7  0000               	dw	0
  2853  0062E9  0000               	dw	0
  2854  0062EB  0000               	dw	0
  2855  0062ED  0000               	dw	0
  2856  0062EF  0020               	dw	32
  2857  0062F1  0020               	dw	32
  2858  0062F3  0020               	dw	32
  2859  0062F5  C638               	dw	50744
  2860  0062F7  F7BE               	dw	63422
  2861  0062F9  FFFF               	dw	65535
  2862  0062FB  FFFF               	dw	65535
  2863  0062FD  FFFF               	dw	65535
  2864  0062FF  FFFF               	dw	65535
  2865  006301  FFFF               	dw	65535
  2866  006303  FFFF               	dw	65535
  2867  006305  FFFF               	dw	65535
  2868  006307  FFFF               	dw	65535
  2869  006309  FFFF               	dw	65535
  2870  00630B  FFFF               	dw	65535
  2871  00630D  FFFF               	dw	65535
  2872  00630F  FFFF               	dw	65535
  2873  006311  2124               	dw	8484
  2874  006313  0000               	dw	0
  2875  006315  0000               	dw	0
  2876  006317  0020               	dw	32
  2877  006319  0020               	dw	32
  2878  00631B  0020               	dw	32
  2879  00631D  4A49               	dw	19017
  2880  00631F  F7BE               	dw	63422
  2881  006321  FFFF               	dw	65535
  2882  006323  FFFF               	dw	65535
  2883  006325  FFFF               	dw	65535
  2884  006327  FFFF               	dw	65535
  2885  006329  FFFF               	dw	65535
  2886  00632B  FFFF               	dw	65535
  2887  00632D  FFFF               	dw	65535
  2888  00632F  FFFF               	dw	65535
  2889  006331  FFFF               	dw	65535
  2890  006333  FFFF               	dw	65535
  2891  006335  FFFF               	dw	65535
  2892  006337  4228               	dw	16936
  2893  006339  0000               	dw	0
  2894  00633B  0000               	dw	0
  2895  00633D  0000               	dw	0
  2896  00633F  0000               	dw	0
  2897  006341  0000               	dw	0
  2898  006343  0000               	dw	0
  2899  006345  0020               	dw	32
  2900  006347  0020               	dw	32
  2901  006349  0020               	dw	32
  2902  00634B  4A49               	dw	19017
  2903  00634D  DEFB               	dw	57083
  2904  00634F  FFFF               	dw	65535
  2905  006351  FFFF               	dw	65535
  2906  006353  FFFF               	dw	65535
  2907  006355  FFFF               	dw	65535
  2908  006357  FFFF               	dw	65535
  2909  006359  FFFF               	dw	65535
  2910  00635B  FFFF               	dw	65535
  2911  00635D  FFFF               	dw	65535
  2912  00635F  FFFF               	dw	65535
  2913  006361  BDF7               	dw	48631
  2914  006363  18E3               	dw	6371
  2915  006365  0000               	dw	0
  2916  006367  0000               	dw	0
  2917  006369  0000               	dw	0
  2918  00636B  0000               	dw	0
  2919  00636D  0020               	dw	32
  2920  00636F  0020               	dw	32
  2921  006371  0020               	dw	32
  2922  006373  0020               	dw	32
  2923  006375  18E3               	dw	6371
  2924  006377  632C               	dw	25388
  2925  006379  632C               	dw	25388
  2926  00637B  632C               	dw	25388
  2927  00637D  632C               	dw	25388
  2928  00637F  632C               	dw	25388
  2929  006381  632C               	dw	25388
  2930  006383  632C               	dw	25388
  2931  006385  632C               	dw	25388
  2932  006387  632C               	dw	25388
  2933  006389  632C               	dw	25388
  2934  00638B  632C               	dw	25388
  2935  00638D  632C               	dw	25388
  2936  00638F  39E7               	dw	14823
  2937  006391  0000               	dw	0
  2938  006393  0000               	dw	0
  2939  006395  0020               	dw	32
  2940  006397  0020               	dw	32
  2941  006399  0020               	dw	32
  2942  00639B  0020               	dw	32
  2943  00639D  4A49               	dw	19017
  2944  00639F  FFFF               	dw	65535
  2945  0063A1  FFFF               	dw	65535
  2946  0063A3  FFFF               	dw	65535
  2947  0063A5  FFFF               	dw	65535
  2948  0063A7  FFFF               	dw	65535
  2949  0063A9  FFFF               	dw	65535
  2950  0063AB  FFFF               	dw	65535
  2951  0063AD  FFFF               	dw	65535
  2952  0063AF  FFFF               	dw	65535
  2953  0063B1  FFFF               	dw	65535
  2954  0063B3  FFFF               	dw	65535
  2955  0063B5  FFFF               	dw	65535
  2956  0063B7  4228               	dw	16936
  2957  0063B9  0000               	dw	0
  2958  0063BB  0000               	dw	0
  2959  0063BD  0000               	dw	0
  2960  0063BF  0000               	dw	0
  2961  0063C1  0000               	dw	0
  2962  0063C3  0020               	dw	32
  2963  0063C5  0020               	dw	32
  2964  0063C7  0020               	dw	32
  2965  0063C9  0020               	dw	32
  2966  0063CB  0020               	dw	32
  2967  0063CD  0861               	dw	2145
  2968  0063CF  73AE               	dw	29614
  2969  0063D1  D6BA               	dw	54970
  2970  0063D3  FFFF               	dw	65535
  2971  0063D5  FFFF               	dw	65535
  2972  0063D7  FFFF               	dw	65535
  2973  0063D9  FFFF               	dw	65535
  2974  0063DB  FFDF               	dw	65503
  2975  0063DD  BDD7               	dw	48599
  2976  0063DF  4A69               	dw	19049
  2977  0063E1  0000               	dw	0
  2978  0063E3  0000               	dw	0
  2979  0063E5  0000               	dw	0
  2980  0063E7  0000               	dw	0
  2981  0063E9  0000               	dw	0
  2982  0063EB  0020               	dw	32
  2983  0063ED  0020               	dw	32
  2984  0063EF  0020               	dw	32
  2985  0063F1  0020               	dw	32
  2986  0063F3  0020               	dw	32
  2987  0063F5  0000               	dw	0
  2988  0063F7  0000               	dw	0
  2989  0063F9  0000               	dw	0
  2990  0063FB  0000               	dw	0
  2991  0063FD  0000               	dw	0
  2992  0063FF  0000               	dw	0
  2993  006401  0000               	dw	0
  2994  006403  0000               	dw	0
  2995  006405  0000               	dw	0
  2996  006407  0000               	dw	0
  2997  006409  0000               	dw	0
  2998  00640B  0000               	dw	0
  2999  00640D  0000               	dw	0
  3000  00640F  0000               	dw	0
  3001  006411  0000               	dw	0
  3002  006413  0020               	dw	32
  3003  006415  0020               	dw	32
  3004  006417  0020               	dw	32
  3005  006419  0020               	dw	32
  3006  00641B  0020               	dw	32
  3007  00641D  4A49               	dw	19017
  3008  00641F  FFFF               	dw	65535
  3009  006421  FFFF               	dw	65535
  3010  006423  FFFF               	dw	65535
  3011  006425  FFFF               	dw	65535
  3012  006427  FFFF               	dw	65535
  3013  006429  FFFF               	dw	65535
  3014  00642B  FFFF               	dw	65535
  3015  00642D  FFFF               	dw	65535
  3016  00642F  FFFF               	dw	65535
  3017  006431  FFFF               	dw	65535
  3018  006433  FFFF               	dw	65535
  3019  006435  FFFF               	dw	65535
  3020  006437  4228               	dw	16936
  3021  006439  0000               	dw	0
  3022  00643B  0000               	dw	0
  3023  00643D  0000               	dw	0
  3024  00643F  0000               	dw	0
  3025  006441  0020               	dw	32
  3026  006443  0020               	dw	32
  3027  006445  0020               	dw	32
  3028  006447  0020               	dw	32
  3029  006449  0020               	dw	32
  3030  00644B  0000               	dw	0
  3031  00644D  0000               	dw	0
  3032  00644F  0000               	dw	0
  3033  006451  0000               	dw	0
  3034  006453  10A2               	dw	4258
  3035  006455  39C7               	dw	14791
  3036  006457  4208               	dw	16904
  3037  006459  3186               	dw	12678
  3038  00645B  0841               	dw	2113
  3039  00645D  0000               	dw	0
  3040  00645F  0000               	dw	0
  3041  006461  0000               	dw	0
  3042  006463  0000               	dw	0
  3043  006465  0000               	dw	0
  3044  006467  0000               	dw	0
  3045  006469  0020               	dw	32
  3046  00646B  0020               	dw	32
  3047  00646D  0020               	dw	32
  3048  00646F  0020               	dw	32
  3049  006471  0020               	dw	32
  3050  006473  0000               	dw	0
  3051  006475  0000               	dw	0
  3052  006477  0000               	dw	0
  3053  006479  0000               	dw	0
  3054  00647B  0000               	dw	0
  3055  00647D  0000               	dw	0
  3056  00647F  0000               	dw	0
  3057  006481  0000               	dw	0
  3058  006483  0000               	dw	0
  3059  006485  0000               	dw	0
  3060  006487  0000               	dw	0
  3061  006489  0000               	dw	0
  3062  00648B  0000               	dw	0
  3063  00648D  0000               	dw	0
  3064  00648F  0000               	dw	0
  3065  006491  0020               	dw	32
  3066  006493  0020               	dw	32
  3067  006495  0020               	dw	32
  3068  006497  0020               	dw	32
  3069  006499  0020               	dw	32
  3070  00649B  0000               	dw	0
  3071  00649D  4A49               	dw	19017
  3072  00649F  FFFF               	dw	65535
  3073  0064A1  FFFF               	dw	65535
  3074  0064A3  FFFF               	dw	65535
  3075  0064A5  FFFF               	dw	65535
  3076  0064A7  FFFF               	dw	65535
  3077  0064A9  FFFF               	dw	65535
  3078  0064AB  FFFF               	dw	65535
  3079  0064AD  FFFF               	dw	65535
  3080  0064AF  FFFF               	dw	65535
  3081  0064B1  FFFF               	dw	65535
  3082  0064B3  FFFF               	dw	65535
  3083  0064B5  FFFF               	dw	65535
  3084  0064B7  4228               	dw	16936
  3085  0064B9  0000               	dw	0
  3086  0064BB  0000               	dw	0
  3087  0064BD  0000               	dw	0
  3088  0064BF  0020               	dw	32
  3089  0064C1  0020               	dw	32
  3090  0064C3  0020               	dw	32
  3091  0064C5  0020               	dw	32
  3092  0064C7  0020               	dw	32
  3093  0064C9  0000               	dw	0
  3094  0064CB  0000               	dw	0
  3095  0064CD  0000               	dw	0
  3096  0064CF  0000               	dw	0
  3097  0064D1  0000               	dw	0
  3098  0064D3  0000               	dw	0
  3099  0064D5  0000               	dw	0
  3100  0064D7  0000               	dw	0
  3101  0064D9  0000               	dw	0
  3102  0064DB  0000               	dw	0
  3103  0064DD  0000               	dw	0
  3104  0064DF  0000               	dw	0
  3105  0064E1  0000               	dw	0
  3106  0064E3  0000               	dw	0
  3107  0064E5  0000               	dw	0
  3108  0064E7  0020               	dw	32
  3109  0064E9  0020               	dw	32
  3110  0064EB  0020               	dw	32
  3111  0064ED  0020               	dw	32
  3112  0064EF  0020               	dw	32
  3113  0064F1  0000               	dw	0
  3114  0064F3  0000               	dw	0
  3115  0064F5  0000               	dw	0
  3116  0064F7  0000               	dw	0
  3117  0064F9  0000               	dw	0
  3118  0064FB  0000               	dw	0
  3119  0064FD  0000               	dw	0
  3120  0064FF  0000               	dw	0
  3121  006501  0000               	dw	0
  3122  006503  0000               	dw	0
  3123  006505  0000               	dw	0
  3124  006507  0000               	dw	0
  3125  006509  0000               	dw	0
  3126  00650B  0000               	dw	0
  3127  00650D  0000               	dw	0
  3128  00650F  0020               	dw	32
  3129  006511  0020               	dw	32
  3130  006513  0020               	dw	32
  3131  006515  0020               	dw	32
  3132  006517  0020               	dw	32
  3133  006519  0000               	dw	0
  3134  00651B  0000               	dw	0
  3135  00651D  4A49               	dw	19017
  3136  00651F  FFFF               	dw	65535
  3137  006521  FFFF               	dw	65535
  3138  006523  FFFF               	dw	65535
  3139  006525  FFFF               	dw	65535
  3140  006527  FFFF               	dw	65535
  3141  006529  FFFF               	dw	65535
  3142  00652B  FFFF               	dw	65535
  3143  00652D  FFFF               	dw	65535
  3144  00652F  FFFF               	dw	65535
  3145  006531  FFFF               	dw	65535
  3146  006533  FFFF               	dw	65535
  3147  006535  FFFF               	dw	65535
  3148  006537  4228               	dw	16936
  3149  006539  0000               	dw	0
  3150  00653B  0000               	dw	0
  3151  00653D  0020               	dw	32
  3152  00653F  0020               	dw	32
  3153  006541  0020               	dw	32
  3154  006543  0020               	dw	32
  3155  006545  0020               	dw	32
  3156  006547  0000               	dw	0
  3157  006549  0000               	dw	0
  3158  00654B  0000               	dw	0
  3159  00654D  0000               	dw	0
  3160  00654F  0000               	dw	0
  3161  006551  0000               	dw	0
  3162  006553  0000               	dw	0
  3163  006555  0000               	dw	0
  3164  006557  0000               	dw	0
  3165  006559  0000               	dw	0
  3166  00655B  0000               	dw	0
  3167  00655D  0000               	dw	0
  3168  00655F  0000               	dw	0
  3169  006561  0000               	dw	0
  3170  006563  0000               	dw	0
  3171  006565  0020               	dw	32
  3172  006567  0020               	dw	32
  3173  006569  0020               	dw	32
  3174  00656B  0020               	dw	32
  3175  00656D  0020               	dw	32
  3176  00656F  0000               	dw	0
  3177  006571  0000               	dw	0
  3178  006573  0000               	dw	0
  3179  006575  0000               	dw	0
  3180  006577  0000               	dw	0
  3181  006579  0000               	dw	0
  3182  00657B  0000               	dw	0
  3183  00657D  0000               	dw	0
  3184  00657F  0000               	dw	0
  3185  006581  0000               	dw	0
  3186  006583  0000               	dw	0
  3187  006585  0000               	dw	0
  3188  006587  0000               	dw	0
  3189  006589  0000               	dw	0
  3190  00658B  0000               	dw	0
  3191  00658D  0020               	dw	32
  3192  00658F  0020               	dw	32
  3193  006591  0020               	dw	32
  3194  006593  0020               	dw	32
  3195  006595  0020               	dw	32
  3196  006597  0000               	dw	0
  3197  006599  0000               	dw	0
  3198  00659B  0000               	dw	0
  3199  00659D  4A49               	dw	19017
  3200  00659F  FFFF               	dw	65535
  3201  0065A1  FFFF               	dw	65535
  3202  0065A3  FFFF               	dw	65535
  3203  0065A5  FFFF               	dw	65535
  3204  0065A7  FFFF               	dw	65535
  3205  0065A9  FFFF               	dw	65535
  3206  0065AB  FFFF               	dw	65535
  3207  0065AD  FFFF               	dw	65535
  3208  0065AF  FFFF               	dw	65535
  3209  0065B1  FFFF               	dw	65535
  3210  0065B3  FFFF               	dw	65535
  3211  0065B5  FFFF               	dw	65535
  3212  0065B7  4228               	dw	16936
  3213  0065B9  0000               	dw	0
  3214  0065BB  0020               	dw	32
  3215  0065BD  0020               	dw	32
  3216  0065BF  0020               	dw	32
  3217  0065C1  0020               	dw	32
  3218  0065C3  0020               	dw	32
  3219  0065C5  0000               	dw	0
  3220  0065C7  0000               	dw	0
  3221  0065C9  0000               	dw	0
  3222  0065CB  0000               	dw	0
  3223  0065CD  0000               	dw	0
  3224  0065CF  0000               	dw	0
  3225  0065D1  0000               	dw	0
  3226  0065D3  0000               	dw	0
  3227  0065D5  0000               	dw	0
  3228  0065D7  0000               	dw	0
  3229  0065D9  0000               	dw	0
  3230  0065DB  0000               	dw	0
  3231  0065DD  0000               	dw	0
  3232  0065DF  0000               	dw	0
  3233  0065E1  0000               	dw	0
  3234  0065E3  0020               	dw	32
  3235  0065E5  0020               	dw	32
  3236  0065E7  0020               	dw	32
  3237  0065E9  0020               	dw	32
  3238  0065EB  0020               	dw	32
  3239  0065ED  0000               	dw	0
  3240  0065EF  0000               	dw	0
  3241  0065F1  0000               	dw	0
  3242  0065F3  0000               	dw	0
  3243  0065F5  0000               	dw	0
  3244  0065F7  0000               	dw	0
  3245  0065F9  0000               	dw	0
  3246  0065FB  0000               	dw	0
  3247  0065FD  0000               	dw	0
  3248  0065FF  0000               	dw	0
  3249  006601  0000               	dw	0
  3250  006603  0000               	dw	0
  3251  006605  0000               	dw	0
  3252  006607  0000               	dw	0
  3253  006609  0000               	dw	0
  3254  00660B  0020               	dw	32
  3255  00660D  0020               	dw	32
  3256  00660F  0020               	dw	32
  3257  006611  0020               	dw	32
  3258  006613  0020               	dw	32
  3259  006615  0000               	dw	0
  3260  006617  0000               	dw	0
  3261  006619  0000               	dw	0
  3262  00661B  0000               	dw	0
  3263  00661D  4A49               	dw	19017
  3264  00661F  FFFF               	dw	65535
  3265  006621  FFFF               	dw	65535
  3266  006623  FFFF               	dw	65535
  3267  006625  FFFF               	dw	65535
  3268  006627  FFFF               	dw	65535
  3269  006629  FFFF               	dw	65535
  3270  00662B  FFFF               	dw	65535
  3271  00662D  FFFF               	dw	65535
  3272  00662F  FFFF               	dw	65535
  3273  006631  FFFF               	dw	65535
  3274  006633  FFFF               	dw	65535
  3275  006635  FFFF               	dw	65535
  3276  006637  4A49               	dw	19017
  3277  006639  0020               	dw	32
  3278  00663B  0020               	dw	32
  3279  00663D  0020               	dw	32
  3280  00663F  0020               	dw	32
  3281  006641  0020               	dw	32
  3282  006643  0000               	dw	0
  3283  006645  0000               	dw	0
  3284  006647  0000               	dw	0
  3285  006649  0000               	dw	0
  3286  00664B  0000               	dw	0
  3287  00664D  0000               	dw	0
  3288  00664F  0000               	dw	0
  3289  006651  0000               	dw	0
  3290  006653  0000               	dw	0
  3291  006655  0000               	dw	0
  3292  006657  0000               	dw	0
  3293  006659  0000               	dw	0
  3294  00665B  0000               	dw	0
  3295  00665D  0000               	dw	0
  3296  00665F  0000               	dw	0
  3297  006661  0020               	dw	32
  3298  006663  0020               	dw	32
  3299  006665  0020               	dw	32
  3300  006667  0020               	dw	32
  3301  006669  0020               	dw	32
  3302  00666B  0000               	dw	0
  3303  00666D  0000               	dw	0
  3304  00666F  0000               	dw	0
  3305  006671  0000               	dw	0
  3306  006673  0000               	dw	0
  3307  006675  0000               	dw	0
  3308  006677  0000               	dw	0
  3309  006679  0000               	dw	0
  3310  00667B  0000               	dw	0
  3311  00667D  0000               	dw	0
  3312  00667F  0000               	dw	0
  3313  006681  0000               	dw	0
  3314  006683  0000               	dw	0
  3315  006685  0000               	dw	0
  3316  006687  0000               	dw	0
  3317  006689  0020               	dw	32
  3318  00668B  0020               	dw	32
  3319  00668D  0020               	dw	32
  3320  00668F  0020               	dw	32
  3321  006691  0020               	dw	32
  3322  006693  0000               	dw	0
  3323  006695  0000               	dw	0
  3324  006697  0000               	dw	0
  3325  006699  0000               	dw	0
  3326  00669B  0000               	dw	0
  3327  00669D  4A69               	dw	19049
  3328  00669F  FFFF               	dw	65535
  3329  0066A1  FFFF               	dw	65535
  3330  0066A3  FFFF               	dw	65535
  3331  0066A5  FFFF               	dw	65535
  3332  0066A7  FFFF               	dw	65535
  3333  0066A9  FFFF               	dw	65535
  3334  0066AB  FFFF               	dw	65535
  3335  0066AD  FFFF               	dw	65535
  3336  0066AF  FFFF               	dw	65535
  3337  0066B1  FFFF               	dw	65535
  3338  0066B3  FFFF               	dw	65535
  3339  0066B5  FFFF               	dw	65535
  3340  0066B7  A534               	dw	42292
  3341  0066B9  2124               	dw	8484
  3342  0066BB  2104               	dw	8452
  3343  0066BD  2104               	dw	8452
  3344  0066BF  2104               	dw	8452
  3345  0066C1  2104               	dw	8452
  3346  0066C3  18E3               	dw	6371
  3347  0066C5  18E3               	dw	6371
  3348  0066C7  18E3               	dw	6371
  3349  0066C9  18E3               	dw	6371
  3350  0066CB  18E3               	dw	6371
  3351  0066CD  18E3               	dw	6371
  3352  0066CF  18E3               	dw	6371
  3353  0066D1  18E3               	dw	6371
  3354  0066D3  18E3               	dw	6371
  3355  0066D5  18E3               	dw	6371
  3356  0066D7  18E3               	dw	6371
  3357  0066D9  18E3               	dw	6371
  3358  0066DB  18E3               	dw	6371
  3359  0066DD  2104               	dw	8452
  3360  0066DF  2104               	dw	8452
  3361  0066E1  2104               	dw	8452
  3362  0066E3  2104               	dw	8452
  3363  0066E5  2104               	dw	8452
  3364  0066E7  2104               	dw	8452
  3365  0066E9  2104               	dw	8452
  3366  0066EB  18E3               	dw	6371
  3367  0066ED  18E3               	dw	6371
  3368  0066EF  18E3               	dw	6371
  3369  0066F1  18E3               	dw	6371
  3370  0066F3  18E3               	dw	6371
  3371  0066F5  18E3               	dw	6371
  3372  0066F7  18E3               	dw	6371
  3373  0066F9  18E3               	dw	6371
  3374  0066FB  18E3               	dw	6371
  3375  0066FD  18E3               	dw	6371
  3376  0066FF  18E3               	dw	6371
  3377  006701  18E3               	dw	6371
  3378  006703  18E3               	dw	6371
  3379  006705  2104               	dw	8452
  3380  006707  2104               	dw	8452
  3381  006709  2104               	dw	8452
  3382  00670B  2104               	dw	8452
  3383  00670D  2104               	dw	8452
  3384  00670F  2104               	dw	8452
  3385  006711  2104               	dw	8452
  3386  006713  18E3               	dw	6371
  3387  006715  18E3               	dw	6371
  3388  006717  18E3               	dw	6371
  3389  006719  18E3               	dw	6371
  3390  00671B  2124               	dw	8484
  3391  00671D  B596               	dw	46486
  3392  00671F  FFFF               	dw	65535
  3393  006721  FFFF               	dw	65535
  3394  006723  FFFF               	dw	65535
  3395  006725  FFFF               	dw	65535
  3396  006727  FFFF               	dw	65535
  3397  006729  FFFF               	dw	65535
  3398  00672B  FFFF               	dw	65535
  3399  00672D  FFFF               	dw	65535
  3400  00672F  FFFF               	dw	65535
  3401  006731  FFFF               	dw	65535
  3402  006733  FFFF               	dw	65535
  3403  006735  F7BE               	dw	63422
  3404  006737  F7BE               	dw	63422
  3405  006739  F7BE               	dw	63422
  3406  00673B  F7BE               	dw	63422
  3407  00673D  F7BE               	dw	63422
  3408  00673F  FFFF               	dw	65535
  3409  006741  FFFF               	dw	65535
  3410  006743  FFFF               	dw	65535
  3411  006745  FFFF               	dw	65535
  3412  006747  FFFF               	dw	65535
  3413  006749  FFFF               	dw	65535
  3414  00674B  FFFF               	dw	65535
  3415  00674D  FFFF               	dw	65535
  3416  00674F  FFFF               	dw	65535
  3417  006751  FFFF               	dw	65535
  3418  006753  FFFF               	dw	65535
  3419  006755  FFFF               	dw	65535
  3420  006757  FFFF               	dw	65535
  3421  006759  FFFF               	dw	65535
  3422  00675B  FFFF               	dw	65535
  3423  00675D  F7BE               	dw	63422
  3424  00675F  F7BE               	dw	63422
  3425  006761  F7BE               	dw	63422
  3426  006763  F7BE               	dw	63422
  3427  006765  F7BE               	dw	63422
  3428  006767  FFFF               	dw	65535
  3429  006769  FFFF               	dw	65535
  3430  00676B  FFFF               	dw	65535
  3431  00676D  FFFF               	dw	65535
  3432  00676F  FFFF               	dw	65535
  3433  006771  FFFF               	dw	65535
  3434  006773  FFFF               	dw	65535
  3435  006775  FFFF               	dw	65535
  3436  006777  FFFF               	dw	65535
  3437  006779  FFFF               	dw	65535
  3438  00677B  FFFF               	dw	65535
  3439  00677D  FFFF               	dw	65535
  3440  00677F  FFFF               	dw	65535
  3441  006781  FFFF               	dw	65535
  3442  006783  FFFF               	dw	65535
  3443  006785  F7BE               	dw	63422
  3444  006787  F7BE               	dw	63422
  3445  006789  F7BE               	dw	63422
  3446  00678B  F7BE               	dw	63422
  3447  00678D  F7BE               	dw	63422
  3448  00678F  FFFF               	dw	65535
  3449  006791  FFFF               	dw	65535
  3450  006793  FFFF               	dw	65535
  3451  006795  FFFF               	dw	65535
  3452  006797  FFFF               	dw	65535
  3453  006799  FFFF               	dw	65535
  3454  00679B  FFFF               	dw	65535
  3455  00679D  FFFF               	dw	65535
  3456  00679F  FFFF               	dw	65535
  3457  0067A1  FFFF               	dw	65535
  3458  0067A3  FFFF               	dw	65535
  3459  0067A5  FFFF               	dw	65535
  3460  0067A7  FFFF               	dw	65535
  3461  0067A9  FFFF               	dw	65535
  3462  0067AB  FFFF               	dw	65535
  3463  0067AD  FFFF               	dw	65535
  3464  0067AF  FFFF               	dw	65535
  3465  0067B1  FFFF               	dw	65535
  3466  0067B3  FFDF               	dw	65503
  3467  0067B5  F7BE               	dw	63422
  3468  0067B7  F7BE               	dw	63422
  3469  0067B9  F7BE               	dw	63422
  3470  0067BB  F7BE               	dw	63422
  3471  0067BD  FFFF               	dw	65535
  3472  0067BF  FFFF               	dw	65535
  3473  0067C1  FFFF               	dw	65535
  3474  0067C3  FFFF               	dw	65535
  3475  0067C5  FFFF               	dw	65535
  3476  0067C7  FFFF               	dw	65535
  3477  0067C9  FFFF               	dw	65535
  3478  0067CB  FFFF               	dw	65535
  3479  0067CD  FFFF               	dw	65535
  3480  0067CF  FFFF               	dw	65535
  3481  0067D1  FFFF               	dw	65535
  3482  0067D3  FFFF               	dw	65535
  3483  0067D5  FFFF               	dw	65535
  3484  0067D7  FFFF               	dw	65535
  3485  0067D9  FFFF               	dw	65535
  3486  0067DB  F7BE               	dw	63422
  3487  0067DD  F7BE               	dw	63422
  3488  0067DF  F7BE               	dw	63422
  3489  0067E1  F7BE               	dw	63422
  3490  0067E3  F7BE               	dw	63422
  3491  0067E5  FFFF               	dw	65535
  3492  0067E7  FFFF               	dw	65535
  3493  0067E9  FFFF               	dw	65535
  3494  0067EB  FFFF               	dw	65535
  3495  0067ED  FFFF               	dw	65535
  3496  0067EF  FFFF               	dw	65535
  3497  0067F1  FFFF               	dw	65535
  3498  0067F3  FFFF               	dw	65535
  3499  0067F5  FFFF               	dw	65535
  3500  0067F7  FFFF               	dw	65535
  3501  0067F9  FFFF               	dw	65535
  3502  0067FB  FFFF               	dw	65535
  3503  0067FD  FFFF               	dw	65535
  3504  0067FF  FFFF               	dw	65535
  3505  006801  FFFF               	dw	65535
  3506  006803  F7BE               	dw	63422
  3507  006805  F7BE               	dw	63422
  3508  006807  F7BE               	dw	63422
  3509  006809  F7BE               	dw	63422
  3510  00680B  F7BE               	dw	63422
  3511  00680D  FFFF               	dw	65535
  3512  00680F  FFFF               	dw	65535
  3513  006811  FFFF               	dw	65535
  3514  006813  FFFF               	dw	65535
  3515  006815  FFFF               	dw	65535
  3516  006817  FFFF               	dw	65535
  3517  006819  FFFF               	dw	65535
  3518  00681B  FFFF               	dw	65535
  3519  00681D  FFFF               	dw	65535
  3520  00681F  FFFF               	dw	65535
  3521  006821  FFFF               	dw	65535
  3522  006823  FFFF               	dw	65535
  3523  006825  FFFF               	dw	65535
  3524  006827  FFFF               	dw	65535
  3525  006829  FFFF               	dw	65535
  3526  00682B  FFFF               	dw	65535
  3527  00682D  FFFF               	dw	65535
  3528  00682F  FFFF               	dw	65535
  3529  006831  FFDF               	dw	65503
  3530  006833  FFDF               	dw	65503
  3531  006835  F7BE               	dw	63422
  3532  006837  F7BE               	dw	63422
  3533  006839  F7BE               	dw	63422
  3534  00683B  FFFF               	dw	65535
  3535  00683D  FFFF               	dw	65535
  3536  00683F  FFFF               	dw	65535
  3537  006841  FFFF               	dw	65535
  3538  006843  FFFF               	dw	65535
  3539  006845  FFFF               	dw	65535
  3540  006847  FFFF               	dw	65535
  3541  006849  FFFF               	dw	65535
  3542  00684B  FFFF               	dw	65535
  3543  00684D  FFFF               	dw	65535
  3544  00684F  FFFF               	dw	65535
  3545  006851  FFFF               	dw	65535
  3546  006853  FFFF               	dw	65535
  3547  006855  FFFF               	dw	65535
  3548  006857  FFFF               	dw	65535
  3549  006859  F7BE               	dw	63422
  3550  00685B  F7BE               	dw	63422
  3551  00685D  F7BE               	dw	63422
  3552  00685F  F7BE               	dw	63422
  3553  006861  F7BE               	dw	63422
  3554  006863  FFFF               	dw	65535
  3555  006865  FFFF               	dw	65535
  3556  006867  FFFF               	dw	65535
  3557  006869  FFFF               	dw	65535
  3558  00686B  FFFF               	dw	65535
  3559  00686D  FFFF               	dw	65535
  3560  00686F  FFFF               	dw	65535
  3561  006871  FFFF               	dw	65535
  3562  006873  FFFF               	dw	65535
  3563  006875  FFFF               	dw	65535
  3564  006877  FFFF               	dw	65535
  3565  006879  FFFF               	dw	65535
  3566  00687B  FFFF               	dw	65535
  3567  00687D  FFFF               	dw	65535
  3568  00687F  FFFF               	dw	65535
  3569  006881  F7BE               	dw	63422
  3570  006883  F7BE               	dw	63422
  3571  006885  F7BE               	dw	63422
  3572  006887  F7BE               	dw	63422
  3573  006889  F7BE               	dw	63422
  3574  00688B  FFFF               	dw	65535
  3575  00688D  FFFF               	dw	65535
  3576  00688F  FFFF               	dw	65535
  3577  006891  FFFF               	dw	65535
  3578  006893  FFFF               	dw	65535
  3579  006895  FFFF               	dw	65535
  3580  006897  FFFF               	dw	65535
  3581  006899  FFFF               	dw	65535
  3582  00689B  FFFF               	dw	65535
  3583  00689D  FFFF               	dw	65535
  3584  00689F  FFFF               	dw	65535
  3585  0068A1  FFFF               	dw	65535
  3586  0068A3  FFFF               	dw	65535
  3587  0068A5  FFFF               	dw	65535
  3588  0068A7  FFFF               	dw	65535
  3589  0068A9  FFFF               	dw	65535
  3590  0068AB  FFFF               	dw	65535
  3591  0068AD  FFFF               	dw	65535
  3592  0068AF  FFDF               	dw	65503
  3593  0068B1  FFDF               	dw	65503
  3594  0068B3  FFDF               	dw	65503
  3595  0068B5  F7BE               	dw	63422
  3596  0068B7  F7BE               	dw	63422
  3597  0068B9  FFFF               	dw	65535
  3598  0068BB  FFFF               	dw	65535
  3599  0068BD  FFFF               	dw	65535
  3600  0068BF  FFFF               	dw	65535
  3601  0068C1  FFFF               	dw	65535
  3602  0068C3  FFFF               	dw	65535
  3603  0068C5  FFFF               	dw	65535
  3604  0068C7  FFFF               	dw	65535
  3605  0068C9  FFFF               	dw	65535
  3606  0068CB  FFFF               	dw	65535
  3607  0068CD  FFFF               	dw	65535
  3608  0068CF  FFFF               	dw	65535
  3609  0068D1  FFFF               	dw	65535
  3610  0068D3  FFFF               	dw	65535
  3611  0068D5  FFFF               	dw	65535
  3612  0068D7  F7BE               	dw	63422
  3613  0068D9  F7BE               	dw	63422
  3614  0068DB  F7BE               	dw	63422
  3615  0068DD  F7BE               	dw	63422
  3616  0068DF  F7BE               	dw	63422
  3617  0068E1  FFFF               	dw	65535
  3618  0068E3  FFFF               	dw	65535
  3619  0068E5  FFFF               	dw	65535
  3620  0068E7  FFFF               	dw	65535
  3621  0068E9  FFFF               	dw	65535
  3622  0068EB  FFFF               	dw	65535
  3623  0068ED  FFFF               	dw	65535
  3624  0068EF  FFFF               	dw	65535
  3625  0068F1  FFFF               	dw	65535
  3626  0068F3  FFFF               	dw	65535
  3627  0068F5  FFFF               	dw	65535
  3628  0068F7  FFFF               	dw	65535
  3629  0068F9  FFFF               	dw	65535
  3630  0068FB  FFFF               	dw	65535
  3631  0068FD  FFFF               	dw	65535
  3632  0068FF  F7BE               	dw	63422
  3633  006901  F7BE               	dw	63422
  3634  006903  F7BE               	dw	63422
  3635  006905  F7BE               	dw	63422
  3636  006907  F7BE               	dw	63422
  3637  006909  FFFF               	dw	65535
  3638  00690B  FFFF               	dw	65535
  3639  00690D  FFFF               	dw	65535
  3640  00690F  FFFF               	dw	65535
  3641  006911  FFFF               	dw	65535
  3642  006913  FFFF               	dw	65535
  3643  006915  FFFF               	dw	65535
  3644  006917  FFFF               	dw	65535
  3645  006919  FFFF               	dw	65535
  3646  00691B  FFFF               	dw	65535
  3647  00691D  FFFF               	dw	65535
  3648  00691F  FFFF               	dw	65535
  3649  006921  FFFF               	dw	65535
  3650  006923  FFFF               	dw	65535
  3651  006925  FFFF               	dw	65535
  3652  006927  FFDF               	dw	65503
  3653  006929  FFFF               	dw	65535
  3654  00692B  FFFF               	dw	65535
  3655  00692D  FFFF               	dw	65535
  3656  00692F  FFDF               	dw	65503
  3657  006931  FFDF               	dw	65503
  3658  006933  FFDF               	dw	65503
  3659  006935  F7BE               	dw	63422
  3660  006937  FFFF               	dw	65535
  3661  006939  FFFF               	dw	65535
  3662  00693B  FFFF               	dw	65535
  3663  00693D  FFFF               	dw	65535
  3664  00693F  FFFF               	dw	65535
  3665  006941  FFFF               	dw	65535
  3666  006943  FFFF               	dw	65535
  3667  006945  FFFF               	dw	65535
  3668  006947  FFFF               	dw	65535
  3669  006949  FFFF               	dw	65535
  3670  00694B  FFFF               	dw	65535
  3671  00694D  FFFF               	dw	65535
  3672  00694F  FFFF               	dw	65535
  3673  006951  FFFF               	dw	65535
  3674  006953  FFFF               	dw	65535
  3675  006955  F7BE               	dw	63422
  3676  006957  F7BE               	dw	63422
  3677  006959  F7BE               	dw	63422
  3678  00695B  F7BE               	dw	63422
  3679  00695D  F7BE               	dw	63422
  3680  00695F  FFFF               	dw	65535
  3681  006961  FFFF               	dw	65535
  3682  006963  FFFF               	dw	65535
  3683  006965  FFFF               	dw	65535
  3684  006967  FFFF               	dw	65535
  3685  006969  FFFF               	dw	65535
  3686  00696B  FFFF               	dw	65535
  3687  00696D  FFFF               	dw	65535
  3688  00696F  FFFF               	dw	65535
  3689  006971  FFFF               	dw	65535
  3690  006973  FFFF               	dw	65535
  3691  006975  FFFF               	dw	65535
  3692  006977  FFFF               	dw	65535
  3693  006979  FFFF               	dw	65535
  3694  00697B  FFFF               	dw	65535
  3695  00697D  F7BE               	dw	63422
  3696  00697F  F7BE               	dw	63422
  3697  006981  F7BE               	dw	63422
  3698  006983  F7BE               	dw	63422
  3699  006985  F7BE               	dw	63422
  3700  006987  FFFF               	dw	65535
  3701  006989  FFFF               	dw	65535
  3702  00698B  FFFF               	dw	65535
  3703  00698D  FFFF               	dw	65535
  3704  00698F  FFFF               	dw	65535
  3705  006991  FFFF               	dw	65535
  3706  006993  FFFF               	dw	65535
  3707  006995  FFFF               	dw	65535
  3708  006997  FFFF               	dw	65535
  3709  006999  FFFF               	dw	65535
  3710  00699B  FFFF               	dw	65535
  3711  00699D  FFFF               	dw	65535
  3712  00699F  FFFF               	dw	65535
  3713  0069A1  FFFF               	dw	65535
  3714  0069A3  FFFF               	dw	65535
  3715  0069A5  FFDF               	dw	65503
  3716  0069A7  FFDF               	dw	65503
  3717  0069A9  FFFF               	dw	65535
  3718  0069AB  FFFF               	dw	65535
  3719  0069AD  FFFF               	dw	65535
  3720  0069AF  FFDF               	dw	65503
  3721  0069B1  FFDF               	dw	65503
  3722  0069B3  FFDF               	dw	65503
  3723  0069B5  FFFF               	dw	65535
  3724  0069B7  FFFF               	dw	65535
  3725  0069B9  FFFF               	dw	65535
  3726  0069BB  FFFF               	dw	65535
  3727  0069BD  FFFF               	dw	65535
  3728  0069BF  FFFF               	dw	65535
  3729  0069C1  FFFF               	dw	65535
  3730  0069C3  FFFF               	dw	65535
  3731  0069C5  FFFF               	dw	65535
  3732  0069C7  FFFF               	dw	65535
  3733  0069C9  FFFF               	dw	65535
  3734  0069CB  FFFF               	dw	65535
  3735  0069CD  FFFF               	dw	65535
  3736  0069CF  FFFF               	dw	65535
  3737  0069D1  FFFF               	dw	65535
  3738  0069D3  F7BE               	dw	63422
  3739  0069D5  F7BE               	dw	63422
  3740  0069D7  F7BE               	dw	63422
  3741  0069D9  F7BE               	dw	63422
  3742  0069DB  F7BE               	dw	63422
  3743  0069DD  FFFF               	dw	65535
  3744  0069DF  FFFF               	dw	65535
  3745  0069E1  FFFF               	dw	65535
  3746  0069E3  FFFF               	dw	65535
  3747  0069E5  FFFF               	dw	65535
  3748  0069E7  FFFF               	dw	65535
  3749  0069E9  FFFF               	dw	65535
  3750  0069EB  FFFF               	dw	65535
  3751  0069ED  FFFF               	dw	65535
  3752  0069EF  FFFF               	dw	65535
  3753  0069F1  FFFF               	dw	65535
  3754  0069F3  FFFF               	dw	65535
  3755  0069F5  FFFF               	dw	65535
  3756  0069F7  FFFF               	dw	65535
  3757  0069F9  FFFF               	dw	65535
  3758  0069FB  F7BE               	dw	63422
  3759  0069FD  F7BE               	dw	63422
  3760  0069FF  F7BE               	dw	63422
  3761  006A01  F7BE               	dw	63422
  3762  006A03  F7BE               	dw	63422
  3763  006A05  FFFF               	dw	65535
  3764  006A07  FFFF               	dw	65535
  3765  006A09  FFFF               	dw	65535
  3766  006A0B  FFFF               	dw	65535
  3767  006A0D  FFFF               	dw	65535
  3768  006A0F  FFFF               	dw	65535
  3769  006A11  FFFF               	dw	65535
  3770  006A13  FFFF               	dw	65535
  3771  006A15  FFFF               	dw	65535
  3772  006A17  FFFF               	dw	65535
  3773  006A19  FFFF               	dw	65535
  3774  006A1B  FFFF               	dw	65535
  3775  006A1D  FFFF               	dw	65535
  3776  006A1F  FFFF               	dw	65535
  3777  006A21  FFFF               	dw	65535
  3778  006A23  FFDF               	dw	65503
  3779  006A25  FFDF               	dw	65503
  3780  006A27  FFDF               	dw	65503
  3781  006A29  FFFF               	dw	65535
  3782  006A2B  FFFF               	dw	65535
  3783  006A2D  FFFF               	dw	65535
  3784  006A2F  FFDF               	dw	65503
  3785  006A31  FFDF               	dw	65503
  3786  006A33  FFFF               	dw	65535
  3787  006A35  FFFF               	dw	65535
  3788  006A37  FFFF               	dw	65535
  3789  006A39  FFFF               	dw	65535
  3790  006A3B  FFFF               	dw	65535
  3791  006A3D  FFFF               	dw	65535
  3792  006A3F  FFFF               	dw	65535
  3793  006A41  FFFF               	dw	65535
  3794  006A43  FFFF               	dw	65535
  3795  006A45  FFFF               	dw	65535
  3796  006A47  FFFF               	dw	65535
  3797  006A49  FFFF               	dw	65535
  3798  006A4B  FFFF               	dw	65535
  3799  006A4D  FFFF               	dw	65535
  3800  006A4F  FFFF               	dw	65535
  3801  006A51  F7BE               	dw	63422
  3802  006A53  F7BE               	dw	63422
  3803  006A55  F7BE               	dw	63422
  3804  006A57  F7BE               	dw	63422
  3805  006A59  F7BE               	dw	63422
  3806  006A5B  FFFF               	dw	65535
  3807  006A5D  FFFF               	dw	65535
  3808  006A5F  FFFF               	dw	65535
  3809  006A61  FFFF               	dw	65535
  3810  006A63  FFFF               	dw	65535
  3811  006A65  FFFF               	dw	65535
  3812  006A67  FFFF               	dw	65535
  3813  006A69  FFFF               	dw	65535
  3814  006A6B  FFFF               	dw	65535
  3815  006A6D  FFFF               	dw	65535
  3816  006A6F  FFFF               	dw	65535
  3817  006A71  FFFF               	dw	65535
  3818  006A73  FFFF               	dw	65535
  3819  006A75  FFFF               	dw	65535
  3820  006A77  FFFF               	dw	65535
  3821  006A79  F7BE               	dw	63422
  3822  006A7B  F7BE               	dw	63422
  3823  006A7D  F7BE               	dw	63422
  3824  006A7F  F7BE               	dw	63422
  3825  006A81  F7BE               	dw	63422
  3826  006A83  FFFF               	dw	65535
  3827  006A85  FFFF               	dw	65535
  3828  006A87  FFFF               	dw	65535
  3829  006A89  FFFF               	dw	65535
  3830  006A8B  FFFF               	dw	65535
  3831  006A8D  FFFF               	dw	65535
  3832  006A8F  FFFF               	dw	65535
  3833  006A91  FFFF               	dw	65535
  3834  006A93  FFFF               	dw	65535
  3835  006A95  FFFF               	dw	65535
  3836  006A97  FFFF               	dw	65535
  3837  006A99  FFFF               	dw	65535
  3838  006A9B  FFFF               	dw	65535
  3839  006A9D  FFFF               	dw	65535
  3840  006A9F  FFFF               	dw	65535
  3841  006AA1  F7BE               	dw	63422
  3842  006AA3  FFDF               	dw	65503
  3843  006AA5  FFDF               	dw	65503
  3844  006AA7  FFDF               	dw	65503
  3845  006AA9  FFFF               	dw	65535
  3846  006AAB  FFFF               	dw	65535
  3847  006AAD  FFFF               	dw	65535
  3848  006AAF  FFDF               	dw	65503
  3849  006AB1  FFFF               	dw	65535
  3850  006AB3  FFFF               	dw	65535
  3851  006AB5  FFFF               	dw	65535
  3852  006AB7  FFFF               	dw	65535
  3853  006AB9  FFFF               	dw	65535
  3854  006ABB  FFFF               	dw	65535
  3855  006ABD  FFFF               	dw	65535
  3856  006ABF  FFFF               	dw	65535
  3857  006AC1  FFFF               	dw	65535
  3858  006AC3  FFFF               	dw	65535
  3859  006AC5  FFFF               	dw	65535
  3860  006AC7  FFFF               	dw	65535
  3861  006AC9  FFFF               	dw	65535
  3862  006ACB  FFFF               	dw	65535
  3863  006ACD  FFFF               	dw	65535
  3864  006ACF  F7BE               	dw	63422
  3865  006AD1  F7BE               	dw	63422
  3866  006AD3  F7BE               	dw	63422
  3867  006AD5  F7BE               	dw	63422
  3868  006AD7  F7BE               	dw	63422
  3869  006AD9  FFFF               	dw	65535
  3870  006ADB  FFFF               	dw	65535
  3871  006ADD  FFFF               	dw	65535
  3872  006ADF  FFFF               	dw	65535
  3873  006AE1  FFFF               	dw	65535
  3874  006AE3  FFFF               	dw	65535
  3875  006AE5  FFFF               	dw	65535
  3876  006AE7  FFFF               	dw	65535
  3877  006AE9  FFFF               	dw	65535
  3878  006AEB  FFFF               	dw	65535
  3879  006AED  FFFF               	dw	65535
  3880  006AEF  FFFF               	dw	65535
  3881  006AF1  FFFF               	dw	65535
  3882  006AF3  FFFF               	dw	65535
  3883  006AF5  FFFF               	dw	65535
  3884  006AF7  F7BE               	dw	63422
  3885  006AF9  F7BE               	dw	63422
  3886  006AFB  F7BE               	dw	63422
  3887  006AFD  F7BE               	dw	63422
  3888  006AFF  F7BE               	dw	63422
  3889  006B01  FFFF               	dw	65535
  3890  006B03  FFFF               	dw	65535
  3891  006B05  FFFF               	dw	65535
  3892  006B07  FFFF               	dw	65535
  3893  006B09  FFFF               	dw	65535
  3894  006B0B  FFFF               	dw	65535
  3895  006B0D  FFFF               	dw	65535
  3896  006B0F  FFFF               	dw	65535
  3897  006B11  FFFF               	dw	65535
  3898  006B13  FFFF               	dw	65535
  3899  006B15  FFFF               	dw	65535
  3900  006B17  FFFF               	dw	65535
  3901  006B19  FFFF               	dw	65535
  3902  006B1B  FFFF               	dw	65535
  3903  006B1D  FFFF               	dw	65535
  3904  006B1F  F7BE               	dw	63422
  3905  006B21  F7BE               	dw	63422
  3906  006B23  FFDF               	dw	65503
  3907  006B25  FFDF               	dw	65503
  3908  006B27  FFDF               	dw	65503
  3909  006B29  FFFF               	dw	65535
  3910  006B2B  FFFF               	dw	65535
  3911  006B2D  FFFF               	dw	65535
  3912  006B2F  FFFF               	dw	65535
  3913  006B31  FFFF               	dw	65535
  3914  006B33  FFFF               	dw	65535
  3915  006B35  FFFF               	dw	65535
  3916  006B37  FFFF               	dw	65535
  3917  006B39  FFFF               	dw	65535
  3918  006B3B  FFFF               	dw	65535
  3919  006B3D  FFFF               	dw	65535
  3920  006B3F  FFFF               	dw	65535
  3921  006B41  FFFF               	dw	65535
  3922  006B43  FFFF               	dw	65535
  3923  006B45  FFFF               	dw	65535
  3924  006B47  FFFF               	dw	65535
  3925  006B49  FFFF               	dw	65535
  3926  006B4B  FFFF               	dw	65535
  3927  006B4D  FFDF               	dw	65503
  3928  006B4F  FFDF               	dw	65503
  3929  006B51  FFDF               	dw	65503
  3930  006B53  FFDF               	dw	65503
  3931  006B55  FFDF               	dw	65503
  3932  006B57  FFFF               	dw	65535
  3933  006B59  FFFF               	dw	65535
  3934  006B5B  FFFF               	dw	65535
  3935  006B5D  FFFF               	dw	65535
  3936  006B5F  FFFF               	dw	65535
  3937  006B61  FFFF               	dw	65535
  3938  006B63  FFFF               	dw	65535
  3939  006B65  FFFF               	dw	65535
  3940  006B67  FFFF               	dw	65535
  3941  006B69  FFFF               	dw	65535
  3942  006B6B  FFFF               	dw	65535
  3943  006B6D  FFFF               	dw	65535
  3944  006B6F  FFFF               	dw	65535
  3945  006B71  FFFF               	dw	65535
  3946  006B73  FFFF               	dw	65535
  3947  006B75  FFDF               	dw	65503
  3948  006B77  FFDF               	dw	65503
  3949  006B79  FFDF               	dw	65503
  3950  006B7B  FFDF               	dw	65503
  3951  006B7D  FFDF               	dw	65503
  3952  006B7F  FFFF               	dw	65535
  3953  006B81  FFFF               	dw	65535
  3954  006B83  FFFF               	dw	65535
  3955  006B85  FFFF               	dw	65535
  3956  006B87  FFFF               	dw	65535
  3957  006B89  FFFF               	dw	65535
  3958  006B8B  FFFF               	dw	65535
  3959  006B8D  FFFF               	dw	65535
  3960  006B8F  FFFF               	dw	65535
  3961  006B91  FFFF               	dw	65535
  3962  006B93  FFFF               	dw	65535
  3963  006B95  FFFF               	dw	65535
  3964  006B97  FFFF               	dw	65535
  3965  006B99  FFFF               	dw	65535
  3966  006B9B  FFFF               	dw	65535
  3967  006B9D  FFDF               	dw	65503
  3968  006B9F  FFDF               	dw	65503
  3969  006BA1  FFDF               	dw	65503
  3970  006BA3  FFDF               	dw	65503
  3971  006BA5  FFDF               	dw	65503
  3972  006BA7  FFFF               	dw	65535
  3973  006BA9  FFFF               	dw	65535
  3974  006BAB  FFFF               	dw	65535
  3975  006BAD  FFFF               	dw	65535
  3976  006BAF  FFFF               	dw	65535
  3977  006BB1  FFFF               	dw	65535
  3978  006BB3  FFFF               	dw	65535
  3979  006BB5  FFFF               	dw	65535
  3980  006BB7  FFFF               	dw	65535
  3981  006BB9  FFFF               	dw	65535
  3982  006BBB  FFFF               	dw	65535
  3983  006BBD  FFFF               	dw	65535
  3984  006BBF  FFFF               	dw	65535
  3985  006BC1  FFFF               	dw	65535
  3986  006BC3  FFFF               	dw	65535
  3987  006BC5  FFFF               	dw	65535
  3988  006BC7  FFFF               	dw	65535
  3989  006BC9  FFFF               	dw	65535
  3990  006BCB  FFDF               	dw	65503
  3991  006BCD  FFDF               	dw	65503
  3992  006BCF  FFDF               	dw	65503
  3993  006BD1  FFDF               	dw	65503
  3994  006BD3  FFDF               	dw	65503
  3995  006BD5  FFFF               	dw	65535
  3996  006BD7  FFFF               	dw	65535
  3997  006BD9  FFFF               	dw	65535
  3998  006BDB  FFFF               	dw	65535
  3999  006BDD  FFFF               	dw	65535
  4000  006BDF  FFFF               	dw	65535
  4001  006BE1  FFFF               	dw	65535
  4002  006BE3  FFFF               	dw	65535
  4003  006BE5  FFFF               	dw	65535
  4004  006BE7  FFFF               	dw	65535
  4005  006BE9  FFFF               	dw	65535
  4006  006BEB  FFFF               	dw	65535
  4007  006BED  FFFF               	dw	65535
  4008  006BEF  FFFF               	dw	65535
  4009  006BF1  FFFF               	dw	65535
  4010  006BF3  FFDF               	dw	65503
  4011  006BF5  FFDF               	dw	65503
  4012  006BF7  FFDF               	dw	65503
  4013  006BF9  FFDF               	dw	65503
  4014  006BFB  FFDF               	dw	65503
  4015  006BFD  FFFF               	dw	65535
  4016  006BFF  FFFF               	dw	65535
  4017  006C01  FFFF               	dw	65535
  4018  006C03  FFFF               	dw	65535
  4019  006C05  FFFF               	dw	65535
  4020  006C07  FFFF               	dw	65535
  4021  006C09  FFFF               	dw	65535
  4022  006C0B  FFFF               	dw	65535
  4023  006C0D  FFFF               	dw	65535
  4024  006C0F  FFFF               	dw	65535
  4025  006C11  FFFF               	dw	65535
  4026  006C13  FFFF               	dw	65535
  4027  006C15  FFFF               	dw	65535
  4028  006C17  FFFF               	dw	65535
  4029  006C19  FFFF               	dw	65535
  4030  006C1B  FFDF               	dw	65503
  4031  006C1D  FFDF               	dw	65503
  4032  006C1F  FFDF               	dw	65503
  4033  006C21  FFDF               	dw	65503
  4034  006C23  FFDF               	dw	65503
  4035  006C25  FFFF               	dw	65535
  4036  006C27  FFFF               	dw	65535
  4037  006C29  FFFF               	dw	65535
  4038  006C2B  FFFF               	dw	65535
  4039  006C2D  FFFF               	dw	65535
  4040  006C2F  FFFF               	dw	65535
  4041  006C31  FFFF               	dw	65535
  4042  006C33  FFFF               	dw	65535
  4043  006C35  FFFF               	dw	65535
  4044  006C37  FFFF               	dw	65535
  4045  006C39  FFFF               	dw	65535
  4046  006C3B  FFFF               	dw	65535
  4047  006C3D  FFFF               	dw	65535
  4048  006C3F  FFFF               	dw	65535
  4049  006C41  FFFF               	dw	65535
  4050  006C43  FFFF               	dw	65535
  4051  006C45  FFFF               	dw	65535
  4052  006C47  FFFF               	dw	65535
  4053  006C49  FFDF               	dw	65503
  4054  006C4B  FFDF               	dw	65503
  4055  006C4D  FFDF               	dw	65503
  4056  006C4F  FFDF               	dw	65503
  4057  006C51  FFDF               	dw	65503
  4058  006C53  FFFF               	dw	65535
  4059  006C55  FFFF               	dw	65535
  4060  006C57  FFFF               	dw	65535
  4061  006C59  FFFF               	dw	65535
  4062  006C5B  FFFF               	dw	65535
  4063  006C5D  FFFF               	dw	65535
  4064  006C5F  FFFF               	dw	65535
  4065  006C61  FFFF               	dw	65535
  4066  006C63  FFFF               	dw	65535
  4067  006C65  FFFF               	dw	65535
  4068  006C67  FFFF               	dw	65535
  4069  006C69  FFFF               	dw	65535
  4070  006C6B  FFFF               	dw	65535
  4071  006C6D  FFFF               	dw	65535
  4072  006C6F  FFFF               	dw	65535
  4073  006C71  FFDF               	dw	65503
  4074  006C73  FFDF               	dw	65503
  4075  006C75  FFDF               	dw	65503
  4076  006C77  FFDF               	dw	65503
  4077  006C79  FFDF               	dw	65503
  4078  006C7B  FFFF               	dw	65535
  4079  006C7D  FFFF               	dw	65535
  4080  006C7F  FFFF               	dw	65535
  4081  006C81  FFFF               	dw	65535
  4082  006C83  FFFF               	dw	65535
  4083  006C85  FFFF               	dw	65535
  4084  006C87  FFFF               	dw	65535
  4085  006C89  FFFF               	dw	65535
  4086  006C8B  FFFF               	dw	65535
  4087  006C8D  FFFF               	dw	65535
  4088  006C8F  FFFF               	dw	65535
  4089  006C91  FFFF               	dw	65535
  4090  006C93  FFFF               	dw	65535
  4091  006C95  FFFF               	dw	65535
  4092  006C97  FFFF               	dw	65535
  4093  006C99  FFDF               	dw	65503
  4094  006C9B  FFDF               	dw	65503
  4095  006C9D  FFDF               	dw	65503
  4096  006C9F  FFDF               	dw	65503
  4097  006CA1  FFDF               	dw	65503
  4098  006CA3  FFFF               	dw	65535
  4099  006CA5  FFFF               	dw	65535
  4100  006CA7  FFFF               	dw	65535
  4101  006CA9  FFFF               	dw	65535
  4102  006CAB  FFFF               	dw	65535
  4103  006CAD  FFFF               	dw	65535
  4104  006CAF  FFFF               	dw	65535
  4105  006CB1  FFFF               	dw	65535
  4106  006CB3  FFFF               	dw	65535
  4107  006CB5  FFFF               	dw	65535
  4108  006CB7  FFFF               	dw	65535
  4109  006CB9  FFFF               	dw	65535
  4110  006CBB  FFFF               	dw	65535
  4111  006CBD  FFFF               	dw	65535
  4112  006CBF  FFFF               	dw	65535
  4113  006CC1  FFFF               	dw	65535
  4114  006CC3  FFFF               	dw	65535
  4115  006CC5  FFFF               	dw	65535
  4116  006CC7  FFFF               	dw	65535
  4117  006CC9  FFFF               	dw	65535
  4118  006CCB  FFFF               	dw	65535
  4119  006CCD  FFFF               	dw	65535
  4120  006CCF  FFFF               	dw	65535
  4121  006CD1  FFFF               	dw	65535
  4122  006CD3  FFFF               	dw	65535
  4123  006CD5  FFFF               	dw	65535
  4124  006CD7  FFFF               	dw	65535
  4125  006CD9  FFFF               	dw	65535
  4126  006CDB  FFFF               	dw	65535
  4127  006CDD  FFFF               	dw	65535
  4128  006CDF  FFFF               	dw	65535
  4129  006CE1  FFFF               	dw	65535
  4130  006CE3  FFFF               	dw	65535
  4131  006CE5  FFFF               	dw	65535
  4132  006CE7  FFFF               	dw	65535
  4133  006CE9  FFFF               	dw	65535
  4134  006CEB  FFFF               	dw	65535
  4135  006CED  FFFF               	dw	65535
  4136  006CEF  FFFF               	dw	65535
  4137  006CF1  FFFF               	dw	65535
  4138  006CF3  FFFF               	dw	65535
  4139  006CF5  FFFF               	dw	65535
  4140  006CF7  FFFF               	dw	65535
  4141  006CF9  FFFF               	dw	65535
  4142  006CFB  FFFF               	dw	65535
  4143  006CFD  FFFF               	dw	65535
  4144  006CFF  FFFF               	dw	65535
  4145  006D01  FFFF               	dw	65535
  4146  006D03  FFFF               	dw	65535
  4147  006D05  FFFF               	dw	65535
  4148  006D07  FFFF               	dw	65535
  4149  006D09  FFFF               	dw	65535
  4150  006D0B  FFFF               	dw	65535
  4151  006D0D  FFFF               	dw	65535
  4152  006D0F  FFFF               	dw	65535
  4153  006D11  FFFF               	dw	65535
  4154  006D13  FFFF               	dw	65535
  4155  006D15  FFFF               	dw	65535
  4156  006D17  FFFF               	dw	65535
  4157  006D19  FFFF               	dw	65535
  4158  006D1B  FFFF               	dw	65535
  4159  006D1D  FFFF               	dw	65535
  4160  006D1F  FFFF               	dw	65535
  4161  006D21  FFFF               	dw	65535
  4162  006D23  FFFF               	dw	65535
  4163  006D25  FFFF               	dw	65535
  4164  006D27  FFFF               	dw	65535
  4165  006D29  FFFF               	dw	65535
  4166  006D2B                     __end_of_icon1:
  4167                           	opt stack 0
  4168  006D2B                     _Courier_New_Bold_20:
  4169                           	opt stack 0
  4170  006D2B  00                 	db	0
  4171  006D2C  00                 	db	0
  4172  006D2D  20                 	db	32
  4173  006D2E  00                 	db	0
  4174  006D2F  7E                 	db	126
  4175  006D30  00                 	db	0
  4176  006D31  17                 	db	23
  4177  006D32  00                 	db	0
  4178  006D33  0C                 	db	12
  4179  006D34  84                 	db	132
  4180  006D35  01                 	db	1
  4181  006D36  00                 	db	0
  4182  006D37  0C                 	db	12
  4183  006D38  B2                 	db	178
  4184  006D39  01                 	db	1
  4185  006D3A  00                 	db	0
  4186  006D3B  0C                 	db	12
  4187  006D3C  E0                 	db	224
  4188  006D3D  01                 	db	1
  4189  006D3E  00                 	db	0
  4190  006D3F  0C                 	db	12
  4191  006D40  0E                 	db	14
  4192  006D41  02                 	db	2
  4193  006D42  00                 	db	0
  4194  006D43  0C                 	db	12
  4195  006D44  3C                 	db	60
  4196  006D45  02                 	db	2
  4197  006D46  00                 	db	0
  4198  006D47  0C                 	db	12
  4199  006D48  6A                 	db	106
  4200  006D49  02                 	db	2
  4201  006D4A  00                 	db	0
  4202  006D4B  0C                 	db	12
  4203  006D4C  98                 	db	152
  4204  006D4D  02                 	db	2
  4205  006D4E  00                 	db	0
  4206  006D4F  0C                 	db	12
  4207  006D50  C6                 	db	198
  4208  006D51  02                 	db	2
  4209  006D52  00                 	db	0
  4210  006D53  0C                 	db	12
  4211  006D54  F4                 	db	244
  4212  006D55  02                 	db	2
  4213  006D56  00                 	db	0
  4214  006D57  0C                 	db	12
  4215  006D58  22                 	db	34
  4216  006D59  03                 	db	3
  4217  006D5A  00                 	db	0
  4218  006D5B  0C                 	db	12
  4219  006D5C  50                 	db	80
  4220  006D5D  03                 	db	3
  4221  006D5E  00                 	db	0
  4222  006D5F  0C                 	db	12
  4223  006D60  7E                 	db	126
  4224  006D61  03                 	db	3
  4225  006D62  00                 	db	0
  4226  006D63  0C                 	db	12
  4227  006D64  AC                 	db	172
  4228  006D65  03                 	db	3
  4229  006D66  00                 	db	0
  4230  006D67  0C                 	db	12
  4231  006D68  DA                 	db	218
  4232  006D69  03                 	db	3
  4233  006D6A  00                 	db	0
  4234  006D6B  0C                 	db	12
  4235  006D6C  08                 	db	8
  4236  006D6D  04                 	db	4
  4237  006D6E  00                 	db	0
  4238  006D6F  0C                 	db	12
  4239  006D70  36                 	db	54
  4240  006D71  04                 	db	4
  4241  006D72  00                 	db	0
  4242  006D73  0C                 	db	12
  4243  006D74  64                 	db	100
  4244  006D75  04                 	db	4
  4245  006D76  00                 	db	0
  4246  006D77  0C                 	db	12
  4247  006D78  92                 	db	146
  4248  006D79  04                 	db	4
  4249  006D7A  00                 	db	0
  4250  006D7B  0C                 	db	12
  4251  006D7C  C0                 	db	192
  4252  006D7D  04                 	db	4
  4253  006D7E  00                 	db	0
  4254  006D7F  0C                 	db	12
  4255  006D80  EE                 	db	238
  4256  006D81  04                 	db	4
  4257  006D82  00                 	db	0
  4258  006D83  0C                 	db	12
  4259  006D84  1C                 	db	28
  4260  006D85  05                 	db	5
  4261  006D86  00                 	db	0
  4262  006D87  0C                 	db	12
  4263  006D88  4A                 	db	74
  4264  006D89  05                 	db	5
  4265  006D8A  00                 	db	0
  4266  006D8B  0C                 	db	12
  4267  006D8C  78                 	db	120
  4268  006D8D  05                 	db	5
  4269  006D8E  00                 	db	0
  4270  006D8F  0C                 	db	12
  4271  006D90  A6                 	db	166
  4272  006D91  05                 	db	5
  4273  006D92  00                 	db	0
  4274  006D93  0C                 	db	12
  4275  006D94  D4                 	db	212
  4276  006D95  05                 	db	5
  4277  006D96  00                 	db	0
  4278  006D97  0C                 	db	12
  4279  006D98  02                 	db	2
  4280  006D99  06                 	db	6
  4281  006D9A  00                 	db	0
  4282  006D9B  0C                 	db	12
  4283  006D9C  30                 	db	48
  4284  006D9D  06                 	db	6
  4285  006D9E  00                 	db	0
  4286  006D9F  0C                 	db	12
  4287  006DA0  5E                 	db	94
  4288  006DA1  06                 	db	6
  4289  006DA2  00                 	db	0
  4290  006DA3  0C                 	db	12
  4291  006DA4  8C                 	db	140
  4292  006DA5  06                 	db	6
  4293  006DA6  00                 	db	0
  4294  006DA7  0C                 	db	12
  4295  006DA8  BA                 	db	186
  4296  006DA9  06                 	db	6
  4297  006DAA  00                 	db	0
  4298  006DAB  0C                 	db	12
  4299  006DAC  E8                 	db	232
  4300  006DAD  06                 	db	6
  4301  006DAE  00                 	db	0
  4302  006DAF  0C                 	db	12
  4303  006DB0  16                 	db	22
  4304  006DB1  07                 	db	7
  4305  006DB2  00                 	db	0
  4306  006DB3  0C                 	db	12
  4307  006DB4  44                 	db	68
  4308  006DB5  07                 	db	7
  4309  006DB6  00                 	db	0
  4310  006DB7  0C                 	db	12
  4311  006DB8  72                 	db	114
  4312  006DB9  07                 	db	7
  4313  006DBA  00                 	db	0
  4314  006DBB  0C                 	db	12
  4315  006DBC  A0                 	db	160
  4316  006DBD  07                 	db	7
  4317  006DBE  00                 	db	0
  4318  006DBF  0C                 	db	12
  4319  006DC0  CE                 	db	206
  4320  006DC1  07                 	db	7
  4321  006DC2  00                 	db	0
  4322  006DC3  0C                 	db	12
  4323  006DC4  FC                 	db	252
  4324  006DC5  07                 	db	7
  4325  006DC6  00                 	db	0
  4326  006DC7  0C                 	db	12
  4327  006DC8  2A                 	db	42
  4328  006DC9  08                 	db	8
  4329  006DCA  00                 	db	0
  4330  006DCB  0C                 	db	12
  4331  006DCC  58                 	db	88
  4332  006DCD  08                 	db	8
  4333  006DCE  00                 	db	0
  4334  006DCF  0C                 	db	12
  4335  006DD0  86                 	db	134
  4336  006DD1  08                 	db	8
  4337  006DD2  00                 	db	0
  4338  006DD3  0C                 	db	12
  4339  006DD4  B4                 	db	180
  4340  006DD5  08                 	db	8
  4341  006DD6  00                 	db	0
  4342  006DD7  0C                 	db	12
  4343  006DD8  E2                 	db	226
  4344  006DD9  08                 	db	8
  4345  006DDA  00                 	db	0
  4346  006DDB  0C                 	db	12
  4347  006DDC  10                 	db	16
  4348  006DDD  09                 	db	9
  4349  006DDE  00                 	db	0
  4350  006DDF  0C                 	db	12
  4351  006DE0  3E                 	db	62
  4352  006DE1  09                 	db	9
  4353  006DE2  00                 	db	0
  4354  006DE3  0C                 	db	12
  4355  006DE4  6C                 	db	108
  4356  006DE5  09                 	db	9
  4357  006DE6  00                 	db	0
  4358  006DE7  0C                 	db	12
  4359  006DE8  9A                 	db	154
  4360  006DE9  09                 	db	9
  4361  006DEA  00                 	db	0
  4362  006DEB  0C                 	db	12
  4363  006DEC  C8                 	db	200
  4364  006DED  09                 	db	9
  4365  006DEE  00                 	db	0
  4366  006DEF  0C                 	db	12
  4367  006DF0  F6                 	db	246
  4368  006DF1  09                 	db	9
  4369  006DF2  00                 	db	0
  4370  006DF3  0C                 	db	12
  4371  006DF4  24                 	db	36
  4372  006DF5  0A                 	db	10
  4373  006DF6  00                 	db	0
  4374  006DF7  0C                 	db	12
  4375  006DF8  52                 	db	82
  4376  006DF9  0A                 	db	10
  4377  006DFA  00                 	db	0
  4378  006DFB  0C                 	db	12
  4379  006DFC  80                 	db	128
  4380  006DFD  0A                 	db	10
  4381  006DFE  00                 	db	0
  4382  006DFF  0C                 	db	12
  4383  006E00  AE                 	db	174
  4384  006E01  0A                 	db	10
  4385  006E02  00                 	db	0
  4386  006E03  0C                 	db	12
  4387  006E04  DC                 	db	220
  4388  006E05  0A                 	db	10
  4389  006E06  00                 	db	0
  4390  006E07  0C                 	db	12
  4391  006E08  0A                 	db	10
  4392  006E09  0B                 	db	11
  4393  006E0A  00                 	db	0
  4394  006E0B  0C                 	db	12
  4395  006E0C  38                 	db	56
  4396  006E0D  0B                 	db	11
  4397  006E0E  00                 	db	0
  4398  006E0F  0C                 	db	12
  4399  006E10  66                 	db	102
  4400  006E11  0B                 	db	11
  4401  006E12  00                 	db	0
  4402  006E13  0C                 	db	12
  4403  006E14  94                 	db	148
  4404  006E15  0B                 	db	11
  4405  006E16  00                 	db	0
  4406  006E17  0C                 	db	12
  4407  006E18  C2                 	db	194
  4408  006E19  0B                 	db	11
  4409  006E1A  00                 	db	0
  4410  006E1B  0C                 	db	12
  4411  006E1C  F0                 	db	240
  4412  006E1D  0B                 	db	11
  4413  006E1E  00                 	db	0
  4414  006E1F  0C                 	db	12
  4415  006E20  1E                 	db	30
  4416  006E21  0C                 	db	12
  4417  006E22  00                 	db	0
  4418  006E23  0C                 	db	12
  4419  006E24  4C                 	db	76
  4420  006E25  0C                 	db	12
  4421  006E26  00                 	db	0
  4422  006E27  0C                 	db	12
  4423  006E28  7A                 	db	122
  4424  006E29  0C                 	db	12
  4425  006E2A  00                 	db	0
  4426  006E2B  0C                 	db	12
  4427  006E2C  A8                 	db	168
  4428  006E2D  0C                 	db	12
  4429  006E2E  00                 	db	0
  4430  006E2F  0C                 	db	12
  4431  006E30  D6                 	db	214
  4432  006E31  0C                 	db	12
  4433  006E32  00                 	db	0
  4434  006E33  0C                 	db	12
  4435  006E34  04                 	db	4
  4436  006E35  0D                 	db	13
  4437  006E36  00                 	db	0
  4438  006E37  0C                 	db	12
  4439  006E38  32                 	db	50
  4440  006E39  0D                 	db	13
  4441  006E3A  00                 	db	0
  4442  006E3B  0C                 	db	12
  4443  006E3C  60                 	db	96
  4444  006E3D  0D                 	db	13
  4445  006E3E  00                 	db	0
  4446  006E3F  0C                 	db	12
  4447  006E40  8E                 	db	142
  4448  006E41  0D                 	db	13
  4449  006E42  00                 	db	0
  4450  006E43  0C                 	db	12
  4451  006E44  BC                 	db	188
  4452  006E45  0D                 	db	13
  4453  006E46  00                 	db	0
  4454  006E47  0C                 	db	12
  4455  006E48  EA                 	db	234
  4456  006E49  0D                 	db	13
  4457  006E4A  00                 	db	0
  4458  006E4B  0C                 	db	12
  4459  006E4C  18                 	db	24
  4460  006E4D  0E                 	db	14
  4461  006E4E  00                 	db	0
  4462  006E4F  0C                 	db	12
  4463  006E50  46                 	db	70
  4464  006E51  0E                 	db	14
  4465  006E52  00                 	db	0
  4466  006E53  0C                 	db	12
  4467  006E54  74                 	db	116
  4468  006E55  0E                 	db	14
  4469  006E56  00                 	db	0
  4470  006E57  0C                 	db	12
  4471  006E58  A2                 	db	162
  4472  006E59  0E                 	db	14
  4473  006E5A  00                 	db	0
  4474  006E5B  0C                 	db	12
  4475  006E5C  D0                 	db	208
  4476  006E5D  0E                 	db	14
  4477  006E5E  00                 	db	0
  4478  006E5F  0C                 	db	12
  4479  006E60  FE                 	db	254
  4480  006E61  0E                 	db	14
  4481  006E62  00                 	db	0
  4482  006E63  0C                 	db	12
  4483  006E64  2C                 	db	44
  4484  006E65  0F                 	db	15
  4485  006E66  00                 	db	0
  4486  006E67  0C                 	db	12
  4487  006E68  5A                 	db	90
  4488  006E69  0F                 	db	15
  4489  006E6A  00                 	db	0
  4490  006E6B  0C                 	db	12
  4491  006E6C  88                 	db	136
  4492  006E6D  0F                 	db	15
  4493  006E6E  00                 	db	0
  4494  006E6F  0C                 	db	12
  4495  006E70  B6                 	db	182
  4496  006E71  0F                 	db	15
  4497  006E72  00                 	db	0
  4498  006E73  0C                 	db	12
  4499  006E74  E4                 	db	228
  4500  006E75  0F                 	db	15
  4501  006E76  00                 	db	0
  4502  006E77  0C                 	db	12
  4503  006E78  12                 	db	18
  4504  006E79  10                 	db	16
  4505  006E7A  00                 	db	0
  4506  006E7B  0C                 	db	12
  4507  006E7C  40                 	db	64
  4508  006E7D  10                 	db	16
  4509  006E7E  00                 	db	0
  4510  006E7F  0C                 	db	12
  4511  006E80  6E                 	db	110
  4512  006E81  10                 	db	16
  4513  006E82  00                 	db	0
  4514  006E83  0C                 	db	12
  4515  006E84  9C                 	db	156
  4516  006E85  10                 	db	16
  4517  006E86  00                 	db	0
  4518  006E87  0C                 	db	12
  4519  006E88  CA                 	db	202
  4520  006E89  10                 	db	16
  4521  006E8A  00                 	db	0
  4522  006E8B  0C                 	db	12
  4523  006E8C  F8                 	db	248
  4524  006E8D  10                 	db	16
  4525  006E8E  00                 	db	0
  4526  006E8F  0C                 	db	12
  4527  006E90  26                 	db	38
  4528  006E91  11                 	db	17
  4529  006E92  00                 	db	0
  4530  006E93  0C                 	db	12
  4531  006E94  54                 	db	84
